{
  "address": "0xF3E6FDDCcdaEC2C4B78B86d7a58e352Bf246abc9",
  "abi": [
    {
      "inputs": [
        {
          "internalType": "address",
          "name": "wrapped1155Factory",
          "type": "address"
        },
        {
          "internalType": "address",
          "name": "cloberMarketFactory",
          "type": "address"
        },
        {
          "internalType": "address",
          "name": "couponManager",
          "type": "address"
        },
        {
          "internalType": "address",
          "name": "weth",
          "type": "address"
        },
        {
          "internalType": "address",
          "name": "loanPositionManager",
          "type": "address"
        },
        {
          "internalType": "address",
          "name": "router",
          "type": "address"
        }
      ],
      "stateMutability": "nonpayable",
      "type": "constructor"
    },
    {
      "inputs": [
        {
          "internalType": "address",
          "name": "target",
          "type": "address"
        }
      ],
      "name": "AddressEmptyCode",
      "type": "error"
    },
    {
      "inputs": [
        {
          "internalType": "address",
          "name": "account",
          "type": "address"
        }
      ],
      "name": "AddressInsufficientBalance",
      "type": "error"
    },
    {
      "inputs": [
        {
          "internalType": "string",
          "name": "reason",
          "type": "string"
        }
      ],
      "name": "CollateralSwapFailed",
      "type": "error"
    },
    {
      "inputs": [],
      "name": "ControllerSlippage",
      "type": "error"
    },
    {
      "inputs": [],
      "name": "FailedInnerCall",
      "type": "error"
    },
    {
      "inputs": [],
      "name": "InvalidAccess",
      "type": "error"
    },
    {
      "inputs": [],
      "name": "InvalidDebtAmount",
      "type": "error"
    },
    {
      "inputs": [],
      "name": "InvalidMarket",
      "type": "error"
    },
    {
      "inputs": [
        {
          "internalType": "address",
          "name": "owner",
          "type": "address"
        }
      ],
      "name": "OwnableInvalidOwner",
      "type": "error"
    },
    {
      "inputs": [
        {
          "internalType": "address",
          "name": "account",
          "type": "address"
        }
      ],
      "name": "OwnableUnauthorizedAccount",
      "type": "error"
    },
    {
      "inputs": [],
      "name": "Reentrancy",
      "type": "error"
    },
    {
      "inputs": [
        {
          "internalType": "address",
          "name": "token",
          "type": "address"
        }
      ],
      "name": "SafeERC20FailedOperation",
      "type": "error"
    },
    {
      "anonymous": false,
      "inputs": [
        {
          "indexed": true,
          "internalType": "address",
          "name": "previousOwner",
          "type": "address"
        },
        {
          "indexed": true,
          "internalType": "address",
          "name": "newOwner",
          "type": "address"
        }
      ],
      "name": "OwnershipTransferStarted",
      "type": "event"
    },
    {
      "anonymous": false,
      "inputs": [
        {
          "indexed": true,
          "internalType": "address",
          "name": "previousOwner",
          "type": "address"
        },
        {
          "indexed": true,
          "internalType": "address",
          "name": "newOwner",
          "type": "address"
        }
      ],
      "name": "OwnershipTransferred",
      "type": "event"
    },
    {
      "anonymous": false,
      "inputs": [
        {
          "indexed": true,
          "internalType": "address",
          "name": "asset",
          "type": "address"
        },
        {
          "indexed": true,
          "internalType": "Epoch",
          "name": "epoch",
          "type": "uint16"
        },
        {
          "indexed": true,
          "internalType": "address",
          "name": "cloberMarket",
          "type": "address"
        }
      ],
      "name": "SetCouponMarket",
      "type": "event"
    },
    {
      "inputs": [],
      "name": "acceptOwnership",
      "outputs": [],
      "stateMutability": "nonpayable",
      "type": "function"
    },
    {
      "inputs": [
        {
          "internalType": "uint256",
          "name": "positionId",
          "type": "uint256"
        },
        {
          "internalType": "uint256",
          "name": "collateralAmount",
          "type": "uint256"
        },
        {
          "internalType": "uint256",
          "name": "borrowAmount",
          "type": "uint256"
        },
        {
          "internalType": "uint256",
          "name": "maxPayInterest",
          "type": "uint256"
        },
        {
          "internalType": "uint256",
          "name": "minEarnInterest",
          "type": "uint256"
        },
        {
          "internalType": "Epoch",
          "name": "expiredWith",
          "type": "uint16"
        },
        {
          "components": [
            {
              "internalType": "address",
              "name": "inToken",
              "type": "address"
            },
            {
              "internalType": "uint256",
              "name": "amount",
              "type": "uint256"
            },
            {
              "internalType": "bytes",
              "name": "data",
              "type": "bytes"
            }
          ],
          "internalType": "struct IBorrowController.SwapParams",
          "name": "swapParams",
          "type": "tuple"
        },
        {
          "components": [
            {
              "internalType": "uint256",
              "name": "deadline",
              "type": "uint256"
            },
            {
              "internalType": "uint8",
              "name": "v",
              "type": "uint8"
            },
            {
              "internalType": "bytes32",
              "name": "r",
              "type": "bytes32"
            },
            {
              "internalType": "bytes32",
              "name": "s",
              "type": "bytes32"
            }
          ],
          "internalType": "struct PermitSignature",
          "name": "positionPermitParams",
          "type": "tuple"
        },
        {
          "components": [
            {
              "internalType": "uint256",
              "name": "permitAmount",
              "type": "uint256"
            },
            {
              "components": [
                {
                  "internalType": "uint256",
                  "name": "deadline",
                  "type": "uint256"
                },
                {
                  "internalType": "uint8",
                  "name": "v",
                  "type": "uint8"
                },
                {
                  "internalType": "bytes32",
                  "name": "r",
                  "type": "bytes32"
                },
                {
                  "internalType": "bytes32",
                  "name": "s",
                  "type": "bytes32"
                }
              ],
              "internalType": "struct PermitSignature",
              "name": "signature",
              "type": "tuple"
            }
          ],
          "internalType": "struct ERC20PermitParams",
          "name": "collateralPermitParams",
          "type": "tuple"
        },
        {
          "components": [
            {
              "internalType": "uint256",
              "name": "permitAmount",
              "type": "uint256"
            },
            {
              "components": [
                {
                  "internalType": "uint256",
                  "name": "deadline",
                  "type": "uint256"
                },
                {
                  "internalType": "uint8",
                  "name": "v",
                  "type": "uint8"
                },
                {
                  "internalType": "bytes32",
                  "name": "r",
                  "type": "bytes32"
                },
                {
                  "internalType": "bytes32",
                  "name": "s",
                  "type": "bytes32"
                }
              ],
              "internalType": "struct PermitSignature",
              "name": "signature",
              "type": "tuple"
            }
          ],
          "internalType": "struct ERC20PermitParams",
          "name": "debtPermitParams",
          "type": "tuple"
        }
      ],
      "name": "adjustPosition",
      "outputs": [],
      "stateMutability": "payable",
      "type": "function"
    },
    {
      "inputs": [
        {
          "internalType": "address",
          "name": "collateralToken",
          "type": "address"
        },
        {
          "internalType": "address",
          "name": "debtToken",
          "type": "address"
        },
        {
          "internalType": "uint256",
          "name": "collateralAmount",
          "type": "uint256"
        },
        {
          "internalType": "uint256",
          "name": "borrowAmount",
          "type": "uint256"
        },
        {
          "internalType": "uint256",
          "name": "maxPayInterest",
          "type": "uint256"
        },
        {
          "internalType": "Epoch",
          "name": "expiredWith",
          "type": "uint16"
        },
        {
          "components": [
            {
              "internalType": "address",
              "name": "inToken",
              "type": "address"
            },
            {
              "internalType": "uint256",
              "name": "amount",
              "type": "uint256"
            },
            {
              "internalType": "bytes",
              "name": "data",
              "type": "bytes"
            }
          ],
          "internalType": "struct IBorrowController.SwapParams",
          "name": "swapParams",
          "type": "tuple"
        },
        {
          "components": [
            {
              "internalType": "uint256",
              "name": "permitAmount",
              "type": "uint256"
            },
            {
              "components": [
                {
                  "internalType": "uint256",
                  "name": "deadline",
                  "type": "uint256"
                },
                {
                  "internalType": "uint8",
                  "name": "v",
                  "type": "uint8"
                },
                {
                  "internalType": "bytes32",
                  "name": "r",
                  "type": "bytes32"
                },
                {
                  "internalType": "bytes32",
                  "name": "s",
                  "type": "bytes32"
                }
              ],
              "internalType": "struct PermitSignature",
              "name": "signature",
              "type": "tuple"
            }
          ],
          "internalType": "struct ERC20PermitParams",
          "name": "collateralPermitParams",
          "type": "tuple"
        }
      ],
      "name": "borrow",
      "outputs": [],
      "stateMutability": "payable",
      "type": "function"
    },
    {
      "inputs": [
        {
          "internalType": "address",
          "name": "inputToken",
          "type": "address"
        },
        {
          "internalType": "address",
          "name": "",
          "type": "address"
        },
        {
          "internalType": "uint256",
          "name": "inputAmount",
          "type": "uint256"
        },
        {
          "internalType": "uint256",
          "name": "outputAmount",
          "type": "uint256"
        },
        {
          "internalType": "bytes",
          "name": "data",
          "type": "bytes"
        }
      ],
      "name": "cloberMarketSwapCallback",
      "outputs": [],
      "stateMutability": "payable",
      "type": "function"
    },
    {
      "inputs": [
        {
          "components": [
            {
              "internalType": "address",
              "name": "asset",
              "type": "address"
            },
            {
              "internalType": "Epoch",
              "name": "epoch",
              "type": "uint16"
            }
          ],
          "internalType": "struct CouponKey",
          "name": "couponKey",
          "type": "tuple"
        }
      ],
      "name": "getCouponMarket",
      "outputs": [
        {
          "internalType": "address",
          "name": "",
          "type": "address"
        }
      ],
      "stateMutability": "view",
      "type": "function"
    },
    {
      "inputs": [
        {
          "internalType": "address",
          "name": "",
          "type": "address"
        },
        {
          "internalType": "address",
          "name": "",
          "type": "address"
        },
        {
          "internalType": "uint256[]",
          "name": "",
          "type": "uint256[]"
        },
        {
          "internalType": "uint256[]",
          "name": "",
          "type": "uint256[]"
        },
        {
          "internalType": "bytes",
          "name": "",
          "type": "bytes"
        }
      ],
      "name": "onERC1155BatchReceived",
      "outputs": [
        {
          "internalType": "bytes4",
          "name": "",
          "type": "bytes4"
        }
      ],
      "stateMutability": "nonpayable",
      "type": "function"
    },
    {
      "inputs": [
        {
          "internalType": "address",
          "name": "",
          "type": "address"
        },
        {
          "internalType": "address",
          "name": "",
          "type": "address"
        },
        {
          "internalType": "uint256",
          "name": "",
          "type": "uint256"
        },
        {
          "internalType": "uint256",
          "name": "",
          "type": "uint256"
        },
        {
          "internalType": "bytes",
          "name": "",
          "type": "bytes"
        }
      ],
      "name": "onERC1155Received",
      "outputs": [
        {
          "internalType": "bytes4",
          "name": "",
          "type": "bytes4"
        }
      ],
      "stateMutability": "nonpayable",
      "type": "function"
    },
    {
      "inputs": [],
      "name": "owner",
      "outputs": [
        {
          "internalType": "address",
          "name": "",
          "type": "address"
        }
      ],
      "stateMutability": "view",
      "type": "function"
    },
    {
      "inputs": [],
      "name": "pendingOwner",
      "outputs": [
        {
          "internalType": "address",
          "name": "",
          "type": "address"
        }
      ],
      "stateMutability": "view",
      "type": "function"
    },
    {
      "inputs": [
        {
          "internalType": "bytes",
          "name": "data",
          "type": "bytes"
        }
      ],
      "name": "positionLockAcquired",
      "outputs": [
        {
          "internalType": "bytes",
          "name": "result",
          "type": "bytes"
        }
      ],
      "stateMutability": "nonpayable",
      "type": "function"
    },
    {
      "inputs": [],
      "name": "renounceOwnership",
      "outputs": [],
      "stateMutability": "nonpayable",
      "type": "function"
    },
    {
      "inputs": [
        {
          "components": [
            {
              "internalType": "address",
              "name": "asset",
              "type": "address"
            },
            {
              "internalType": "Epoch",
              "name": "epoch",
              "type": "uint16"
            }
          ],
          "internalType": "struct CouponKey",
          "name": "couponKey",
          "type": "tuple"
        },
        {
          "internalType": "address",
          "name": "cloberMarket",
          "type": "address"
        }
      ],
      "name": "setCouponMarket",
      "outputs": [],
      "stateMutability": "nonpayable",
      "type": "function"
    },
    {
      "inputs": [
        {
          "internalType": "bytes4",
          "name": "interfaceId",
          "type": "bytes4"
        }
      ],
      "name": "supportsInterface",
      "outputs": [
        {
          "internalType": "bool",
          "name": "",
          "type": "bool"
        }
      ],
      "stateMutability": "view",
      "type": "function"
    },
    {
      "inputs": [
        {
          "internalType": "address",
          "name": "newOwner",
          "type": "address"
        }
      ],
      "name": "transferOwnership",
      "outputs": [],
      "stateMutability": "nonpayable",
      "type": "function"
    },
    {
      "stateMutability": "payable",
      "type": "receive"
    }
  ],
  "transactionHash": "0x8f6ba2d7d4b7c4cd092859427ff9c8cfca1a732657ed51ae4576e5f9617019ce",
  "args": [
    "0xfcBE16BfD991E4949244E59d9b524e6964b8BB75",
    "0x24aC0938C010Fb520F1068e96d78E0458855111D",
    "0x8bbcA766D175aDbffB073832262990df1c5ef748",
    "0x82aF49447D8a07e3bd95BD0d56f35241523fBab1",
    "0x03d65411684ae7B5440E11a6063881a774C733dF",
    "0xa669e7A0d4b3e4Fa48af2dE86BD4CD7126Be4e13"
  ],
  "numDeployments": 1,
  "solcInputHash": "bf1f75cf4d098ad271d77dad6abe687d",
  "bytecode": "0x61014060405260016002553480156200001757600080fd5b5060405162004aa338038062004aa38339810160408190526200003a9162000131565b8585858533806200006557604051631e4fbdf760e01b81526000600482015260240160405180910390fd5b6200007081620000a6565b506001600160a01b0393841660805291831660a052821660c052811660e05291821661010052166101205250620001b292505050565b600180546001600160a01b0319169055620000c181620000c4565b50565b600080546001600160a01b038381166001600160a01b0319831681178455604051919092169283917f8be0079c531659141344cd1fd0a4f28419497f9722a3daafe3b4186f6b6457e09190a35050565b80516001600160a01b03811681146200012c57600080fd5b919050565b60008060008060008060c087890312156200014b57600080fd5b620001568762000114565b9550620001666020880162000114565b9450620001766040880162000114565b9350620001866060880162000114565b9250620001966080880162000114565b9150620001a660a0880162000114565b90509295509295509295565b60805160a05160c05160e05161010051610120516147cf620002d46000396000818161229a0152818161231c01526123e901526000818161079c01528181610833015281816108850152818161096801528181610a4201528181610b2301528181610bd201528181610cd601528181610d5a01528181610e5201528181610ee80152818161103a015281816110fc0152818161117901528181611213015281816112ee01528181611385015281816115fc01526116e10152600081816106ee015281816114af015281816121d701526122100152600081816103d301528181611aab015281816120160152612cb5015260008181610491015261180e0152600081816103a401528181611a7c015281816120450152612c8801526147cf6000f3fe6080604052600436106100e15760003560e01c8063bc197c811161007f578063e30c397811610059578063e30c397814610273578063f23a6e6114610291578063f2fde38b146102d6578063fd235fda146102f657600080fd5b8063bc197c81146101e0578063bf4415dc14610219578063cc84c6b91461026057600080fd5b806346a114e2116100bb57806346a114e214610157578063715018a61461018457806379ba5097146101995780638da5cb5b146101ae57600080fd5b806301ffc9a7146100ed57806329b084c1146101225780633c5cc1e41461014457600080fd5b366100e857005b600080fd5b3480156100f957600080fd5b5061010d610108366004613320565b610309565b60405190151581526020015b60405180910390f35b34801561012e57600080fd5b5061014261013d366004613467565b610372565b005b6101426101523660046134c3565b6106bf565b34801561016357600080fd5b50610177610172366004613603565b610a35565b6040516101199190613688565b34801561019057600080fd5b506101426113f8565b3480156101a557600080fd5b5061014261140c565b3480156101ba57600080fd5b506000546001600160a01b03165b6040516001600160a01b039091168152602001610119565b3480156101ec57600080fd5b506102006101fb366004613729565b611455565b6040516001600160e01b03199091168152602001610119565b34801561022557600080fd5b506101c86102343660046137d7565b602081810151915160a09290921b9091016000908152600390915260409020546001600160a01b031690565b61014261026e3660046137f3565b611480565b34801561027f57600080fd5b506001546001600160a01b03166101c8565b34801561029d57600080fd5b506102006102ac366004613897565b7ff23a6e610000000000000000000000000000000000000000000000000000000095945050505050565b3480156102e257600080fd5b506101426102f1366004613900565b611757565b61014261030436600461391d565b6117d5565b60006001600160e01b031982167f4e2312e000000000000000000000000000000000000000000000000000000000148061036c57507f01ffc9a7000000000000000000000000000000000000000000000000000000006001600160e01b03198316145b92915050565b61037a611b36565b600061038583611b63565b9050600061039e846020810151905160a09190911b0190565b905060007f00000000000000000000000000000000000000000000000000000000000000006001600160a01b03166308b2ea5e7f000000000000000000000000000000000000000000000000000000000000000084866040518463ffffffff1660e01b8152600401610412939291906139c7565b602060405180830381865afa15801561042f573d6000803e3d6000fd5b505050506040513d601f19601f8201168201806040525081019061045391906139ff565b6040517f0cf85bcc0000000000000000000000000000000000000000000000000000000081526001600160a01b0386811660048301529192506000917f00000000000000000000000000000000000000000000000000000000000000001690630cf85bcc9060240160a060405180830381865afa1580156104d8573d6000803e3d6000fd5b505050506040513d601f19601f820116820180604052508101906104fc9190613a3c565b80519091506001600160a01b031615806105895750816001600160a01b0316856001600160a01b031663c55dae636040518163ffffffff1660e01b8152600401602060405180830381865afa158015610559573d6000803e3d6000fd5b505050506040513d601f19601f8201168201806040525081019061057d91906139ff565b6001600160a01b031614155b8061060b575085600001516001600160a01b0316856001600160a01b031663217a4b706040518163ffffffff1660e01b8152600401602060405180830381865afa1580156105db573d6000803e3d6000fd5b505050506040513d601f19601f820116820180604052508101906105ff91906139ff565b6001600160a01b031614155b15610642576040517f9db8d5b100000000000000000000000000000000000000000000000000000000815260040160405180910390fd5b6000838152600360209081526040808320805473ffffffffffffffffffffffffffffffffffffffff19166001600160a01b038a8116918217909255928a01518a519251939461ffff9091169392909116917f36b618d929a94eeca73ecddec2f5e49fdb6e4bde0a20e2987baaabb9e7fc21ab9190a4505050505050565b6002546001146106e25760405163558a1e0360e11b815260040160405180910390fd5b600280554715610761577f00000000000000000000000000000000000000000000000000000000000000006001600160a01b031663d0e30db0476040518263ffffffff1660e01b81526004016000604051808303818588803b15801561074757600080fd5b505af115801561075b573d6000803e3d6000fd5b50505050505b6040517f6352211e000000000000000000000000000000000000000000000000000000008152600481018b90528a9033906001600160a01b037f00000000000000000000000000000000000000000000000000000000000000001690636352211e90602401602060405180830381865afa1580156107e3573d6000803e3d6000fd5b505050506040513d601f19601f8201168201806040525081019061080791906139ff565b6001600160a01b03161461082e57604051633006171960e21b815260040160405180910390fd5b61086b7f00000000000000000000000000000000000000000000000000000000000000008c3061086336899003890189613b52565b929190611d29565b5060405163eb02c30160e01b8152600481018c90526000907f00000000000000000000000000000000000000000000000000000000000000006001600160a01b03169063eb02c3019060240160e060405180830381865afa1580156108d4573d6000803e3d6000fd5b505050506040513d601f19601f820116820180604052508101906108f89190613b89565b905061092361090a8260600151611dee565b333061091b36899003890189613c1f565b929190611e52565b506109456109348260800151611dee565b333061091b36889003880188613c1f565b5060a081018b905260c081018a905261ffff871660208201526001600160a01b037f00000000000000000000000000000000000000000000000000000000000000001663815483196109a28e848d8d61099d8d613c56565b611e69565b6040518263ffffffff1660e01b81526004016109be9190613688565b6000604051808303816000875af11580156109dd573d6000803e3d6000fd5b505050506040513d6000823e601f3d908101601f19168201604052610a059190810190613d09565b50610a14816060015133611ef7565b610a22816080015133611ef7565b5050600160025550505050505050505050565b6060336001600160a01b037f00000000000000000000000000000000000000000000000000000000000000001614610a8057604051633006171960e21b815260040160405180910390fd5b604080516060808201835260008083526020830181905292820152819084806020019051810190610ab19190613d3e565b9750919450925090506000839003610bb95760008086806020019051810190610ada9190613e0b565b6040517fee1fe2ad0000000000000000000000000000000000000000000000000000000081526001600160a01b0380851660048301528084166024830152919a509294509092507f0000000000000000000000000000000000000000000000000000000000000000169063ee1fe2ad906044016020604051808303816000875af1158015610b6c573d6000803e3d6000fd5b505050506040513d601f19601f82011682018060405250810190610b909190613e6f565b945084604051602001610ba591815260200190565b604051602081830303815290604052955050505b60405163eb02c30160e01b8152600481018490526000907f00000000000000000000000000000000000000000000000000000000000000006001600160a01b03169063eb02c3019060240160e060405180830381865afa158015610c21573d6000803e3d6000fd5b505050506040513d601f19601f82011682018060405250810190610c459190613b89565b905060008087806020019051810190610c5e9190613e88565b61ffff9092166020880181905260c0880184905260a088018590526040517f42e910af000000000000000000000000000000000000000000000000000000008152600481018c905260248101959095526044850193909352606484019290925290935091506000908190819081906001600160a01b037f000000000000000000000000000000000000000000000000000000000000000016906342e910af906084016000604051808303816000875af1158015610d1f573d6000803e3d6000fd5b505050506040513d6000823e601f3d908101601f19168201604052610d479190810190613f94565b93509350935093506000821215610dff577f00000000000000000000000000000000000000000000000000000000000000006001600160a01b03166301e3366788606001513085610d979061401e565b6040516001600160e01b031960e086901b1681526001600160a01b0393841660048201529290911660248301526044820152606401600060405180830381600087803b158015610de657600080fd5b505af1158015610dfa573d6000803e3d6000fd5b505050505b6000811315610eb15760808701516040517f01e336670000000000000000000000000000000000000000000000000000000081526001600160a01b039182166004820152306024820152604481018390527f0000000000000000000000000000000000000000000000000000000000000000909116906301e3366790606401600060405180830381600087803b158015610e9857600080fd5b505af1158015610eac573d6000803e3d6000fd5b505050505b835115610f5a576040517f65ae58470000000000000000000000000000000000000000000000000000000081526001600160a01b037f000000000000000000000000000000000000000000000000000000000000000016906365ae584790610f1f90879030906004016140b6565b600060405180830381600087803b158015610f3957600080fd5b505af1158015610f4d573d6000803e3d6000fd5b50505050610f5a84611fd8565b86606001516001600160a01b031688600001516001600160a01b031603610f9d57610f97876060015188608001518a602001518b604001516120a7565b50610fdc565b86608001516001600160a01b031688600001516001600160a01b031603610fdc57610fda876080015188606001518a602001518b604001516120a7565b505b611006898860800151868660008612610ff6576000610fff565b610fff8661401e565b8b8b6125b2565b600082131561115b5761101e87606001518a846128e2565b606087015160405163095ea7b360e01b81526001600160a01b037f000000000000000000000000000000000000000000000000000000000000000081166004830152602482018590529091169063095ea7b3906044016020604051808303816000875af1158015611093573d6000803e3d6000fd5b505050506040513d601f19601f820116820180604052508101906110b791906140f2565b5060608701516040517f338b5dea0000000000000000000000000000000000000000000000000000000081526001600160a01b039182166004820152602481018490527f00000000000000000000000000000000000000000000000000000000000000009091169063338b5dea90604401600060405180830381600087803b15801561114257600080fd5b505af1158015611156573d6000803e3d6000fd5b505050505b60008112156112ae5760808701516001600160a01b031663095ea7b37f00000000000000000000000000000000000000000000000000000000000000006111a18461401e565b6040516001600160e01b031960e085901b1681526001600160a01b03909216600483015260248201526044016020604051808303816000875af11580156111ec573d6000803e3d6000fd5b505050506040513d601f19601f8201168201806040525081019061121091906140f2565b507f00000000000000000000000000000000000000000000000000000000000000006001600160a01b031663338b5dea88608001518361124f9061401e565b6040516001600160e01b031960e085901b1681526001600160a01b0390921660048301526024820152604401600060405180830381600087803b15801561129557600080fd5b505af11580156112a9573d6000803e3d6000fd5b505050505b825115611356576112be83612b2a565b6040517fe6ee95e20000000000000000000000000000000000000000000000000000000081526001600160a01b037f0000000000000000000000000000000000000000000000000000000000000000169063e6ee95e29061132390869060040161410d565b600060405180830381600087803b15801561133d57600080fd5b505af1158015611351573d6000803e3d6000fd5b505050505b6040517faba5b4b3000000000000000000000000000000000000000000000000000000008152600481018b90527f00000000000000000000000000000000000000000000000000000000000000006001600160a01b03169063aba5b4b390602401600060405180830381600087803b1580156113d157600080fd5b505af11580156113e5573d6000803e3d6000fd5b5050505050505050505050505050919050565b611400611b36565b61140a6000612d1d565b565b60015433906001600160a01b031681146114495760405163118cdaa760e01b81526001600160a01b03821660048201526024015b60405180910390fd5b61145281612d1d565b50565b7fbc197c81000000000000000000000000000000000000000000000000000000005b95945050505050565b6002546001146114a35760405163558a1e0360e11b815260040160405180910390fd5b600280554715611522577f00000000000000000000000000000000000000000000000000000000000000006001600160a01b031663d0e30db0476040518263ffffffff1660e01b81526004016000604051808303818588803b15801561150857600080fd5b505af115801561151c573d6000803e3d6000fd5b50505050505b61153f61152e89611dee565b333061091b36869003860186613c1f565b50604080516020810188905290810186905261ffff8416606082015260808101859052600060a082018190529060c0016040516020818303038152906040529050600033848b8b8560405160200161159993929190614120565b60408051601f19818403018152908290526115b994939291602001614175565b60408051601f19818403018152908290527f8154831900000000000000000000000000000000000000000000000000000000825291506000906001600160a01b037f00000000000000000000000000000000000000000000000000000000000000001690638154831990611631908590600401613688565b6000604051808303816000875af1158015611650573d6000803e3d6000fd5b505050506040513d6000823e601f3d908101601f191682016040526116789190810190613d09565b90506000818060200190518101906116909190613e6f565b905061169c8b33611ef7565b6116a68a33611ef7565b6040517f23b872dd000000000000000000000000000000000000000000000000000000008152306004820152336024820152604481018290527f00000000000000000000000000000000000000000000000000000000000000006001600160a01b0316906323b872dd90606401600060405180830381600087803b15801561172d57600080fd5b505af1158015611741573d6000803e3d6000fd5b5050600160025550505050505050505050505050565b61175f611b36565b600180546001600160a01b03831673ffffffffffffffffffffffffffffffffffffffff19909116811790915561179d6000546001600160a01b031690565b6001600160a01b03167f38d16b8cac22d99fc7c124b9cd0de2d3fa1faef420bfe791d8c362d765e2270060405160405180910390a350565b6040517fafdd9edc0000000000000000000000000000000000000000000000000000000081523360048201526000906001600160a01b037f0000000000000000000000000000000000000000000000000000000000000000169063afdd9edc90602401602060405180830381865afa158015611855573d6000803e3d6000fd5b505050506040513d601f19601f8201168201806040525081019061187991906139ff565b6001600160a01b0316036118a057604051633006171960e21b815260040160405180910390fd5b6000336001600160a01b031663217a4b706040518163ffffffff1660e01b8152600401602060405180830381865afa1580156118e0573d6000803e3d6000fd5b505050506040513d601f19601f8201168201806040525081019061190491906139ff565b60408051608081018252600091810182815260608201839052815260208101829052919250906060806000808061193d898b018b6142c9565b959c50939a5091985096509450925090506001600160a01b03808f1690891603611990578b82101561198257604051630f271b5560e41b815260040160405180910390fd5b918b0191908b9003906119a4565b8a8111156119a0578a90036119a4565b5060005b6119b3878987878787876125b2565b505050505060008711156119d5576119d56001600160a01b038a163389612d43565b6040516370a0823160e01b81523060048201526000906001600160a01b038b16906370a0823190602401602060405180830381865afa158015611a1c573d6000803e3d6000fd5b505050506040513d601f19601f82011682018060405250810190611a409190613e6f565b9050896001600160a01b0316846001600160a01b031614158015611a645750600081115b15611b2a576000611a788360000151611b63565b90507f00000000000000000000000000000000000000000000000000000000000000006001600160a01b03166352aecb247f0000000000000000000000000000000000000000000000000000000000000000611ad386612dbc565b8588866040518663ffffffff1660e01b8152600401611af695949392919061436e565b600060405180830381600087803b158015611b1057600080fd5b505af1158015611b24573d6000803e3d6000fd5b50505050505b50505050505050505050565b6000546001600160a01b0316331461140a5760405163118cdaa760e01b8152336004820152602401611440565b6060600082600001516001600160a01b03166395d89b416040518163ffffffff1660e01b8152600401600060405180830381865afa158015611ba9573d6000803e3d6000fd5b505050506040513d6000823e601f3d908101601f19168201604052611bd191908101906143a6565b90506000611be6846020015161ffff16612dd1565b905060008282604051602001611bfd9291906143ef565b604051602081830303815290604052611c1590614471565b905060008383604051602001611c2c929190614495565b604051602081830303815290604052611c4490614471565b9050825184510160020280601e0183019250806006018201915050818187600001516001600160a01b031663313ce5676040518163ffffffff1660e01b8152600401602060405180830381865afa158015611ca3573d6000803e3d6000fd5b505050506040513d601f19601f82011682018060405250810190611cc791906144ed565b60f81b604051602001611d0f9392919092835260208301919091527fff0000000000000000000000000000000000000000000000000000000000000016604082015260410190565b604051602081830303815290604052945050505050919050565b835160009015611de25784516020860151604080880151606089015191517f7ac2ff7b0000000000000000000000000000000000000000000000000000000081526001600160a01b03878116600483015260248201899052604482019590955260ff9093166064840152608483015260a482015290851690637ac2ff7b9060c401600060405180830381600087803b158015611dc457600080fd5b505af1925050508015611dd5575060015b15611de257506001611de6565b5060005b949350505050565b6000816001600160a01b0316632495a5996040518163ffffffff1660e01b8152600401602060405180830381865afa158015611e2e573d6000803e3d6000fd5b505050506040513d601f19601f8201168201806040525081019061036c91906139ff565b600061147785602001518587600001518686612e71565b606060008560a001518660c0015187602001518787604051602001611eb4959493929190948552602085019390935261ffff9190911660408401526060830152608082015260a00190565b604051602081830303815290604052905086338483604051602001611edc949392919061450a565b60405160208183030381529060405291505095945050505050565b6040516370a0823160e01b81523060048201526000906001600160a01b038416906370a0823190602401602060405180830381865afa158015611f3e573d6000803e3d6000fd5b505050506040513d601f19601f82011682018060405250810190611f629190613e6f565b905080600003611f7157505050565b604051633f34d4cf60e21b8152600481018290526001600160a01b03838116602483015284169063fcd3533c90604401600060405180830381600087803b158015611fbb57600080fd5b505af1158015611fcf573d6000803e3d6000fd5b50505050505050565b6000611fe382612f3e565b6040517fa50e72320000000000000000000000000000000000000000000000000000000081529091506001600160a01b037f0000000000000000000000000000000000000000000000000000000000000000169063a50e7232906120719030907f00000000000000000000000000000000000000000000000000000000000000009087908790600401614567565b600060405180830381600087803b15801561208b57600080fd5b505af115801561209f573d6000803e3d6000fd5b505050505050565b600080856001600160a01b0316632495a5996040518163ffffffff1660e01b8152600401602060405180830381865afa1580156120e8573d6000803e3d6000fd5b505050506040513d601f19601f8201168201806040525081019061210c91906139ff565b90506000856001600160a01b0316632495a5996040518163ffffffff1660e01b8152600401602060405180830381865afa15801561214e573d6000803e3d6000fd5b505050506040513d601f19601f8201168201806040525081019061217291906139ff565b604051633f34d4cf60e21b8152600481018790523060248201529091506001600160a01b0388169063fcd3533c90604401600060405180830381600087803b1580156121bd57600080fd5b505af11580156121d1573d6000803e3d6000fd5b505050507f00000000000000000000000000000000000000000000000000000000000000006001600160a01b0316826001600160a01b031603612283577f00000000000000000000000000000000000000000000000000000000000000006001600160a01b031663d0e30db0866040518263ffffffff1660e01b81526004016000604051808303818588803b15801561226957600080fd5b505af115801561227d573d6000803e3d6000fd5b50505050505b60405163095ea7b360e01b81526001600160a01b037f0000000000000000000000000000000000000000000000000000000000000000811660048301526024820187905283169063095ea7b3906044016020604051808303816000875af11580156122f2573d6000803e3d6000fd5b505050506040513d601f19601f8201168201806040525081019061231691906140f2565b506000807f00000000000000000000000000000000000000000000000000000000000000006001600160a01b03168660405161235291906145a5565b6000604051808303816000865af19150503d806000811461238f576040519150601f19603f3d011682016040523d82523d6000602084013e612394565b606091505b5091509150816123d257806040517feff884140000000000000000000000000000000000000000000000000000000081526004016114409190613688565b60405163095ea7b360e01b81526001600160a01b037f0000000000000000000000000000000000000000000000000000000000000000811660048301526000602483015285169063095ea7b3906044016020604051808303816000875af1158015612441573d6000803e3d6000fd5b505050506040513d601f19601f8201168201806040525081019061246591906140f2565b506040516370a0823160e01b81523060048201526001600160a01b038416906370a0823190602401602060405180830381865afa1580156124aa573d6000803e3d6000fd5b505050506040513d601f19601f820116820180604052508101906124ce9190613e6f565b60405163095ea7b360e01b81526001600160a01b038a81166004830152602482018390529196509084169063095ea7b3906044016020604051808303816000875af1158015612521573d6000803e3d6000fd5b505050506040513d601f19601f8201168201806040525081019061254591906140f2565b506040516394bf804d60e01b8152600481018690523060248201526001600160a01b038916906394bf804d90604401600060405180830381600087803b15801561258e57600080fd5b505af11580156125a2573d6000803e3d6000fd5b5050505050505050949350505050565b8351156127b157600084600186516125ca91906145c1565b815181106125da576125da6145d4565b602002602001015190506001855103855260008882888888888860405160200161260a97969594939291906145ea565b60405160208183030381529060405290506001865101865260006003600061263185612dbc565b815260200190815260200160002060009054906101000a90046001600160a01b031690506000816001600160a01b031663c55dae636040518163ffffffff1660e01b8152600401602060405180830381865afa158015612695573d6000803e3d6000fd5b505050506040513d601f19601f820116820180604052508101906126b991906139ff565b6040516370a0823160e01b81523060048201526001600160a01b0391909116906370a0823190602401602060405180830381865afa1580156126ff573d6000803e3d6000fd5b505050506040513d601f19601f820116820180604052508101906127239190613e6f565b846020015161273291906145c1565b60405163168da99d60e31b81529091506001600160a01b0383169063b46d4ce89061277690309061ffff9067ffffffffffffffff9087906001908b90600401614671565b600060405180830381600087803b15801561279057600080fd5b505af11580156127a4573d6000803e3d6000fd5b5050505050505050611fcf565b8451156128bc57600085600187516127c991906145c1565b815181106127d9576127d96145d4565b602002602001015190506001865103865260008882888888888860405160200161280997969594939291906145ea565b60405160208183030381529060405290506001875101875260006003600061283085612dbc565b8152602080820192909252604090810160009081205492860151915163168da99d60e31b81526001600160a01b039093169350839263b46d4ce892612882923092909182916002908a90600401614671565b600060405180830381600087803b15801561289c57600080fd5b505af11580156128b0573d6000803e3d6000fd5b50505050505050611fcf565b80156128db57604051630f271b5560e41b815260040160405180910390fd5b611fcf8688855b6000836001600160a01b0316632495a5996040518163ffffffff1660e01b8152600401602060405180830381865afa158015612922573d6000803e3d6000fd5b505050506040513d601f19601f8201168201806040525081019061294691906139ff565b6040516370a0823160e01b81523060048201529091506000906001600160a01b038616906370a0823190602401602060405180830381865afa158015612990573d6000803e3d6000fd5b505050506040513d601f19601f820116820180604052508101906129b49190613e6f565b6040516370a0823160e01b81523060048201529091506000906001600160a01b038416906370a0823190602401602060405180830381865afa1580156129fe573d6000803e3d6000fd5b505050506040513d601f19601f82011682018060405250810190612a229190613e6f565b9050612a2e81836146c8565b841115612a5457612a4f6001600160a01b0384168630858803859003612fa4565b508083035b801561209f5760405163095ea7b360e01b81526001600160a01b0387811660048301526024820183905284169063095ea7b3906044016020604051808303816000875af1158015612aa9573d6000803e3d6000fd5b505050506040513d601f19601f82011682018060405250810190612acd91906140f2565b506040516394bf804d60e01b8152600481018290523060248201526001600160a01b038716906394bf804d90604401600060405180830381600087803b158015612b1657600080fd5b505af1158015611b2a573d6000803e3d6000fd5b6000815167ffffffffffffffff811115612b4657612b4661334a565b604051908082528060200260200182016040528015612b6f578160200160208202803683370190505b5090506000825167ffffffffffffffff811115612b8e57612b8e61334a565b604051908082528060200260200182016040528015612bb7578160200160208202803683370190505b50905060005b8351811015612c4957612be8848281518110612bdb57612bdb6145d4565b6020026020010151612dbc565b838281518110612bfa57612bfa6145d4565b602002602001018181525050838181518110612c1857612c186145d4565b602002602001015160200151828281518110612c3657612c366145d4565b6020908102919091010152600101612bbd565b506000612c5584612f3e565b6040517fa7eaa1860000000000000000000000000000000000000000000000000000000081529091506001600160a01b037f0000000000000000000000000000000000000000000000000000000000000000169063a7eaa18690612ce5907f000000000000000000000000000000000000000000000000000000000000000090879087903090889060040161470c565b600060405180830381600087803b158015612cff57600080fd5b505af1158015612d13573d6000803e3d6000fd5b5050505050505050565b6001805473ffffffffffffffffffffffffffffffffffffffff1916905561145281612fe3565b6040516001600160a01b03838116602483015260448201839052612db791859182169063a9059cbb906064015b604051602081830303815290604052915060e01b6020820180517bffffffffffffffffffffffffffffffffffffffffffffffffffffffff8381831617835250505050613040565b505050565b80516020810151905160009160a01b0161036c565b60606000612dde836130bc565b600101905060008167ffffffffffffffff811115612dfe57612dfe61334a565b6040519080825280601f01601f191660200182016040528015612e28576020820181803683370190505b5090508181016020015b600019017f3031323334353637383961626364656600000000000000000000000000000000600a86061a8153600a8504945084612e3257509392505050565b845160009015612f32578551602087015160408089015160608a015191517fd505accf0000000000000000000000000000000000000000000000000000000081526001600160a01b0388811660048301528781166024830152604482018a9052606482019590955260ff909316608484015260a483015260c48201529086169063d505accf9060e401600060405180830381600087803b158015612f1457600080fd5b505af1925050508015612f25575060015b15612f3257506001611477565b50600095945050505050565b606060005b8251811015612f9e5781612f73848381518110612f6257612f626145d4565b602002602001015160000151611b63565b604051602001612f8492919061476a565b60408051601f198184030181529190529150600101612f43565b50919050565b6040516001600160a01b038481166024830152838116604483015260648201839052612fdd9186918216906323b872dd90608401612d70565b50505050565b600080546001600160a01b0383811673ffffffffffffffffffffffffffffffffffffffff19831681178455604051919092169283917f8be0079c531659141344cd1fd0a4f28419497f9722a3daafe3b4186f6b6457e09190a35050565b60006130556001600160a01b0384168361319e565b9050805160001415801561307a57508080602001905181019061307891906140f2565b155b15612db7576040517f5274afe70000000000000000000000000000000000000000000000000000000081526001600160a01b0384166004820152602401611440565b6000807a184f03e93ff9f4daa797ed6e38ed64bf6a1f0100000000000000008310613105577a184f03e93ff9f4daa797ed6e38ed64bf6a1f010000000000000000830492506040015b6d04ee2d6d415b85acef81000000008310613131576d04ee2d6d415b85acef8100000000830492506020015b662386f26fc10000831061314f57662386f26fc10000830492506010015b6305f5e1008310613167576305f5e100830492506008015b612710831061317b57612710830492506004015b6064831061318d576064830492506002015b600a831061036c5760010192915050565b60606131ac838360006131b3565b9392505050565b6060814710156131f1576040517fcd786059000000000000000000000000000000000000000000000000000000008152306004820152602401611440565b600080856001600160a01b0316848660405161320d91906145a5565b60006040518083038185875af1925050503d806000811461324a576040519150601f19603f3d011682016040523d82523d6000602084013e61324f565b606091505b509150915061325f868383613269565b9695505050505050565b60608261327e57613279826132de565b6131ac565b815115801561329557506001600160a01b0384163b155b156132d7576040517f9996b3150000000000000000000000000000000000000000000000000000000081526001600160a01b0385166004820152602401611440565b50806131ac565b8051156132ee5780518082602001fd5b6040517f1425ea4200000000000000000000000000000000000000000000000000000000815260040160405180910390fd5b60006020828403121561333257600080fd5b81356001600160e01b0319811681146131ac57600080fd5b634e487b7160e01b600052604160045260246000fd5b6040805190810167ffffffffffffffff811182821017156133835761338361334a565b60405290565b60405160e0810167ffffffffffffffff811182821017156133835761338361334a565b6040516060810167ffffffffffffffff811182821017156133835761338361334a565b604051601f8201601f1916810167ffffffffffffffff811182821017156133f8576133f861334a565b604052919050565b6001600160a01b038116811461145257600080fd5b61ffff8116811461145257600080fd5b60006040828403121561343757600080fd5b61343f613360565b9050813561344c81613400565b8152602082013561345c81613415565b602082015292915050565b6000806060838503121561347a57600080fd5b6134848484613425565b9150604083013561349481613400565b809150509250929050565b600060608284031215612f9e57600080fd5b600060a08284031215612f9e57600080fd5b6000806000806000806000806000808a8c036102a08112156134e457600080fd5b8b359a5060208c0135995060408c0135985060608c0135975060808c0135965060a08c013561351281613415565b955060c08c013567ffffffffffffffff81111561352e57600080fd5b61353a8e828f0161349f565b955050608060df198201121561354f57600080fd5b5060e08b0192506135648c6101608d016134b1565b91506135748c6102008d016134b1565b90509295989b9194979a5092959850565b600067ffffffffffffffff82111561359f5761359f61334a565b50601f01601f191660200190565b600082601f8301126135be57600080fd5b81356135d16135cc82613585565b6133cf565b8181528460208386010111156135e657600080fd5b816020850160208301376000918101602001919091529392505050565b60006020828403121561361557600080fd5b813567ffffffffffffffff81111561362c57600080fd5b611de6848285016135ad565b60005b8381101561365357818101518382015260200161363b565b50506000910152565b60008151808452613674816020860160208601613638565b601f01601f19169290920160200192915050565b6020815260006131ac602083018461365c565b600067ffffffffffffffff8211156136b5576136b561334a565b5060051b60200190565b600082601f8301126136d057600080fd5b813560206136e06135cc8361369b565b8083825260208201915060208460051b87010193508684111561370257600080fd5b602086015b8481101561371e5780358352918301918301613707565b509695505050505050565b600080600080600060a0868803121561374157600080fd5b853561374c81613400565b9450602086013561375c81613400565b9350604086013567ffffffffffffffff8082111561377957600080fd5b61378589838a016136bf565b9450606088013591508082111561379b57600080fd5b6137a789838a016136bf565b935060808801359150808211156137bd57600080fd5b506137ca888289016135ad565b9150509295509295909350565b6000604082840312156137e957600080fd5b6131ac8383613425565b600080600080600080600080610180898b03121561381057600080fd5b883561381b81613400565b9750602089013561382b81613400565b965060408901359550606089013594506080890135935060a089013561385081613415565b925060c089013567ffffffffffffffff81111561386c57600080fd5b6138788b828c0161349f565b9250506138888a60e08b016134b1565b90509295985092959890939650565b600080600080600060a086880312156138af57600080fd5b85356138ba81613400565b945060208601356138ca81613400565b93506040860135925060608601359150608086013567ffffffffffffffff8111156138f457600080fd5b6137ca888289016135ad565b60006020828403121561391257600080fd5b81356131ac81613400565b60008060008060008060a0878903121561393657600080fd5b863561394181613400565b9550602087013561395181613400565b94506040870135935060608701359250608087013567ffffffffffffffff8082111561397c57600080fd5b818901915089601f83011261399057600080fd5b81358181111561399f57600080fd5b8a60208285010111156139b157600080fd5b6020830194508093505050509295509295509295565b6001600160a01b0384168152826020820152606060408201526000611477606083018461365c565b80516139fa81613400565b919050565b600060208284031215613a1157600080fd5b81516131ac81613400565b80516fffffffffffffffffffffffffffffffff811681146139fa57600080fd5b600060a08284031215613a4e57600080fd5b60405160a0810181811067ffffffffffffffff82111715613a7157613a7161334a565b6040528251613a7f81613400565b8152602083015160038110613a9357600080fd5b6020820152613aa460408401613a1c565b6040820152613ab560608401613a1c565b60608201526080830151613ac881613400565b60808201529392505050565b60ff8116811461145257600080fd5b600060808284031215613af557600080fd5b6040516080810181811067ffffffffffffffff82111715613b1857613b1861334a565b604052823581529050806020830135613b3081613ad4565b8060208301525060408301356040820152606083013560608201525092915050565b600060808284031215613b6457600080fd5b6131ac8383613ae3565b80516139fa81613415565b805180151581146139fa57600080fd5b600060e08284031215613b9b57600080fd5b613ba3613389565b825167ffffffffffffffff81168114613bbb57600080fd5b8152613bc960208401613b6e565b6020820152613bda60408401613b79565b6040820152613beb606084016139ef565b6060820152613bfc608084016139ef565b608082015260a083015160a082015260c083015160c08201528091505092915050565b600060a08284031215613c3157600080fd5b613c39613360565b82358152613c4a8460208501613ae3565b60208201529392505050565b600060608236031215613c6857600080fd5b613c706133ac565b8235613c7b81613400565b815260208381013590820152604083013567ffffffffffffffff811115613ca157600080fd5b613cad368286016135ad565b60408301525092915050565b6000613cc76135cc84613585565b9050828152838383011115613cdb57600080fd5b6131ac836020830184613638565b600082601f830112613cfa57600080fd5b6131ac83835160208501613cb9565b600060208284031215613d1b57600080fd5b815167ffffffffffffffff811115613d3257600080fd5b611de684828501613ce9565b60008060008060808587031215613d5457600080fd5b845193506020850151613d6681613400565b604086015190935067ffffffffffffffff80821115613d8457600080fd5b9086019060608289031215613d9857600080fd5b613da06133ac565b8251613dab81613400565b815260208381015190820152604083015182811115613dc957600080fd5b613dd58a828601613ce9565b6040830152506060880151909450915080821115613df257600080fd5b50613dff87828801613ce9565b91505092959194509250565b600080600060608486031215613e2057600080fd5b8351613e2b81613400565b6020850151909350613e3c81613400565b604085015190925067ffffffffffffffff811115613e5957600080fd5b613e6586828701613ce9565b9150509250925092565b600060208284031215613e8157600080fd5b5051919050565b600080600080600060a08688031215613ea057600080fd5b85519450602086015193506040860151613eb981613415565b6060870151608090970151959894975095949392505050565b600082601f830112613ee357600080fd5b81516020613ef36135cc8361369b565b82815260609283028501820192828201919087851115613f1257600080fd5b8387015b85811015613f875780890382811215613f2f5760008081fd5b613f37613360565b604080831215613f475760008081fd5b613f4f613360565b92508351613f5c81613400565b835283880151613f6b81613415565b8389015291815290820151818701528452928401928101613f16565b5090979650505050505050565b60008060008060808587031215613faa57600080fd5b845167ffffffffffffffff80821115613fc257600080fd5b613fce88838901613ed2565b95506020870151915080821115613fe457600080fd5b50613ff187828801613ed2565b604087015160609097015195989097509350505050565b634e487b7160e01b600052601160045260246000fd5b60007f8000000000000000000000000000000000000000000000000000000000000000820361404f5761404f614008565b5060000390565b60008151808452602080850194506020840160005b838110156140ab578151805180516001600160a01b0316895260209081015161ffff16818a0152015160408801526060909601959082019060010161406b565b509495945050505050565b6060815260006140c96060830185614056565b6001600160a01b0384166020840152828103604084015260008152602081019150509392505050565b60006020828403121561410457600080fd5b6131ac82613b79565b6020815260006131ac6020830184614056565b60006001600160a01b03808616835280851660208401525060606040830152611477606083018461365c565b81835281816020850137506000828201602090810191909152601f909101601f19169091010190565b60ff8516815260006001600160a01b03808616602084015260806040840152843561419f81613400565b166080830152602084013560a0830152604084013536859003601e190181126141c757600080fd5b840160208101903567ffffffffffffffff8111156141e457600080fd5b8036038213156141f357600080fd5b606060c085015261420860e08501828461414c565b915050828103606084015261421d818561365c565b979650505050505050565b60006060828403121561423a57600080fd5b614242613360565b905061424e8383613425565b81526040820135602082015292915050565b600082601f83011261427157600080fd5b813560206142816135cc8361369b565b8083825260208201915060606020606086028801019450878511156142a557600080fd5b602087015b85811015613f87576142bc8982614228565b84529284019281016142aa565b6000806000806000806000610120888a0312156142e557600080fd5b87356142f081613400565b96506142ff8960208a01614228565b9550608088013567ffffffffffffffff8082111561431c57600080fd5b6143288b838c01614260565b965060a08a013591508082111561433e57600080fd5b5061434b8a828b01614260565b979a969950949760c08101359660e0820135965061010090910135945092505050565b60006001600160a01b03808816835286602084015285604084015280851660608401525060a0608083015261421d60a083018461365c565b6000602082840312156143b857600080fd5b815167ffffffffffffffff8111156143cf57600080fd5b8201601f810184136143e057600080fd5b611de684825160208401613cb9565b60008351614401818460208801613638565b7f20426f6e6420436f75706f6e2028000000000000000000000000000000000000908301908152835161443b81600e840160208801613638565b7f2900000000000000000000000000000000000000000000000000000000000000600e9290910191820152600f01949350505050565b80516020808301519190811015612f9e5760001960209190910360031b1b16919050565b600083516144a7818460208801613638565b7f2d4350000000000000000000000000000000000000000000000000000000000090830190815283516144e1816003840160208801613638565b01600301949350505050565b6000602082840312156144ff57600080fd5b81516131ac81613ad4565b84815260006001600160a01b0380861660208401526080604084015280855116608084015250602084015160a08301526040840151606060c084015261455360e084018261365c565b9050828103606084015261421d818561365c565b60006001600160a01b038087168352808616602084015250608060408301526145936080830185614056565b828103606084015261421d818561365c565b600082516145b7818460208701613638565b9190910192915050565b8181038181111561036c5761036c614008565b634e487b7160e01b600052603260045260246000fd5b60006101206001600160a01b038a16835261462a602084018a805180516001600160a01b0316835260209081015161ffff16818401520151604090910152565b80608084015261463c81840189614056565b905082810360a08401526146508188614056565b60c0840196909652505060e081019290925261010090910152949350505050565b6001600160a01b038716815261ffff8616602082015267ffffffffffffffff8516604082015283606082015260ff8316608082015260c060a082015260006146bc60c083018461365c565b98975050505050505050565b8082018082111561036c5761036c614008565b60008151808452602080850194506020840160005b838110156140ab578151875295820195908201906001016146f0565b60006001600160a01b03808816835260a0602084015261472f60a08401886146db565b838103604085015261474181886146db565b90508186166060850152838103608085015261475d818661365c565b9998505050505050505050565b6000835161477c818460208801613638565b835190830190614790818360208801613638565b0194935050505056fea2646970667358221220321dec0b0b0d5a94057316f2856cd8c09272f3f6dd31a8750c595c2dbb8764ad64736f6c63430008170033",
  "devdoc": {
    "errors": {
      "AddressEmptyCode(address)": [
        {
          "details": "There's no code at `target` (it is not a contract)."
        }
      ],
      "AddressInsufficientBalance(address)": [
        {
          "details": "The ETH balance of the account is not enough to perform the operation."
        }
      ],
      "FailedInnerCall()": [
        {
          "details": "A call to an address target failed. The target may have reverted."
        }
      ],
      "OwnableInvalidOwner(address)": [
        {
          "details": "The owner is not a valid owner account. (eg. `address(0)`)"
        }
      ],
      "OwnableUnauthorizedAccount(address)": [
        {
          "details": "The caller account is not authorized to perform an operation."
        }
      ],
      "SafeERC20FailedOperation(address)": [
        {
          "details": "An operation with an ERC20 token failed."
        }
      ]
    },
    "kind": "dev",
    "methods": {
      "acceptOwnership()": {
        "details": "The new owner accepts the ownership transfer."
      },
      "owner()": {
        "details": "Returns the address of the current owner."
      },
      "pendingOwner()": {
        "details": "Returns the address of the pending owner."
      },
      "renounceOwnership()": {
        "details": "Leaves the contract without owner. It will not be possible to call `onlyOwner` functions. Can only be called by the current owner. NOTE: Renouncing ownership will leave the contract without an owner, thereby disabling any functionality that is only available to the owner."
      },
      "supportsInterface(bytes4)": {
        "details": "See {IERC165-supportsInterface}."
      },
      "transferOwnership(address)": {
        "details": "Starts the ownership transfer of the contract to a new account. Replaces the pending transfer if there is one. Can only be called by the current owner."
      }
    },
    "version": 1
  },
  "userdoc": {
    "kind": "user",
    "methods": {},
    "version": 1
  },
  "storageLayout": {
    "storage": [
      {
        "astId": 8,
        "contract": "contracts/BorrowController.sol:BorrowController",
        "label": "_owner",
        "offset": 0,
        "slot": "0",
        "type": "t_address"
      },
      {
        "astId": 156,
        "contract": "contracts/BorrowController.sol:BorrowController",
        "label": "_pendingOwner",
        "offset": 0,
        "slot": "1",
        "type": "t_address"
      },
      {
        "astId": 7683,
        "contract": "contracts/BorrowController.sol:BorrowController",
        "label": "_locked",
        "offset": 0,
        "slot": "2",
        "type": "t_uint256"
      },
      {
        "astId": 5699,
        "contract": "contracts/BorrowController.sol:BorrowController",
        "label": "_couponMarkets",
        "offset": 0,
        "slot": "3",
        "type": "t_mapping(t_uint256,t_address)"
      }
    ],
    "types": {
      "t_address": {
        "encoding": "inplace",
        "label": "address",
        "numberOfBytes": "20"
      },
      "t_mapping(t_uint256,t_address)": {
        "encoding": "mapping",
        "key": "t_uint256",
        "label": "mapping(uint256 => address)",
        "numberOfBytes": "32",
        "value": "t_address"
      },
      "t_uint256": {
        "encoding": "inplace",
        "label": "uint256",
        "numberOfBytes": "32"
      }
    }
  }
}