{
  "address": "0x6d5D43B86C7D917c431BC5E0f2a95b8eF8601267",
  "abi": [
    {
      "inputs": [
        {
          "internalType": "address",
          "name": "loanPositionManager",
          "type": "address"
        },
        {
          "internalType": "address",
          "name": "router",
          "type": "address"
        },
        {
          "internalType": "address",
          "name": "weth",
          "type": "address"
        }
      ],
      "stateMutability": "nonpayable",
      "type": "constructor"
    },
    {
      "inputs": [
        {
          "internalType": "address",
          "name": "target",
          "type": "address"
        }
      ],
      "name": "AddressEmptyCode",
      "type": "error"
    },
    {
      "inputs": [
        {
          "internalType": "address",
          "name": "account",
          "type": "address"
        }
      ],
      "name": "AddressInsufficientBalance",
      "type": "error"
    },
    {
      "inputs": [
        {
          "internalType": "string",
          "name": "reason",
          "type": "string"
        }
      ],
      "name": "CollateralSwapFailed",
      "type": "error"
    },
    {
      "inputs": [],
      "name": "FailedInnerCall",
      "type": "error"
    },
    {
      "inputs": [
        {
          "internalType": "address",
          "name": "token",
          "type": "address"
        }
      ],
      "name": "SafeERC20FailedOperation",
      "type": "error"
    },
    {
      "inputs": [
        {
          "internalType": "uint256",
          "name": "positionId",
          "type": "uint256"
        },
        {
          "internalType": "uint256",
          "name": "swapAmount",
          "type": "uint256"
        },
        {
          "internalType": "bytes",
          "name": "swapData",
          "type": "bytes"
        },
        {
          "internalType": "uint256",
          "name": "allowedSupplementaryAmount",
          "type": "uint256"
        },
        {
          "internalType": "address",
          "name": "recipient",
          "type": "address"
        }
      ],
      "name": "liquidate",
      "outputs": [],
      "stateMutability": "payable",
      "type": "function"
    },
    {
      "inputs": [
        {
          "internalType": "bytes",
          "name": "data",
          "type": "bytes"
        }
      ],
      "name": "positionLockAcquired",
      "outputs": [
        {
          "internalType": "bytes",
          "name": "",
          "type": "bytes"
        }
      ],
      "stateMutability": "nonpayable",
      "type": "function"
    },
    {
      "stateMutability": "payable",
      "type": "receive"
    }
  ],
  "transactionHash": "0x2d2f0d0a27e6a2cb374b02c8624f2d05a9387b937ed1640412cfc9121761cb39",
  "args": [
    "0x03d65411684ae7B5440E11a6063881a774C733dF",
    "0xa669e7A0d4b3e4Fa48af2dE86BD4CD7126Be4e13",
    "0x82aF49447D8a07e3bd95BD0d56f35241523fBab1"
  ],
  "numDeployments": 1,
  "solcInputHash": "473d8f57161595555eccbebb50cd23f2",
  "bytecode": "0x60e06040523480156200001157600080fd5b50604051620018113803806200181183398101604081905262000034916200006f565b6001600160a01b0392831660805290821660a0521660c052620000b9565b80516001600160a01b03811681146200006a57600080fd5b919050565b6000806000606084860312156200008557600080fd5b620000908462000052565b9250620000a06020850162000052565b9150620000b06040850162000052565b90509250925092565b60805160a05160c0516116e36200012e60003960008181608c015281816103f6015261042f015260008181610ab401528181610b360152610c0c015260008181610101015281816101f50152818161038a015281816106820152818161072c015281816107ee015261091e01526116e36000f3fe60806040526004361061002d5760003560e01c806345137cc21461003957806346a114e21461004e57600080fd5b3661003457005b600080fd5b61004c610047366004611198565b610084565b005b34801561005a57600080fd5b5061006e6100693660046112d3565b6101c6565b60405161007b91906113a3565b60405180910390f35b34156100ff577f00000000000000000000000000000000000000000000000000000000000000006001600160a01b031663d0e30db0346040518263ffffffff1660e01b81526004016000604051808303818588803b1580156100e557600080fd5b505af11580156100f9573d6000803e3d6000fd5b50505050505b7f00000000000000000000000000000000000000000000000000000000000000006001600160a01b031663815483193388888888888860405160200161014b97969594939291906113b6565b6040516020818303038152906040526040518263ffffffff1660e01b815260040161017691906113a3565b6000604051808303816000875af1158015610195573d6000803e3d6000fd5b505050506040513d6000823e601f3d908101601f191682016040526101bd9190810190611465565b50505050505050565b6060600080600080600080878060200190518101906101e5919061149a565b95509550955095509550955060007f00000000000000000000000000000000000000000000000000000000000000006001600160a01b031663eb02c301876040518263ffffffff1660e01b815260040161024191815260200190565b60e060405180830381865afa15801561025e573d6000803e3d6000fd5b505050506040513d601f19601f820116820180604052508101906102829190611540565b9050600081606001516001600160a01b0316632495a5996040518163ffffffff1660e01b8152600401602060405180830381865afa1580156102c8573d6000803e3d6000fd5b505050506040513d601f19601f820116820180604052508101906102ec91906115d6565b9050600082608001516001600160a01b0316632495a5996040518163ffffffff1660e01b8152600401602060405180830381865afa158015610332573d6000803e3d6000fd5b505050506040513d601f19601f8201168201806040525081019061035691906115d6565b60608401516040516301e3366760e01b81526001600160a01b039182166004820152306024820152604481018a90529192507f000000000000000000000000000000000000000000000000000000000000000016906301e3366790606401600060405180830381600087803b1580156103ce57600080fd5b505af11580156103e2573d6000803e3d6000fd5b505050506103f48360600151306109ac565b7f00000000000000000000000000000000000000000000000000000000000000006001600160a01b0316826001600160a01b0316036104a2577f00000000000000000000000000000000000000000000000000000000000000006001600160a01b031663d0e30db0886040518263ffffffff1660e01b81526004016000604051808303818588803b15801561048857600080fd5b505af115801561049c573d6000803e3d6000fd5b50505050505b6000871180156104b3575060008651115b156104c3576104c3828888610a9d565b6040516370a0823160e01b81526001600160a01b038a811660048301526000916105c89188916105c3918616906370a0823190602401602060405180830381865afa158015610516573d6000803e3d6000fd5b505050506040513d601f19601f8201168201806040525081019061053a91906115f3565b6040517fdd62ed3e0000000000000000000000000000000000000000000000000000000081526001600160a01b038f8116600483015230602483015287169063dd62ed3e90604401602060405180830381865afa15801561059f573d6000803e3d6000fd5b505050506040513d601f19601f820116820180604052508101906105c391906115f3565b610c90565b6040516370a0823160e01b81523060048201526001600160a01b038416906370a0823190602401602060405180830381865afa15801561060c573d6000803e3d6000fd5b505050506040513d601f19601f8201168201806040525081019061063091906115f3565b61063a9190611622565b6040517fd296d1f1000000000000000000000000000000000000000000000000000000008152600481018b905260248101829052909150600090819081906001600160a01b037f0000000000000000000000000000000000000000000000000000000000000000169063d296d1f1906044016060604051808303816000875af11580156106cb573d6000803e3d6000fd5b505050506040513d601f19601f820116820180604052508101906106ef9190611635565b60808a01519295509093509150610710906001600160a01b03168e84610caa565b608087015160405163095ea7b360e01b81526001600160a01b037f000000000000000000000000000000000000000000000000000000000000000081166004830152602482018590529091169063095ea7b3906044016020604051808303816000875af1158015610785573d6000803e3d6000fd5b505050506040513d601f19601f820116820180604052508101906107a99190611663565b5060808701516040517f338b5dea0000000000000000000000000000000000000000000000000000000081526001600160a01b039182166004820152602481018490527f00000000000000000000000000000000000000000000000000000000000000009091169063338b5dea90604401600060405180830381600087803b15801561083457600080fd5b505af1158015610848573d6000803e3d6000fd5b50506040516370a0823160e01b8152306004820152600092506001600160a01b03881691506370a0823190602401602060405180830381865afa158015610893573d6000803e3d6000fd5b505050506040513d601f19601f820116820180604052508101906108b791906115f3565b905080156108d3576108d36001600160a01b0387168a83610f11565b60008c6108e0848761167e565b6108ea919061167e565b60608a01516040516301e3366760e01b81526001600160a01b039182166004820152306024820152604481018390529192507f000000000000000000000000000000000000000000000000000000000000000016906301e3366790606401600060405180830381600087803b15801561096257600080fd5b505af1158015610976573d6000803e3d6000fd5b5050505061098889606001518b6109ac565b50506040805160208101909152600081529f9e505050505050505050505050505050565b6040516370a0823160e01b81523060048201526000906001600160a01b038416906370a0823190602401602060405180830381865afa1580156109f3573d6000803e3d6000fd5b505050506040513d601f19601f82011682018060405250810190610a1791906115f3565b905080600003610a2657505050565b6040517ffcd3533c000000000000000000000000000000000000000000000000000000008152600481018290526001600160a01b03838116602483015284169063fcd3533c90604401600060405180830381600087803b158015610a8957600080fd5b505af11580156101bd573d6000803e3d6000fd5b60405163095ea7b360e01b81526001600160a01b037f0000000000000000000000000000000000000000000000000000000000000000811660048301526024820184905284169063095ea7b3906044016020604051808303816000875af1158015610b0c573d6000803e3d6000fd5b505050506040513d601f19601f82011682018060405250810190610b309190611663565b506000807f00000000000000000000000000000000000000000000000000000000000000006001600160a01b031683604051610b6c9190611691565b6000604051808303816000865af19150503d8060008114610ba9576040519150601f19603f3d011682016040523d82523d6000602084013e610bae565b606091505b509150915081610bf557806040517feff88414000000000000000000000000000000000000000000000000000000008152600401610bec91906113a3565b60405180910390fd5b60405163095ea7b360e01b81526001600160a01b037f0000000000000000000000000000000000000000000000000000000000000000811660048301526000602483015286169063095ea7b3906044016020604051808303816000875af1158015610c64573d6000803e3d6000fd5b505050506040513d601f19601f82011682018060405250810190610c889190611663565b505050505050565b6000818310610c9f5781610ca1565b825b90505b92915050565b6040516370a0823160e01b81523060048201526000906001600160a01b038516906370a0823190602401602060405180830381865afa158015610cf1573d6000803e3d6000fd5b505050506040513d601f19601f82011682018060405250810190610d1591906115f3565b9050818110610d245750505050565b6000846001600160a01b0316632495a5996040518163ffffffff1660e01b8152600401602060405180830381865afa158015610d64573d6000803e3d6000fd5b505050506040513d601f19601f82011682018060405250810190610d8891906115d6565b6040516370a0823160e01b81523060048201529091506000906001600160a01b038316906370a0823190602401602060405180830381865afa158015610dd2573d6000803e3d6000fd5b505050506040513d601f19601f82011682018060405250810190610df691906115f3565b9050828403935083811015610e1c57610e1c6001600160a01b0383168630848803610f8a565b60405163095ea7b360e01b81526001600160a01b0387811660048301526024820186905283169063095ea7b3906044016020604051808303816000875af1158015610e6b573d6000803e3d6000fd5b505050506040513d601f19601f82011682018060405250810190610e8f9190611663565b506040517f94bf804d000000000000000000000000000000000000000000000000000000008152600481018590523060248201526001600160a01b038716906394bf804d90604401600060405180830381600087803b158015610ef157600080fd5b505af1158015610f05573d6000803e3d6000fd5b50505050505050505050565b6040516001600160a01b03838116602483015260448201839052610f8591859182169063a9059cbb906064015b604051602081830303815290604052915060e01b6020820180517bffffffffffffffffffffffffffffffffffffffffffffffffffffffff8381831617835250505050610fc9565b505050565b6040516001600160a01b038481166024830152838116604483015260648201839052610fc39186918216906323b872dd90608401610f3e565b50505050565b6000610fde6001600160a01b03841683611045565b905080516000141580156110035750808060200190518101906110019190611663565b155b15610f85576040517f5274afe70000000000000000000000000000000000000000000000000000000081526001600160a01b0384166004820152602401610bec565b6060610ca18383600084600080856001600160a01b0316848660405161106b9190611691565b60006040518083038185875af1925050503d80600081146110a8576040519150601f19603f3d011682016040523d82523d6000602084013e6110ad565b606091505b50915091506110bd8683836110c9565b925050505b9392505050565b6060826110de576110d98261113e565b6110c2565b81511580156110f557506001600160a01b0384163b155b15611137576040517f9996b3150000000000000000000000000000000000000000000000000000000081526001600160a01b0385166004820152602401610bec565b50806110c2565b80511561114e5780518082602001fd5b6040517f1425ea4200000000000000000000000000000000000000000000000000000000815260040160405180910390fd5b50565b6001600160a01b038116811461118057600080fd5b60008060008060008060a087890312156111b157600080fd5b8635955060208701359450604087013567ffffffffffffffff808211156111d757600080fd5b818901915089601f8301126111eb57600080fd5b8135818111156111fa57600080fd5b8a602082850101111561120c57600080fd5b60208301965080955050505060608701359150608087013561122d81611183565b809150509295509295509295565b634e487b7160e01b600052604160045260246000fd5b60405160e0810167ffffffffffffffff811182821017156112745761127461123b565b60405290565b604051601f8201601f1916810167ffffffffffffffff811182821017156112a3576112a361123b565b604052919050565b600067ffffffffffffffff8211156112c5576112c561123b565b50601f01601f191660200190565b6000602082840312156112e557600080fd5b813567ffffffffffffffff8111156112fc57600080fd5b8201601f8101841361130d57600080fd5b803561132061131b826112ab565b61127a565b81815285602083850101111561133557600080fd5b81602084016020830137600091810160200191909152949350505050565b60005b8381101561136e578181015183820152602001611356565b50506000910152565b6000815180845261138f816020860160208601611353565b601f01601f19169290920160200192915050565b602081526000610ca16020830184611377565b60006001600160a01b03808a16835288602084015287604084015260c060608401528560c0840152858760e0850137600060e0878501015260e0601f19601f880116840101915084608084015280841660a08401525098975050505050505050565b600082601f83011261142957600080fd5b815161143761131b826112ab565b81815284602083860101111561144c57600080fd5b61145d826020830160208701611353565b949350505050565b60006020828403121561147757600080fd5b815167ffffffffffffffff81111561148e57600080fd5b61145d84828501611418565b60008060008060008060c087890312156114b357600080fd5b86516114be81611183565b809650506020870151945060408701519350606087015167ffffffffffffffff8111156114ea57600080fd5b6114f689828a01611418565b9350506080870151915060a087015161122d81611183565b805161ffff8116811461152057600080fd5b919050565b8051801515811461152057600080fd5b805161152081611183565b600060e0828403121561155257600080fd5b61155a611251565b825167ffffffffffffffff8116811461157257600080fd5b81526115806020840161150e565b602082015261159160408401611525565b60408201526115a260608401611535565b60608201526115b360808401611535565b608082015260a083015160a082015260c083015160c08201528091505092915050565b6000602082840312156115e857600080fd5b81516110c281611183565b60006020828403121561160557600080fd5b5051919050565b634e487b7160e01b600052601160045260246000fd5b80820180821115610ca457610ca461160c565b60008060006060848603121561164a57600080fd5b8351925060208401519150604084015190509250925092565b60006020828403121561167557600080fd5b610ca182611525565b81810381811115610ca457610ca461160c565b600082516116a3818460208701611353565b919091019291505056fea264697066735822122036de96e08d312f5c7f42050aa91f6a774088297fb91082aff89bcab71f39b85664736f6c63430008170033",
  "devdoc": {
    "errors": {
      "AddressEmptyCode(address)": [
        {
          "details": "There's no code at `target` (it is not a contract)."
        }
      ],
      "AddressInsufficientBalance(address)": [
        {
          "details": "The ETH balance of the account is not enough to perform the operation."
        }
      ],
      "FailedInnerCall()": [
        {
          "details": "A call to an address target failed. The target may have reverted."
        }
      ],
      "SafeERC20FailedOperation(address)": [
        {
          "details": "An operation with an ERC20 token failed."
        }
      ]
    },
    "kind": "dev",
    "methods": {},
    "version": 1
  },
  "userdoc": {
    "kind": "user",
    "methods": {},
    "version": 1
  },
  "storageLayout": {
    "storage": [],
    "types": null
  }
}