{
  "address": "0xF7bb8649006E00E849e63f5cbF0887B0E0Dd9d97",
  "abi": [
    {
      "inputs": [
        {
          "internalType": "address",
          "name": "wrapped1155Factory",
          "type": "address"
        },
        {
          "internalType": "address",
          "name": "cloberMarketFactory",
          "type": "address"
        },
        {
          "internalType": "address",
          "name": "couponManager",
          "type": "address"
        },
        {
          "internalType": "address",
          "name": "couponWrapper",
          "type": "address"
        }
      ],
      "stateMutability": "nonpayable",
      "type": "constructor"
    },
    {
      "inputs": [
        {
          "internalType": "address",
          "name": "target",
          "type": "address"
        }
      ],
      "name": "AddressEmptyCode",
      "type": "error"
    },
    {
      "inputs": [
        {
          "internalType": "address",
          "name": "account",
          "type": "address"
        }
      ],
      "name": "AddressInsufficientBalance",
      "type": "error"
    },
    {
      "inputs": [],
      "name": "Deadline",
      "type": "error"
    },
    {
      "inputs": [],
      "name": "FailedInnerCall",
      "type": "error"
    },
    {
      "inputs": [],
      "name": "FailedToSendValue",
      "type": "error"
    },
    {
      "inputs": [],
      "name": "InvalidAccess",
      "type": "error"
    },
    {
      "inputs": [],
      "name": "InvalidMarket",
      "type": "error"
    },
    {
      "inputs": [
        {
          "internalType": "address",
          "name": "token",
          "type": "address"
        }
      ],
      "name": "SafeERC20FailedOperation",
      "type": "error"
    },
    {
      "inputs": [
        {
          "components": [
            {
              "internalType": "address",
              "name": "market",
              "type": "address"
            },
            {
              "internalType": "uint64",
              "name": "deadline",
              "type": "uint64"
            },
            {
              "internalType": "uint16",
              "name": "limitPriceIndex",
              "type": "uint16"
            },
            {
              "internalType": "address",
              "name": "recipient",
              "type": "address"
            },
            {
              "internalType": "uint64",
              "name": "minRawAmount",
              "type": "uint64"
            },
            {
              "components": [
                {
                  "internalType": "address",
                  "name": "asset",
                  "type": "address"
                },
                {
                  "internalType": "Epoch",
                  "name": "epoch",
                  "type": "uint16"
                }
              ],
              "internalType": "struct CouponKey",
              "name": "couponKey",
              "type": "tuple"
            },
            {
              "internalType": "uint256",
              "name": "amount",
              "type": "uint256"
            }
          ],
          "internalType": "struct ICouponMarketRouter.MarketSellParams[]",
          "name": "paramsList",
          "type": "tuple[]"
        },
        {
          "components": [
            {
              "internalType": "uint256",
              "name": "deadline",
              "type": "uint256"
            },
            {
              "internalType": "uint8",
              "name": "v",
              "type": "uint8"
            },
            {
              "internalType": "bytes32",
              "name": "r",
              "type": "bytes32"
            },
            {
              "internalType": "bytes32",
              "name": "s",
              "type": "bytes32"
            }
          ],
          "internalType": "struct PermitSignature",
          "name": "couponPermitParams",
          "type": "tuple"
        }
      ],
      "name": "batchMarketSellCoupons",
      "outputs": [],
      "stateMutability": "nonpayable",
      "type": "function"
    },
    {
      "inputs": [
        {
          "internalType": "address",
          "name": "inputToken",
          "type": "address"
        },
        {
          "internalType": "address",
          "name": "outputToken",
          "type": "address"
        },
        {
          "internalType": "uint256",
          "name": "inputAmount",
          "type": "uint256"
        },
        {
          "internalType": "uint256",
          "name": "outputAmount",
          "type": "uint256"
        },
        {
          "internalType": "bytes",
          "name": "data",
          "type": "bytes"
        }
      ],
      "name": "cloberMarketSwapCallback",
      "outputs": [],
      "stateMutability": "payable",
      "type": "function"
    },
    {
      "inputs": [
        {
          "components": [
            {
              "internalType": "address",
              "name": "market",
              "type": "address"
            },
            {
              "internalType": "uint64",
              "name": "deadline",
              "type": "uint64"
            },
            {
              "internalType": "uint16",
              "name": "limitPriceIndex",
              "type": "uint16"
            },
            {
              "internalType": "address",
              "name": "recipient",
              "type": "address"
            },
            {
              "internalType": "uint64",
              "name": "minRawAmount",
              "type": "uint64"
            },
            {
              "components": [
                {
                  "internalType": "address",
                  "name": "asset",
                  "type": "address"
                },
                {
                  "internalType": "Epoch",
                  "name": "epoch",
                  "type": "uint16"
                }
              ],
              "internalType": "struct CouponKey",
              "name": "couponKey",
              "type": "tuple"
            },
            {
              "internalType": "uint256",
              "name": "amount",
              "type": "uint256"
            }
          ],
          "internalType": "struct ICouponMarketRouter.MarketSellParams",
          "name": "params",
          "type": "tuple"
        },
        {
          "components": [
            {
              "internalType": "uint256",
              "name": "deadline",
              "type": "uint256"
            },
            {
              "internalType": "uint8",
              "name": "v",
              "type": "uint8"
            },
            {
              "internalType": "bytes32",
              "name": "r",
              "type": "bytes32"
            },
            {
              "internalType": "bytes32",
              "name": "s",
              "type": "bytes32"
            }
          ],
          "internalType": "struct PermitSignature",
          "name": "couponPermitParams",
          "type": "tuple"
        }
      ],
      "name": "marketSellCoupons",
      "outputs": [],
      "stateMutability": "nonpayable",
      "type": "function"
    }
  ],
  "transactionHash": "0xc192d920fe7878788ed398efe65d692d0f4d5e5d4047c7b04e148195c45bf5dd",
  "args": [
    "0xfcBE16BfD991E4949244E59d9b524e6964b8BB75",
    "0x24aC0938C010Fb520F1068e96d78E0458855111D",
    "0x8bbcA766D175aDbffB073832262990df1c5ef748",
    "0xc5577988Cc8A49ecF6A48c8e84717E481E3bF57b"
  ],
  "numDeployments": 1,
  "solcInputHash": "6ee56211a49e2a040139762a5247a157",
  "bytecode": "0x6101006040523480156200001257600080fd5b506040516200164e3803806200164e833981016040819052620000359162000075565b6001600160a01b0393841660805291831660e052821660a0521660c052620000d2565b80516001600160a01b03811681146200007057600080fd5b919050565b600080600080608085870312156200008c57600080fd5b620000978562000058565b9350620000a76020860162000058565b9250620000b76040860162000058565b9150620000c76060860162000058565b905092959194509250565b60805160a05160c05160e05161152a6200012460003960006101870152600050506000818160930152818161010e015281816102cc01526104a701526000818161029f01526104d7015261152a6000f3fe6080604052600436106100345760003560e01c806383117cf214610039578063993bf1441461005b578063fd235fda1461007b575b600080fd5b34801561004557600080fd5b50610059610054366004610e0b565b61008e565b005b34801561006757600080fd5b50610059610076366004610e90565b610109565b610059610089366004610ee4565b61014e565b6100ce7f0000000000000000000000000000000000000000000000000000000000000000333060016100c536879003870187610fb3565b9392919061061d565b5060005b82811015610103576100fb8484838181106100ef576100ef61101f565b905061010002016106ec565b6001016100d2565b50505050565b6101407f0000000000000000000000000000000000000000000000000000000000000000333060016100c536879003870187610fb3565b5061014a826106ec565b5050565b6040517fafdd9edc0000000000000000000000000000000000000000000000000000000081523360048201526000906001600160a01b037f0000000000000000000000000000000000000000000000000000000000000000169063afdd9edc90602401602060405180830381865afa1580156101ce573d6000803e3d6000fd5b505050506040513d601f19601f820116820180604052508101906101f29190611035565b6001600160a01b031603610232576040517fc0185c6400000000000000000000000000000000000000000000000000000000815260040160405180910390fd5b6000808061024284860186611062565b9250925092506000610253826107dc565b9050600061026c836020810151905160a09190911b0190565b6040517f08b2ea5e0000000000000000000000000000000000000000000000000000000081529091506001600160a01b037f000000000000000000000000000000000000000000000000000000000000000016906308b2ea5e906102f8907f0000000000000000000000000000000000000000000000000000000000000000908590879060040161114d565b602060405180830381865afa158015610315573d6000803e3d6000fd5b505050506040513d601f19601f820116820180604052508101906103399190611035565b6001600160a01b03168b6001600160a01b031614610383576040517f9db8d5b100000000000000000000000000000000000000000000000000000000815260040160405180910390fd5b6040517f70a082310000000000000000000000000000000000000000000000000000000081526001600160a01b03868116600483015260009161049b918e16906370a0823190602401602060405180830381865afa1580156103e9573d6000803e3d6000fd5b505050506040513d601f19601f8201168201806040525081019061040d9190611175565b6040517fdd62ed3e0000000000000000000000000000000000000000000000000000000081526001600160a01b0389811660048301523060248301528f169063dd62ed3e90604401602060405180830381865afa158015610472573d6000803e3d6000fd5b505050506040513d601f19601f820116820180604052508101906104969190611175565b6109a2565b9050808a111561057c577f00000000000000000000000000000000000000000000000000000000000000006001600160a01b031663f242432a877f000000000000000000000000000000000000000000000000000000000000000085858f610503919061118e565b886040518663ffffffff1660e01b81526004016105249594939291906111af565b600060405180830381600087803b15801561053e57600080fd5b505af1158015610552573d6000803e3d6000fd5b5050505061057733828c610566919061118e565b6001600160a01b038f1691906109bc565b61057f565b50885b6105946001600160a01b038d16873384610a35565b6040517ffcd3533c000000000000000000000000000000000000000000000000000000008152600481018a90526001600160a01b0386811660248301528c169063fcd3533c90604401600060405180830381600087803b1580156105f757600080fd5b505af115801561060b573d6000803e3d6000fd5b50505050505050505050505050505050565b8451600090156106df578551602087015160408089015160608a015191517ff51cc7dd0000000000000000000000000000000000000000000000000000000081526001600160a01b03898116600483015288811660248301528715156044830152606482019590955260ff909316608484015260a483015260c48201529086169063f51cc7dd9060e401600060405180830381600087803b1580156106c157600080fd5b505af19250505080156106d2575060015b156106df575060016106e3565b5060005b95945050505050565b6106fc60408201602083016111f2565b61070581610a6e565b600033610718608085016060860161121c565b8460a00160405160200161072e93929190611239565b60408051601f19818403018152919052905061074d602084018461121c565b6001600160a01b031663b46d4ce83061076c6060870160408801611285565b61077c60a08801608089016111f2565b8760e001356002876040518763ffffffff1660e01b81526004016107a5969594939291906112a2565b600060405180830381600087803b1580156107bf57600080fd5b505af11580156107d3573d6000803e3d6000fd5b50505050505050565b6060600082600001516001600160a01b03166395d89b416040518163ffffffff1660e01b8152600401600060405180830381865afa158015610822573d6000803e3d6000fd5b505050506040513d6000823e601f3d908101601f1916820160405261084a91908101906112f9565b9050600061085f846020015161ffff16610ab5565b90506000828260405160200161087692919061139b565b60405160208183030381529060405261088e9061141d565b9050600083836040516020016108a5929190611441565b6040516020818303038152906040526108bd9061141d565b9050825184510160020280601e0183019250806006018201915050818187600001516001600160a01b031663313ce5676040518163ffffffff1660e01b8152600401602060405180830381865afa15801561091c573d6000803e3d6000fd5b505050506040513d601f19601f820116820180604052508101906109409190611499565b60f81b6040516020016109889392919092835260208301919091527fff0000000000000000000000000000000000000000000000000000000000000016604082015260410190565b604051602081830303815290604052945050505050919050565b60008183106109b157816109b3565b825b90505b92915050565b6040516001600160a01b03838116602483015260448201839052610a3091859182169063a9059cbb906064015b604051602081830303815290604052915060e01b6020820180517bffffffffffffffffffffffffffffffffffffffffffffffffffffffff8381831617835250505050610b55565b505050565b6040516001600160a01b0384811660248301528381166044830152606482018390526101039186918216906323b872dd906084016109e9565b8067ffffffffffffffff16421115610ab2576040517fc6f221aa00000000000000000000000000000000000000000000000000000000815260040160405180910390fd5b50565b60606000610ac283610bd6565b600101905060008167ffffffffffffffff811115610ae257610ae2610f8e565b6040519080825280601f01601f191660200182016040528015610b0c576020820181803683370190505b5090508181016020015b600019017f3031323334353637383961626364656600000000000000000000000000000000600a86061a8153600a8504945084610b1657509392505050565b6000610b6a6001600160a01b03841683610cb8565b90508051600014158015610b8f575080806020019051810190610b8d91906114b6565b155b15610a30576040517f5274afe70000000000000000000000000000000000000000000000000000000081526001600160a01b03841660048201526024015b60405180910390fd5b6000807a184f03e93ff9f4daa797ed6e38ed64bf6a1f0100000000000000008310610c1f577a184f03e93ff9f4daa797ed6e38ed64bf6a1f010000000000000000830492506040015b6d04ee2d6d415b85acef81000000008310610c4b576d04ee2d6d415b85acef8100000000830492506020015b662386f26fc100008310610c6957662386f26fc10000830492506010015b6305f5e1008310610c81576305f5e100830492506008015b6127108310610c9557612710830492506004015b60648310610ca7576064830492506002015b600a83106109b65760010192915050565b60606109b38383600084600080856001600160a01b03168486604051610cde91906114d8565b60006040518083038185875af1925050503d8060008114610d1b576040519150601f19603f3d011682016040523d82523d6000602084013e610d20565b606091505b5091509150610d30868383610d3c565b925050505b9392505050565b606082610d5157610d4c82610db1565b610d35565b8151158015610d6857506001600160a01b0384163b155b15610daa576040517f9996b3150000000000000000000000000000000000000000000000000000000081526001600160a01b0385166004820152602401610bcd565b5080610d35565b805115610dc15780518082602001fd5b6040517f1425ea4200000000000000000000000000000000000000000000000000000000815260040160405180910390fd5b600060808284031215610e0557600080fd5b50919050565b600080600060a08486031215610e2057600080fd5b833567ffffffffffffffff80821115610e3857600080fd5b818601915086601f830112610e4c57600080fd5b813581811115610e5b57600080fd5b8760208260081b8501011115610e7057600080fd5b602092830195509350610e87918791508601610df3565b90509250925092565b600080828403610180811215610ea557600080fd5b61010080821215610eb557600080fd5b849350610ec486828701610df3565b925050509250929050565b6001600160a01b0381168114610ab257600080fd5b60008060008060008060a08789031215610efd57600080fd5b8635610f0881610ecf565b95506020870135610f1881610ecf565b94506040870135935060608701359250608087013567ffffffffffffffff80821115610f4357600080fd5b818901915089601f830112610f5757600080fd5b813581811115610f6657600080fd5b8a6020828501011115610f7857600080fd5b6020830194508093505050509295509295509295565b634e487b7160e01b600052604160045260246000fd5b60ff81168114610ab257600080fd5b600060808284031215610fc557600080fd5b6040516080810181811067ffffffffffffffff82111715610fe857610fe8610f8e565b604052823581526020830135610ffd81610fa4565b6020820152604083810135908201526060928301359281019290925250919050565b634e487b7160e01b600052603260045260246000fd5b60006020828403121561104757600080fd5b8151610d3581610ecf565b61ffff81168114610ab257600080fd5b6000806000838503608081121561107857600080fd5b843561108381610ecf565b9350602085013561109381610ecf565b92506040603f19820112156110a757600080fd5b506040516040810181811067ffffffffffffffff821117156110cb576110cb610f8e565b60409081528501356110dc81610ecf565b815260608501356110ec81611052565b602082015292959194509192509050565b60005b83811015611118578181015183820152602001611100565b50506000910152565b600081518084526111398160208601602086016110fd565b601f01601f19169290920160200192915050565b6001600160a01b03841681528260208201526060604082015260006106e36060830184611121565b60006020828403121561118757600080fd5b5051919050565b818103818111156109b657634e487b7160e01b600052601160045260246000fd5b60006001600160a01b03808816835280871660208401525084604083015283606083015260a060808301526111e760a0830184611121565b979650505050505050565b60006020828403121561120457600080fd5b813567ffffffffffffffff81168114610d3557600080fd5b60006020828403121561122e57600080fd5b8135610d3581610ecf565b6001600160a01b03848116825283811660208301526080820190833561125e81610ecf565b166040830152602083013561127281611052565b61ffff8116606084015250949350505050565b60006020828403121561129757600080fd5b8135610d3581611052565b6001600160a01b038716815261ffff8616602082015267ffffffffffffffff8516604082015283606082015260ff8316608082015260c060a082015260006112ed60c0830184611121565b98975050505050505050565b60006020828403121561130b57600080fd5b815167ffffffffffffffff8082111561132357600080fd5b818401915084601f83011261133757600080fd5b81518181111561134957611349610f8e565b604051601f8201601f19908116603f0116810190838211818310171561137157611371610f8e565b8160405282815287602084870101111561138a57600080fd5b6111e78360208301602088016110fd565b600083516113ad8184602088016110fd565b7f20426f6e6420436f75706f6e202800000000000000000000000000000000000090830190815283516113e781600e8401602088016110fd565b7f2900000000000000000000000000000000000000000000000000000000000000600e9290910191820152600f01949350505050565b80516020808301519190811015610e055760001960209190910360031b1b16919050565b600083516114538184602088016110fd565b7f2d43500000000000000000000000000000000000000000000000000000000000908301908152835161148d8160038401602088016110fd565b01600301949350505050565b6000602082840312156114ab57600080fd5b8151610d3581610fa4565b6000602082840312156114c857600080fd5b81518015158114610d3557600080fd5b600082516114ea8184602087016110fd565b919091019291505056fea2646970667358221220f623a73215b844500c4495db59c62125aa45d7dd332806e0e7d4c697526ac9d764736f6c63430008170033",
  "devdoc": {
    "errors": {
      "AddressEmptyCode(address)": [
        {
          "details": "There's no code at `target` (it is not a contract)."
        }
      ],
      "AddressInsufficientBalance(address)": [
        {
          "details": "The ETH balance of the account is not enough to perform the operation."
        }
      ],
      "FailedInnerCall()": [
        {
          "details": "A call to an address target failed. The target may have reverted."
        }
      ],
      "SafeERC20FailedOperation(address)": [
        {
          "details": "An operation with an ERC20 token failed."
        }
      ]
    },
    "kind": "dev",
    "methods": {
      "cloberMarketSwapCallback(address,address,uint256,uint256,bytes)": {
        "params": {
          "data": "The user's custom callback data.",
          "inputAmount": "The amount of tokens the user has to send.",
          "inputToken": "The address of the token the user has to send.",
          "outputAmount": "The amount of tokens the user has received.",
          "outputToken": "The address of the token the user has received."
        }
      }
    },
    "version": 1
  },
  "userdoc": {
    "kind": "user",
    "methods": {
      "cloberMarketSwapCallback(address,address,uint256,uint256,bytes)": {
        "notice": "Contracts placing orders on the OrderBook must implement this method. In this method, the contract has to send the required token, or the transaction will revert. If there is a claim bounty to be refunded, it will be transferred via msg.value."
      }
    },
    "version": 1
  },
  "storageLayout": {
    "storage": [],
    "types": null
  }
}