{
  "address": "0xc5577988Cc8A49ecF6A48c8e84717E481E3bF57b",
  "abi": [
    {
      "inputs": [
        {
          "internalType": "address",
          "name": "couponManager_",
          "type": "address"
        },
        {
          "internalType": "address",
          "name": "wrapped1155Factory_",
          "type": "address"
        }
      ],
      "stateMutability": "nonpayable",
      "type": "constructor"
    },
    {
      "inputs": [
        {
          "internalType": "address",
          "name": "target",
          "type": "address"
        }
      ],
      "name": "AddressEmptyCode",
      "type": "error"
    },
    {
      "inputs": [
        {
          "internalType": "address",
          "name": "account",
          "type": "address"
        }
      ],
      "name": "AddressInsufficientBalance",
      "type": "error"
    },
    {
      "inputs": [],
      "name": "FailedInnerCall",
      "type": "error"
    },
    {
      "inputs": [
        {
          "internalType": "address",
          "name": "token",
          "type": "address"
        }
      ],
      "name": "SafeERC20FailedOperation",
      "type": "error"
    },
    {
      "inputs": [
        {
          "components": [
            {
              "internalType": "address",
              "name": "asset",
              "type": "address"
            },
            {
              "internalType": "Epoch",
              "name": "epoch",
              "type": "uint16"
            }
          ],
          "internalType": "struct CouponKey[]",
          "name": "couponKeys",
          "type": "tuple[]"
        }
      ],
      "name": "buildBatchMetadata",
      "outputs": [
        {
          "internalType": "bytes",
          "name": "",
          "type": "bytes"
        }
      ],
      "stateMutability": "view",
      "type": "function"
    },
    {
      "inputs": [
        {
          "components": [
            {
              "internalType": "address",
              "name": "asset",
              "type": "address"
            },
            {
              "internalType": "Epoch",
              "name": "epoch",
              "type": "uint16"
            }
          ],
          "internalType": "struct CouponKey",
          "name": "couponKey",
          "type": "tuple"
        }
      ],
      "name": "buildMetadata",
      "outputs": [
        {
          "internalType": "bytes",
          "name": "",
          "type": "bytes"
        }
      ],
      "stateMutability": "view",
      "type": "function"
    },
    {
      "inputs": [
        {
          "components": [
            {
              "internalType": "address",
              "name": "asset",
              "type": "address"
            },
            {
              "internalType": "Epoch",
              "name": "epoch",
              "type": "uint16"
            }
          ],
          "internalType": "struct CouponKey",
          "name": "couponKey",
          "type": "tuple"
        }
      ],
      "name": "getWrappedCoupon",
      "outputs": [
        {
          "internalType": "address",
          "name": "",
          "type": "address"
        }
      ],
      "stateMutability": "view",
      "type": "function"
    },
    {
      "inputs": [
        {
          "components": [
            {
              "internalType": "address",
              "name": "asset",
              "type": "address"
            },
            {
              "internalType": "Epoch",
              "name": "epoch",
              "type": "uint16"
            }
          ],
          "internalType": "struct CouponKey[]",
          "name": "couponKeys",
          "type": "tuple[]"
        }
      ],
      "name": "getWrappedCoupons",
      "outputs": [
        {
          "internalType": "address[]",
          "name": "wrappedCoupons",
          "type": "address[]"
        }
      ],
      "stateMutability": "view",
      "type": "function"
    },
    {
      "inputs": [
        {
          "components": [
            {
              "components": [
                {
                  "internalType": "address",
                  "name": "asset",
                  "type": "address"
                },
                {
                  "internalType": "Epoch",
                  "name": "epoch",
                  "type": "uint16"
                }
              ],
              "internalType": "struct CouponKey",
              "name": "key",
              "type": "tuple"
            },
            {
              "internalType": "uint256",
              "name": "amount",
              "type": "uint256"
            }
          ],
          "internalType": "struct Coupon[]",
          "name": "coupons",
          "type": "tuple[]"
        },
        {
          "internalType": "address",
          "name": "recipient",
          "type": "address"
        }
      ],
      "name": "unwrap",
      "outputs": [],
      "stateMutability": "nonpayable",
      "type": "function"
    },
    {
      "inputs": [
        {
          "components": [
            {
              "components": [
                {
                  "internalType": "address",
                  "name": "asset",
                  "type": "address"
                },
                {
                  "internalType": "Epoch",
                  "name": "epoch",
                  "type": "uint16"
                }
              ],
              "internalType": "struct CouponKey",
              "name": "key",
              "type": "tuple"
            },
            {
              "internalType": "uint256",
              "name": "amount",
              "type": "uint256"
            }
          ],
          "internalType": "struct Coupon[]",
          "name": "coupons",
          "type": "tuple[]"
        },
        {
          "internalType": "address",
          "name": "recipient",
          "type": "address"
        }
      ],
      "name": "wrap",
      "outputs": [],
      "stateMutability": "nonpayable",
      "type": "function"
    },
    {
      "inputs": [
        {
          "components": [
            {
              "internalType": "uint256",
              "name": "deadline",
              "type": "uint256"
            },
            {
              "internalType": "uint8",
              "name": "v",
              "type": "uint8"
            },
            {
              "internalType": "bytes32",
              "name": "r",
              "type": "bytes32"
            },
            {
              "internalType": "bytes32",
              "name": "s",
              "type": "bytes32"
            }
          ],
          "internalType": "struct PermitSignature",
          "name": "couponPermitSignature",
          "type": "tuple"
        },
        {
          "components": [
            {
              "components": [
                {
                  "internalType": "address",
                  "name": "asset",
                  "type": "address"
                },
                {
                  "internalType": "Epoch",
                  "name": "epoch",
                  "type": "uint16"
                }
              ],
              "internalType": "struct CouponKey",
              "name": "key",
              "type": "tuple"
            },
            {
              "internalType": "uint256",
              "name": "amount",
              "type": "uint256"
            }
          ],
          "internalType": "struct Coupon[]",
          "name": "coupons",
          "type": "tuple[]"
        },
        {
          "internalType": "address",
          "name": "recipient",
          "type": "address"
        }
      ],
      "name": "wrapWithPermit",
      "outputs": [],
      "stateMutability": "nonpayable",
      "type": "function"
    }
  ],
  "transactionHash": "0xfc8cb420689db252279a3db55a18008308046fa6fdf7dd46b30c34a78ef9a60c",
  "args": [
    "0x8bbcA766D175aDbffB073832262990df1c5ef748",
    "0xfcBE16BfD991E4949244E59d9b524e6964b8BB75"
  ],
  "numDeployments": 1,
  "solcInputHash": "6ee56211a49e2a040139762a5247a157",
  "bytecode": "0x60c06040523480156200001157600080fd5b5060405162001a6a38038062001a6a833981016040819052620000349162000069565b6001600160a01b039182166080521660a052620000a1565b80516001600160a01b03811681146200006457600080fd5b919050565b600080604083850312156200007d57600080fd5b62000088836200004c565b915062000098602084016200004c565b90509250929050565b60805160a0516119566200011460003960008181610218015281816103fe015281816104f90152818161070801528181610ab10152610c290152600081816102470152818161042b01528181610528015281816106af0152818161072f01528181610ae00152610bfa01526119566000f3fe608060405234801561001057600080fd5b506004361061007d5760003560e01c8063bf06ad231161005b578063bf06ad23146100d3578063c309531a146100f3578063ddf0907214610106578063ffa8d6001461013157600080fd5b80630e84565a1461008257806334b408751461009757806359509e9c146100aa575b600080fd5b6100956100903660046111f8565b610144565b005b6100956100a53660046111f8565b610495565b6100bd6100b836600461124f565b6104a5565b6040516100ca91906112c4565b60405180910390f35b6100e66100e136600461124f565b610646565b6040516100ca9190611361565b610095610101366004611374565b6106aa565b6101196101143660046113e2565b6106fc565b6040516001600160a01b0390911681526020016100ca565b6100e661013f3660046113e2565b6107d7565b606060008367ffffffffffffffff811115610161576101616113f4565b60405190808252806020026020018201604052801561018a578160200160208202803683370190505b50905060008467ffffffffffffffff8111156101a8576101a86113f4565b6040519080825280602002602001820160405280156101d1578160200160208202803683370190505b50905060005b858110156103cd5760006102128888848181106101f6576101f661140a565b61020d9260609091020136819003810191506114a0565b6107eb565b905060007f00000000000000000000000000000000000000000000000000000000000000006001600160a01b03166308b2ea5e7f00000000000000000000000000000000000000000000000000000000000000006102968c8c8881811061027b5761027b61140a565b90506060020180360381019061029191906114bc565b6109b1565b856040518463ffffffff1660e01b81526004016102b5939291906114f4565b602060405180830381865afa1580156102d2573d6000803e3d6000fd5b505050506040513d601f19601f820116820180604052508101906102f6919061151c565b905061033333308b8b8781811061030f5761030f61140a565b90506060020160400135846001600160a01b03166109c6909392919063ffffffff16565b8582604051602001610346929190611539565b604051602081830303815290604052955061036c89898581811061027b5761027b61140a565b85848151811061037e5761037e61140a565b60200260200101818152505088888481811061039c5761039c61140a565b905060600201604001358484815181106103b8576103b861140a565b602090810291909101015250506001016101d7565b506040517fa7eaa1860000000000000000000000000000000000000000000000000000000081526001600160a01b037f0000000000000000000000000000000000000000000000000000000000000000169063a7eaa1869061045b907f000000000000000000000000000000000000000000000000000000000000000090869086908a908a906004016115a4565b600060405180830381600087803b15801561047557600080fd5b505af1158015610489573d6000803e3d6000fd5b50505050505050505050565b6104a0838383610a42565b505050565b60608167ffffffffffffffff8111156104c0576104c06113f4565b6040519080825280602002602001820160405280156104e9578160200160208202803683370190505b50905060005b8281101561063f577f00000000000000000000000000000000000000000000000000000000000000006001600160a01b03166308b2ea5e7f000000000000000000000000000000000000000000000000000000000000000061058387878681811061055c5761055c61140a565b90506040020180360381019061057291906114a0565b6020810151905160a09190911b0190565b6105ae8888878181106105985761059861140a565b90506040020180360381019061020d91906114a0565b6040518463ffffffff1660e01b81526004016105cc939291906114f4565b602060405180830381865afa1580156105e9573d6000803e3d6000fd5b505050506040513d601f19601f8201168201806040525081019061060d919061151c565b82828151811061061f5761061f61140a565b6001600160a01b03909216602092830291909101909101526001016104ef565b5092915050565b60606106a38383808060200260200160405190810160405280939291908181526020016000905b828210156106995761068a604083028601368190038101906114a0565b8152602001906001019061066d565b5050505050610cf6565b9392505050565b6106ea7f0000000000000000000000000000000000000000000000000000000000000000333060016106e1368a90038a018a611611565b93929190610d58565b506106f6838383610a42565b50505050565b60006001600160a01b037f0000000000000000000000000000000000000000000000000000000000000000166308b2ea5e7f0000000000000000000000000000000000000000000000000000000000000000610760610572368790038701876114a0565b61077261020d368890038801886114a0565b6040518463ffffffff1660e01b8152600401610790939291906114f4565b602060405180830381865afa1580156107ad573d6000803e3d6000fd5b505050506040513d601f19601f820116820180604052508101906107d1919061151c565b92915050565b60606107d161020d368490038401846114a0565b6060600082600001516001600160a01b03166395d89b416040518163ffffffff1660e01b8152600401600060405180830381865afa158015610831573d6000803e3d6000fd5b505050506040513d6000823e601f3d908101601f19168201604052610859919081019061167d565b9050600061086e846020015161ffff16610e27565b90506000828260405160200161088592919061172a565b60405160208183030381529060405261089d906117ac565b9050600083836040516020016108b49291906117d0565b6040516020818303038152906040526108cc906117ac565b9050825184510160020280601e0183019250806006018201915050818187600001516001600160a01b031663313ce5676040518163ffffffff1660e01b8152600401602060405180830381865afa15801561092b573d6000803e3d6000fd5b505050506040513d601f19601f8201168201806040525081019061094f9190611828565b60f81b6040516020016109979392919092835260208301919091527fff0000000000000000000000000000000000000000000000000000000000000016604082015260410190565b604051602081830303815290604052945050505050919050565b80516020810151905160009160a01b016107d1565b6040516001600160a01b0384811660248301528381166044830152606482018390526106f69186918216906323b872dd906084015b604051602081830303815290604052915060e01b6020820180517bffffffffffffffffffffffffffffffffffffffffffffffffffffffff8381831617835250505050610ec7565b606060008367ffffffffffffffff811115610a5f57610a5f6113f4565b604051908082528060200260200182016040528015610a88578160200160208202803683370190505b50905060005b84811015610bc9576000610aad8787848181106101f6576101f661140a565b90507f00000000000000000000000000000000000000000000000000000000000000006001600160a01b03166308b2ea5e7f0000000000000000000000000000000000000000000000000000000000000000610b148a8a8781811061027b5761027b61140a565b846040518463ffffffff1660e01b8152600401610b33939291906114f4565b602060405180830381865afa158015610b50573d6000803e3d6000fd5b505050506040513d601f19601f82011682018060405250810190610b74919061151c565b838381518110610b8657610b8661140a565b6001600160a01b03909216602092830291909101820152604051610bae918691849101611539565b60408051601f19818403018152919052935050600101610a8e565b506040517fa50e72320000000000000000000000000000000000000000000000000000000081526001600160a01b037f0000000000000000000000000000000000000000000000000000000000000000169063a50e723290610c579033907f0000000000000000000000000000000000000000000000000000000000000000908a908a908990600401611845565b600060405180830381600087803b158015610c7157600080fd5b505af1158015610c85573d6000803e3d6000fd5b5050505060005b84811015610cee57610ce684878784818110610caa57610caa61140a565b90506060020160400135848481518110610cc657610cc661140a565b60200260200101516001600160a01b0316610f489092919063ffffffff16565b600101610c8c565b505050505050565b606060005b8251811015610d525781610d27848381518110610d1a57610d1a61140a565b60200260200101516107eb565b604051602001610d38929190611539565b60408051601f198184030181529190529150600101610cfb565b50919050565b845160009015610e1a578551602087015160408089015160608a015191517ff51cc7dd0000000000000000000000000000000000000000000000000000000081526001600160a01b03898116600483015288811660248301528715156044830152606482019590955260ff909316608484015260a483015260c48201529086169063f51cc7dd9060e401600060405180830381600087803b158015610dfc57600080fd5b505af1925050508015610e0d575060015b15610e1a57506001610e1e565b5060005b95945050505050565b60606000610e3483610f79565b600101905060008167ffffffffffffffff811115610e5457610e546113f4565b6040519080825280601f01601f191660200182016040528015610e7e576020820181803683370190505b5090508181016020015b600019017f3031323334353637383961626364656600000000000000000000000000000000600a86061a8153600a8504945084610e8857509392505050565b6000610edc6001600160a01b0384168361105b565b90508051600014158015610f01575080806020019051810190610eff91906118e2565b155b156104a0576040517f5274afe70000000000000000000000000000000000000000000000000000000081526001600160a01b03841660048201526024015b60405180910390fd5b6040516001600160a01b038381166024830152604482018390526104a091859182169063a9059cbb906064016109fb565b6000807a184f03e93ff9f4daa797ed6e38ed64bf6a1f0100000000000000008310610fc2577a184f03e93ff9f4daa797ed6e38ed64bf6a1f010000000000000000830492506040015b6d04ee2d6d415b85acef81000000008310610fee576d04ee2d6d415b85acef8100000000830492506020015b662386f26fc10000831061100c57662386f26fc10000830492506010015b6305f5e1008310611024576305f5e100830492506008015b612710831061103857612710830492506004015b6064831061104a576064830492506002015b600a83106107d15760010192915050565b60606106a38383600084600080856001600160a01b031684866040516110819190611904565b60006040518083038185875af1925050503d80600081146110be576040519150601f19603f3d011682016040523d82523d6000602084013e6110c3565b606091505b50915091506110d38683836110dd565b9695505050505050565b6060826110f2576110ed82611152565b6106a3565b815115801561110957506001600160a01b0384163b155b1561114b576040517f9996b3150000000000000000000000000000000000000000000000000000000081526001600160a01b0385166004820152602401610f3f565b50806106a3565b8051156111625780518082602001fd5b6040517f1425ea4200000000000000000000000000000000000000000000000000000000815260040160405180910390fd5b50565b60008083601f8401126111a957600080fd5b50813567ffffffffffffffff8111156111c157600080fd5b6020830191508360206060830285010111156111dc57600080fd5b9250929050565b6001600160a01b038116811461119457600080fd5b60008060006040848603121561120d57600080fd5b833567ffffffffffffffff81111561122457600080fd5b61123086828701611197565b9094509250506020840135611244816111e3565b809150509250925092565b6000806020838503121561126257600080fd5b823567ffffffffffffffff8082111561127a57600080fd5b818501915085601f83011261128e57600080fd5b81358181111561129d57600080fd5b8660208260061b85010111156112b257600080fd5b60209290920196919550909350505050565b6020808252825182820181905260009190848201906040850190845b818110156113055783516001600160a01b0316835292840192918401916001016112e0565b50909695505050505050565b60005b8381101561132c578181015183820152602001611314565b50506000910152565b6000815180845261134d816020860160208601611311565b601f01601f19169290920160200192915050565b6020815260006106a36020830184611335565b60008060008084860360c081121561138b57600080fd5b608081121561139957600080fd5b50849350608085013567ffffffffffffffff8111156113b757600080fd5b6113c387828801611197565b90945092505060a08501356113d7816111e3565b939692955090935050565b600060408284031215610d5257600080fd5b634e487b7160e01b600052604160045260246000fd5b634e487b7160e01b600052603260045260246000fd5b6040805190810167ffffffffffffffff81118282101715611443576114436113f4565b60405290565b803561ffff8116811461145b57600080fd5b919050565b60006040828403121561147257600080fd5b61147a611420565b90508135611487816111e3565b815261149560208301611449565b602082015292915050565b6000604082840312156114b257600080fd5b6106a38383611460565b6000606082840312156114ce57600080fd5b6114d6611420565b6114e08484611460565b815260409290920135602083015250919050565b6001600160a01b0384168152826020820152606060408201526000610e1e6060830184611335565b60006020828403121561152e57600080fd5b81516106a3816111e3565b6000835161154b818460208801611311565b83519083019061155f818360208801611311565b01949350505050565b60008151808452602080850194506020840160005b838110156115995781518752958201959082019060010161157d565b509495945050505050565b60006001600160a01b03808816835260a060208401526115c760a0840188611568565b83810360408501526115d98188611568565b9050818616606085015283810360808501526115f58186611335565b9998505050505050505050565b60ff8116811461119457600080fd5b60006080828403121561162357600080fd5b6040516080810181811067ffffffffffffffff82111715611646576116466113f4565b60405282358152602083013561165b81611602565b6020820152604083810135908201526060928301359281019290925250919050565b60006020828403121561168f57600080fd5b815167ffffffffffffffff808211156116a757600080fd5b818401915084601f8301126116bb57600080fd5b8151818111156116cd576116cd6113f4565b604051601f8201601f19908116603f011681019083821181831017156116f5576116f56113f4565b8160405282815287602084870101111561170e57600080fd5b61171f836020830160208801611311565b979650505050505050565b6000835161173c818460208801611311565b7f20426f6e6420436f75706f6e2028000000000000000000000000000000000000908301908152835161177681600e840160208801611311565b7f2900000000000000000000000000000000000000000000000000000000000000600e9290910191820152600f01949350505050565b80516020808301519190811015610d525760001960209190910360031b1b16919050565b600083516117e2818460208801611311565b7f2d43500000000000000000000000000000000000000000000000000000000000908301908152835161181c816003840160208801611311565b01600301949350505050565b60006020828403121561183a57600080fd5b81516106a381611602565b6000608082016001600160a01b038089168452602081891660208601526040608060408701528388855260a08701905089945060005b898110156118bf57853561188e816111e3565b8516825261ffff6118a0878601611449565b168285015285830135838301526060958601959091019060010161187b565b5086810360608801526118d28189611335565b9c9b505050505050505050505050565b6000602082840312156118f457600080fd5b815180151581146106a357600080fd5b60008251611916818460208701611311565b919091019291505056fea2646970667358221220410a72653e3b9e0dfa845d6c413e4707e38a5d87b5245c2a1388b96d2c80499464736f6c63430008170033",
  "devdoc": {
    "errors": {
      "AddressEmptyCode(address)": [
        {
          "details": "There's no code at `target` (it is not a contract)."
        }
      ],
      "AddressInsufficientBalance(address)": [
        {
          "details": "The ETH balance of the account is not enough to perform the operation."
        }
      ],
      "FailedInnerCall()": [
        {
          "details": "A call to an address target failed. The target may have reverted."
        }
      ],
      "SafeERC20FailedOperation(address)": [
        {
          "details": "An operation with an ERC20 token failed."
        }
      ]
    },
    "kind": "dev",
    "methods": {},
    "version": 1
  },
  "userdoc": {
    "kind": "user",
    "methods": {},
    "version": 1
  },
  "storageLayout": {
    "storage": [],
    "types": null
  }
}