{
  "address": "0xE829fDe841c2a4b8dF34D0ebA146c06393D7F322",
  "abi": [
    {
      "inputs": [
        {
          "internalType": "address",
          "name": "wrapped1155Factory",
          "type": "address"
        },
        {
          "internalType": "address",
          "name": "cloberMarketFactory",
          "type": "address"
        },
        {
          "internalType": "address",
          "name": "couponManager",
          "type": "address"
        },
        {
          "internalType": "address",
          "name": "weth",
          "type": "address"
        },
        {
          "internalType": "address",
          "name": "bondPositionManager",
          "type": "address"
        }
      ],
      "stateMutability": "nonpayable",
      "type": "constructor"
    },
    {
      "inputs": [
        {
          "internalType": "address",
          "name": "target",
          "type": "address"
        }
      ],
      "name": "AddressEmptyCode",
      "type": "error"
    },
    {
      "inputs": [
        {
          "internalType": "address",
          "name": "account",
          "type": "address"
        }
      ],
      "name": "AddressInsufficientBalance",
      "type": "error"
    },
    {
      "inputs": [],
      "name": "ControllerSlippage",
      "type": "error"
    },
    {
      "inputs": [],
      "name": "FailedInnerCall",
      "type": "error"
    },
    {
      "inputs": [],
      "name": "InvalidAccess",
      "type": "error"
    },
    {
      "inputs": [],
      "name": "InvalidMarket",
      "type": "error"
    },
    {
      "inputs": [
        {
          "internalType": "address",
          "name": "owner",
          "type": "address"
        }
      ],
      "name": "OwnableInvalidOwner",
      "type": "error"
    },
    {
      "inputs": [
        {
          "internalType": "address",
          "name": "account",
          "type": "address"
        }
      ],
      "name": "OwnableUnauthorizedAccount",
      "type": "error"
    },
    {
      "inputs": [],
      "name": "Reentrancy",
      "type": "error"
    },
    {
      "inputs": [
        {
          "internalType": "uint256",
          "name": "value",
          "type": "uint256"
        }
      ],
      "name": "SafeCastOverflowedUintToInt",
      "type": "error"
    },
    {
      "inputs": [
        {
          "internalType": "address",
          "name": "token",
          "type": "address"
        }
      ],
      "name": "SafeERC20FailedOperation",
      "type": "error"
    },
    {
      "anonymous": false,
      "inputs": [
        {
          "indexed": true,
          "internalType": "address",
          "name": "previousOwner",
          "type": "address"
        },
        {
          "indexed": true,
          "internalType": "address",
          "name": "newOwner",
          "type": "address"
        }
      ],
      "name": "OwnershipTransferStarted",
      "type": "event"
    },
    {
      "anonymous": false,
      "inputs": [
        {
          "indexed": true,
          "internalType": "address",
          "name": "previousOwner",
          "type": "address"
        },
        {
          "indexed": true,
          "internalType": "address",
          "name": "newOwner",
          "type": "address"
        }
      ],
      "name": "OwnershipTransferred",
      "type": "event"
    },
    {
      "anonymous": false,
      "inputs": [
        {
          "indexed": true,
          "internalType": "address",
          "name": "asset",
          "type": "address"
        },
        {
          "indexed": true,
          "internalType": "Epoch",
          "name": "epoch",
          "type": "uint16"
        },
        {
          "indexed": true,
          "internalType": "address",
          "name": "cloberMarket",
          "type": "address"
        }
      ],
      "name": "SetCouponMarket",
      "type": "event"
    },
    {
      "inputs": [],
      "name": "acceptOwnership",
      "outputs": [],
      "stateMutability": "nonpayable",
      "type": "function"
    },
    {
      "inputs": [
        {
          "internalType": "uint256",
          "name": "positionId",
          "type": "uint256"
        },
        {
          "internalType": "uint256",
          "name": "amount",
          "type": "uint256"
        },
        {
          "internalType": "Epoch",
          "name": "expiredWith",
          "type": "uint16"
        },
        {
          "internalType": "int256",
          "name": "interestThreshold",
          "type": "int256"
        },
        {
          "components": [
            {
              "internalType": "uint256",
              "name": "permitAmount",
              "type": "uint256"
            },
            {
              "components": [
                {
                  "internalType": "uint256",
                  "name": "deadline",
                  "type": "uint256"
                },
                {
                  "internalType": "uint8",
                  "name": "v",
                  "type": "uint8"
                },
                {
                  "internalType": "bytes32",
                  "name": "r",
                  "type": "bytes32"
                },
                {
                  "internalType": "bytes32",
                  "name": "s",
                  "type": "bytes32"
                }
              ],
              "internalType": "struct PermitSignature",
              "name": "signature",
              "type": "tuple"
            }
          ],
          "internalType": "struct ERC20PermitParams",
          "name": "tokenPermitParams",
          "type": "tuple"
        },
        {
          "components": [
            {
              "internalType": "uint256",
              "name": "deadline",
              "type": "uint256"
            },
            {
              "internalType": "uint8",
              "name": "v",
              "type": "uint8"
            },
            {
              "internalType": "bytes32",
              "name": "r",
              "type": "bytes32"
            },
            {
              "internalType": "bytes32",
              "name": "s",
              "type": "bytes32"
            }
          ],
          "internalType": "struct PermitSignature",
          "name": "positionPermitParams",
          "type": "tuple"
        }
      ],
      "name": "adjust",
      "outputs": [],
      "stateMutability": "payable",
      "type": "function"
    },
    {
      "inputs": [
        {
          "internalType": "address",
          "name": "inputToken",
          "type": "address"
        },
        {
          "internalType": "address",
          "name": "",
          "type": "address"
        },
        {
          "internalType": "uint256",
          "name": "inputAmount",
          "type": "uint256"
        },
        {
          "internalType": "uint256",
          "name": "outputAmount",
          "type": "uint256"
        },
        {
          "internalType": "bytes",
          "name": "data",
          "type": "bytes"
        }
      ],
      "name": "cloberMarketSwapCallback",
      "outputs": [],
      "stateMutability": "payable",
      "type": "function"
    },
    {
      "inputs": [
        {
          "internalType": "address",
          "name": "asset",
          "type": "address"
        },
        {
          "internalType": "uint256",
          "name": "amount",
          "type": "uint256"
        },
        {
          "internalType": "Epoch",
          "name": "expiredWith",
          "type": "uint16"
        },
        {
          "internalType": "int256",
          "name": "minEarnInterest",
          "type": "int256"
        },
        {
          "components": [
            {
              "internalType": "uint256",
              "name": "permitAmount",
              "type": "uint256"
            },
            {
              "components": [
                {
                  "internalType": "uint256",
                  "name": "deadline",
                  "type": "uint256"
                },
                {
                  "internalType": "uint8",
                  "name": "v",
                  "type": "uint8"
                },
                {
                  "internalType": "bytes32",
                  "name": "r",
                  "type": "bytes32"
                },
                {
                  "internalType": "bytes32",
                  "name": "s",
                  "type": "bytes32"
                }
              ],
              "internalType": "struct PermitSignature",
              "name": "signature",
              "type": "tuple"
            }
          ],
          "internalType": "struct ERC20PermitParams",
          "name": "tokenPermitParams",
          "type": "tuple"
        }
      ],
      "name": "deposit",
      "outputs": [
        {
          "internalType": "uint256",
          "name": "positionId",
          "type": "uint256"
        }
      ],
      "stateMutability": "payable",
      "type": "function"
    },
    {
      "inputs": [
        {
          "components": [
            {
              "internalType": "address",
              "name": "asset",
              "type": "address"
            },
            {
              "internalType": "Epoch",
              "name": "epoch",
              "type": "uint16"
            }
          ],
          "internalType": "struct CouponKey",
          "name": "couponKey",
          "type": "tuple"
        }
      ],
      "name": "getCouponMarket",
      "outputs": [
        {
          "internalType": "address",
          "name": "",
          "type": "address"
        }
      ],
      "stateMutability": "view",
      "type": "function"
    },
    {
      "inputs": [
        {
          "internalType": "address",
          "name": "",
          "type": "address"
        },
        {
          "internalType": "address",
          "name": "",
          "type": "address"
        },
        {
          "internalType": "uint256[]",
          "name": "",
          "type": "uint256[]"
        },
        {
          "internalType": "uint256[]",
          "name": "",
          "type": "uint256[]"
        },
        {
          "internalType": "bytes",
          "name": "",
          "type": "bytes"
        }
      ],
      "name": "onERC1155BatchReceived",
      "outputs": [
        {
          "internalType": "bytes4",
          "name": "",
          "type": "bytes4"
        }
      ],
      "stateMutability": "nonpayable",
      "type": "function"
    },
    {
      "inputs": [
        {
          "internalType": "address",
          "name": "",
          "type": "address"
        },
        {
          "internalType": "address",
          "name": "",
          "type": "address"
        },
        {
          "internalType": "uint256",
          "name": "",
          "type": "uint256"
        },
        {
          "internalType": "uint256",
          "name": "",
          "type": "uint256"
        },
        {
          "internalType": "bytes",
          "name": "",
          "type": "bytes"
        }
      ],
      "name": "onERC1155Received",
      "outputs": [
        {
          "internalType": "bytes4",
          "name": "",
          "type": "bytes4"
        }
      ],
      "stateMutability": "nonpayable",
      "type": "function"
    },
    {
      "inputs": [],
      "name": "owner",
      "outputs": [
        {
          "internalType": "address",
          "name": "",
          "type": "address"
        }
      ],
      "stateMutability": "view",
      "type": "function"
    },
    {
      "inputs": [],
      "name": "pendingOwner",
      "outputs": [
        {
          "internalType": "address",
          "name": "",
          "type": "address"
        }
      ],
      "stateMutability": "view",
      "type": "function"
    },
    {
      "inputs": [
        {
          "internalType": "bytes",
          "name": "data",
          "type": "bytes"
        }
      ],
      "name": "positionLockAcquired",
      "outputs": [
        {
          "internalType": "bytes",
          "name": "result",
          "type": "bytes"
        }
      ],
      "stateMutability": "nonpayable",
      "type": "function"
    },
    {
      "inputs": [],
      "name": "renounceOwnership",
      "outputs": [],
      "stateMutability": "nonpayable",
      "type": "function"
    },
    {
      "inputs": [
        {
          "components": [
            {
              "internalType": "address",
              "name": "asset",
              "type": "address"
            },
            {
              "internalType": "Epoch",
              "name": "epoch",
              "type": "uint16"
            }
          ],
          "internalType": "struct CouponKey",
          "name": "couponKey",
          "type": "tuple"
        },
        {
          "internalType": "address",
          "name": "cloberMarket",
          "type": "address"
        }
      ],
      "name": "setCouponMarket",
      "outputs": [],
      "stateMutability": "nonpayable",
      "type": "function"
    },
    {
      "inputs": [
        {
          "internalType": "bytes4",
          "name": "interfaceId",
          "type": "bytes4"
        }
      ],
      "name": "supportsInterface",
      "outputs": [
        {
          "internalType": "bool",
          "name": "",
          "type": "bool"
        }
      ],
      "stateMutability": "view",
      "type": "function"
    },
    {
      "inputs": [
        {
          "internalType": "address",
          "name": "newOwner",
          "type": "address"
        }
      ],
      "name": "transferOwnership",
      "outputs": [],
      "stateMutability": "nonpayable",
      "type": "function"
    },
    {
      "stateMutability": "payable",
      "type": "receive"
    }
  ],
  "transactionHash": "0x492f7772f4d6496849e1fbd9410fa06c2496e17233a4c16d42e0bf46dc6ae377",
  "args": [
    "0xfcBE16BfD991E4949244E59d9b524e6964b8BB75",
    "0x24aC0938C010Fb520F1068e96d78E0458855111D",
    "0x8bbcA766D175aDbffB073832262990df1c5ef748",
    "0x82aF49447D8a07e3bd95BD0d56f35241523fBab1",
    "0x0Cf91Bc7a67B063142C029a69fF9C8ccd93476E2"
  ],
  "numDeployments": 1,
  "solcInputHash": "473d8f57161595555eccbebb50cd23f2",
  "bytecode": "0x61012060405260016002553480156200001757600080fd5b5060405162004286380380620042868339810160408190526200003a916200012a565b8484848433806200006557604051631e4fbdf760e01b81526000600482015260240160405180910390fd5b62000070816200009f565b506001600160a01b0393841660805291831660a052821660c052811660e0521661010052506200019a92505050565b600180546001600160a01b0319169055620000ba81620000bd565b50565b600080546001600160a01b038381166001600160a01b0319831681178455604051919092169283917f8be0079c531659141344cd1fd0a4f28419497f9722a3daafe3b4186f6b6457e09190a35050565b80516001600160a01b03811681146200012557600080fd5b919050565b600080600080600060a086880312156200014357600080fd5b6200014e866200010d565b94506200015e602087016200010d565b93506200016e604087016200010d565b92506200017e606087016200010d565b91506200018e608087016200010d565b90509295509295909350565b60805160a05160c05160e05161010051613fea6200029c600039600081816106da015281816107930152818161084101528181610925015281816109b901528181610a8901528181610b3f01528181610bfe01528181610c9d01528181610d3401528181610e8401528181610f1b01528181610f6d0152818161103a0152818161138601526114c0015260008181610dd60152818161111c015281816111ad015281816112ac0152818161154401526115d50152600081816103e101528181611a6a01528181611d2a015261229b01526000818161049f01526117e00152600081816103b201528181611a3b01528181611d59015261226e0152613fea6000f3fe6080604052600436106100e15760003560e01c80638da5cb5b1161007f578063e30c397811610059578063e30c397814610281578063f23a6e611461029f578063f2fde38b146102e4578063fd235fda1461030457600080fd5b80638da5cb5b146101cf578063bc197c8114610201578063bf4415dc1461023a57600080fd5b806356681483116100bb57806356681483146101715780636c2da99914610184578063715018a6146101a557806379ba5097146101ba57600080fd5b806301ffc9a7146100ed57806329b084c11461012257806346a114e21461014457600080fd5b366100e857005b600080fd5b3480156100f957600080fd5b5061010d610108366004612dff565b610317565b60405190151581526020015b60405180910390f35b34801561012e57600080fd5b5061014261013d366004612f23565b610380565b005b34801561015057600080fd5b5061016461015f366004612fd9565b6106cd565b604051610119919061305e565b61014261017f366004613083565b610da4565b6101976101923660046130f4565b611278565b604051908152602001610119565b3480156101b157600080fd5b506101426116a1565b3480156101c657600080fd5b506101426116b5565b3480156101db57600080fd5b506000546001600160a01b03165b6040516001600160a01b039091168152602001610119565b34801561020d57600080fd5b5061022161021c3660046131df565b6116fe565b6040516001600160e01b03199091168152602001610119565b34801561024657600080fd5b506101e961025536600461328d565b602081810151915160a09290921b9091016000908152600390915260409020546001600160a01b031690565b34801561028d57600080fd5b506001546001600160a01b03166101e9565b3480156102ab57600080fd5b506102216102ba3660046132a9565b7ff23a6e610000000000000000000000000000000000000000000000000000000095945050505050565b3480156102f057600080fd5b506101426102ff366004613312565b611729565b61014261031236600461332f565b6117a7565b60006001600160e01b031982167f4e2312e000000000000000000000000000000000000000000000000000000000148061037a57507f01ffc9a7000000000000000000000000000000000000000000000000000000006001600160e01b03198316145b92915050565b610388611af9565b600061039383611b26565b905060006103ac846020810151905160a09190911b0190565b905060007f00000000000000000000000000000000000000000000000000000000000000006001600160a01b03166308b2ea5e7f000000000000000000000000000000000000000000000000000000000000000084866040518463ffffffff1660e01b8152600401610420939291906133d9565b602060405180830381865afa15801561043d573d6000803e3d6000fd5b505050506040513d601f19601f820116820180604052508101906104619190613401565b6040517f0cf85bcc0000000000000000000000000000000000000000000000000000000081526001600160a01b0386811660048301529192506000917f00000000000000000000000000000000000000000000000000000000000000001690630cf85bcc9060240160a060405180830381865afa1580156104e6573d6000803e3d6000fd5b505050506040513d601f19601f8201168201806040525081019061050a9190613443565b80519091506001600160a01b031615806105975750816001600160a01b0316856001600160a01b031663c55dae636040518163ffffffff1660e01b8152600401602060405180830381865afa158015610567573d6000803e3d6000fd5b505050506040513d601f19601f8201168201806040525081019061058b9190613401565b6001600160a01b031614155b80610619575085600001516001600160a01b0316856001600160a01b031663217a4b706040518163ffffffff1660e01b8152600401602060405180830381865afa1580156105e9573d6000803e3d6000fd5b505050506040513d601f19601f8201168201806040525081019061060d9190613401565b6001600160a01b031614155b15610650576040517f9db8d5b100000000000000000000000000000000000000000000000000000000815260040160405180910390fd5b6000838152600360209081526040808320805473ffffffffffffffffffffffffffffffffffffffff19166001600160a01b038a8116918217909255928a01518a519251939461ffff9091169392909116917f36b618d929a94eeca73ecddec2f5e49fdb6e4bde0a20e2987baaabb9e7fc21ab9190a4505050505050565b6060336001600160a01b037f0000000000000000000000000000000000000000000000000000000000000000161461071857604051633006171960e21b815260040160405180910390fd5b6000808380602001905181019061072f919061350d565b955090925090506000829003610828576000848060200190518101906107559190613567565b6040517f6a6278420000000000000000000000000000000000000000000000000000000081526001600160a01b0380841660048301529197509192507f00000000000000000000000000000000000000000000000000000000000000001690636a627842906024016020604051808303816000875af11580156107dc573d6000803e3d6000fd5b505050506040513d601f19601f8201168201806040525081019061080091906135b8565b92508260405160200161081591815260200190565b6040516020818303038152906040529350505b60405163eb02c30160e01b8152600481018390526000907f00000000000000000000000000000000000000000000000000000000000000006001600160a01b03169063eb02c3019060240160a060405180830381865afa158015610890573d6000803e3d6000fd5b505050506040513d601f19601f820116820180604052508101906108b491906135e1565b90506000858060200190518101906108cc9190613660565b61ffff91909116604085810182905260808601849052517f7c6af77d00000000000000000000000000000000000000000000000000000000815260048101889052602481019390935260448301529150600090819081907f00000000000000000000000000000000000000000000000000000000000000006001600160a01b031690637c6af77d906064016000604051808303816000875af1158015610976573d6000803e3d6000fd5b505050506040513d6000823e601f3d908101601f1916820160405261099e919081019061375b565b9250925092506000811215610a525784516001600160a01b037f000000000000000000000000000000000000000000000000000000000000000016906301e3366790306109ea856137de565b6040516001600160e01b031960e086901b1681526001600160a01b0393841660048201529290911660248301526044820152606401600060405180830381600087803b158015610a3957600080fd5b505af1158015610a4d573d6000803e3d6000fd5b505050505b825115610afb576040517f65ae58470000000000000000000000000000000000000000000000000000000081526001600160a01b037f000000000000000000000000000000000000000000000000000000000000000016906365ae584790610ac09086903090600401613876565b600060405180830381600087803b158015610ada57600080fd5b505af1158015610aee573d6000803e3d6000fd5b50505050610afb83611cec565b610b1d868660000151858560008613610b15576000610b17565b855b89611dbb565b6000811315610c5d57845160405163095ea7b360e01b81526001600160a01b037f000000000000000000000000000000000000000000000000000000000000000081166004830152602482018490529091169063095ea7b3906044016020604051808303816000875af1158015610b98573d6000803e3d6000fd5b505050506040513d601f19601f82011682018060405250810190610bbc91906138b2565b5084516040517f338b5dea0000000000000000000000000000000000000000000000000000000081526001600160a01b039182166004820152602481018390527f00000000000000000000000000000000000000000000000000000000000000009091169063338b5dea90604401600060405180830381600087803b158015610c4457600080fd5b505af1158015610c58573d6000803e3d6000fd5b505050505b815115610d0557610c6d82612110565b6040517fe6ee95e20000000000000000000000000000000000000000000000000000000081526001600160a01b037f0000000000000000000000000000000000000000000000000000000000000000169063e6ee95e290610cd29085906004016138cd565b600060405180830381600087803b158015610cec57600080fd5b505af1158015610d00573d6000803e3d6000fd5b505050505b6040517faba5b4b3000000000000000000000000000000000000000000000000000000008152600481018890527f00000000000000000000000000000000000000000000000000000000000000006001600160a01b03169063aba5b4b390602401600060405180830381600087803b158015610d8057600080fd5b505af1158015610d94573d6000803e3d6000fd5b5050505050505050505050919050565b600254600114610dc75760405163558a1e0360e11b815260040160405180910390fd5b600280554715801590610e49577f00000000000000000000000000000000000000000000000000000000000000006001600160a01b031663d0e30db0476040518263ffffffff1660e01b81526004016000604051808303818588803b158015610e2f57600080fd5b505af1158015610e43573d6000803e3d6000fd5b50505050505b6040517f6352211e00000000000000000000000000000000000000000000000000000000815260048101889052879033906001600160a01b037f00000000000000000000000000000000000000000000000000000000000000001690636352211e90602401602060405180830381865afa158015610ecb573d6000803e3d6000fd5b505050506040513d601f19601f82011682018060405250810190610eef9190613401565b6001600160a01b031614610f1657604051633006171960e21b815260040160405180910390fd5b610f537f00000000000000000000000000000000000000000000000000000000000000008930610f4b3688900388018861395e565b929190612303565b5060405163eb02c30160e01b8152600481018990526000907f00000000000000000000000000000000000000000000000000000000000000006001600160a01b03169063eb02c3019060240160a060405180830381865afa158015610fbc573d6000803e3d6000fd5b505050506040513d601f19601f82011682018060405250810190610fe091906135e1565b8051909150611002903330610ffa368a90038a018a61397a565b9291906123c8565b5060408051602081018a905261ffff891681830152606080820189905282518083039091018152608082019092526001600160a01b037f00000000000000000000000000000000000000000000000000000000000000001690638154831990611073908d903390869060a0016139b1565b6040516020818303038152906040526040518263ffffffff1660e01b815260040161109e919061305e565b6000604051808303816000875af11580156110bd573d6000803e3d6000fd5b505050506040513d6000823e601f3d908101601f191682016040526110e591908101906139d9565b5081516110fb906001600160a01b0316336123df565b505050801561126a576040516370a0823160e01b81523060048201526000907f00000000000000000000000000000000000000000000000000000000000000006001600160a01b0316906370a0823190602401602060405180830381865afa15801561116b573d6000803e3d6000fd5b505050506040513d601f19601f8201168201806040525081019061118f91906135b8565b9050801561126857604051632e1a7d4d60e01b8152600481018290527f00000000000000000000000000000000000000000000000000000000000000006001600160a01b031690632e1a7d4d90602401600060405180830381600087803b1580156111f957600080fd5b505af115801561120d573d6000803e3d6000fd5b50506040516000925033915083908381818185875af1925050503d8060008114611253576040519150601f19603f3d011682016040523d82523d6000602084013e611258565b606091505b505090508061126657600080fd5b505b505b505060016002555050505050565b600060025460011461129d5760405163558a1e0360e11b815260040160405180910390fd5b60028055471580159061131f577f00000000000000000000000000000000000000000000000000000000000000006001600160a01b031663d0e30db0476040518263ffffffff1660e01b81526004016000604051808303818588803b15801561130557600080fd5b505af1158015611319573d6000803e3d6000fd5b50505050505b61133c61132b886124d3565b3330610ffa3688900388018861397a565b506000868661134a876137de565b6040516020016113719392919092835261ffff919091166020830152604082015260600190565b604051602081830303815290604052905060007f00000000000000000000000000000000000000000000000000000000000000006001600160a01b031663815483196000338c866040516020016113c9929190613a0e565b60408051601f19818403018152908290526113e8939291602001613a30565b6040516020818303038152906040526040518263ffffffff1660e01b8152600401611413919061305e565b6000604051808303816000875af1158015611432573d6000803e3d6000fd5b505050506040513d6000823e601f3d908101601f1916820160405261145a91908101906139d9565b90508080602001905181019061147091906135b8565b93506114856001600160a01b038a16336123df565b6040517f23b872dd000000000000000000000000000000000000000000000000000000008152306004820152336024820152604481018590527f00000000000000000000000000000000000000000000000000000000000000006001600160a01b0316906323b872dd90606401600060405180830381600087803b15801561150c57600080fd5b505af1158015611520573d6000803e3d6000fd5b5050505050508015611692576040516370a0823160e01b81523060048201526000907f00000000000000000000000000000000000000000000000000000000000000006001600160a01b0316906370a0823190602401602060405180830381865afa158015611593573d6000803e3d6000fd5b505050506040513d601f19601f820116820180604052508101906115b791906135b8565b9050801561169057604051632e1a7d4d60e01b8152600481018290527f00000000000000000000000000000000000000000000000000000000000000006001600160a01b031690632e1a7d4d90602401600060405180830381600087803b15801561162157600080fd5b505af1158015611635573d6000803e3d6000fd5b50506040516000925033915083908381818185875af1925050503d806000811461167b576040519150601f19603f3d011682016040523d82523d6000602084013e611680565b606091505b505090508061168e57600080fd5b505b505b50600160025595945050505050565b6116a9611af9565b6116b36000612537565b565b60015433906001600160a01b031681146116f25760405163118cdaa760e01b81526001600160a01b03821660048201526024015b60405180910390fd5b6116fb81612537565b50565b7fbc197c81000000000000000000000000000000000000000000000000000000005b95945050505050565b611731611af9565b600180546001600160a01b03831673ffffffffffffffffffffffffffffffffffffffff19909116811790915561176f6000546001600160a01b031690565b6001600160a01b03167f38d16b8cac22d99fc7c124b9cd0de2d3fa1faef420bfe791d8c362d765e2270060405160405180910390a350565b6040517fafdd9edc0000000000000000000000000000000000000000000000000000000081523360048201526000906001600160a01b037f0000000000000000000000000000000000000000000000000000000000000000169063afdd9edc90602401602060405180830381865afa158015611827573d6000803e3d6000fd5b505050506040513d601f19601f8201168201806040525081019061184b9190613401565b6001600160a01b03160361187257604051633006171960e21b815260040160405180910390fd5b6000336001600160a01b031663217a4b706040518163ffffffff1660e01b8152600401602060405180830381865afa1580156118b2573d6000803e3d6000fd5b505050506040513d601f19601f820116820180604052508101906118d69190613401565b604080516080810182526000918101828152606082018390528152602081018290529192509060608060008061190e888a018a613afc565b949a509298509096509450925090506001600160a01b03808e1690881603611956576119398b61255d565b6119439082613b97565b905061194f8b83613bbe565b915061196c565b61195f8a61255d565b6119699082613bd1565b90505b61197a868886868686611dbb565b8a15611994576119946001600160a01b038e16338d6125c0565b6040516370a0823160e01b81523060048201526000906001600160a01b038f16906370a0823190602401602060405180830381865afa1580156119db573d6000803e3d6000fd5b505050506040513d601f19601f820116820180604052508101906119ff91906135b8565b90508d6001600160a01b0316886001600160a01b031614158015611a235750600081115b15611ae9576000611a378760000151611b26565b90507f00000000000000000000000000000000000000000000000000000000000000006001600160a01b03166352aecb247f0000000000000000000000000000000000000000000000000000000000000000611a928a612634565b858c866040518663ffffffff1660e01b8152600401611ab5959493929190613bf9565b600060405180830381600087803b158015611acf57600080fd5b505af1158015611ae3573d6000803e3d6000fd5b50505050505b5050505050505050505050505050565b6000546001600160a01b031633146116b35760405163118cdaa760e01b81523360048201526024016116e9565b6060600082600001516001600160a01b03166395d89b416040518163ffffffff1660e01b8152600401600060405180830381865afa158015611b6c573d6000803e3d6000fd5b505050506040513d6000823e601f3d908101601f19168201604052611b949190810190613c3c565b90506000611ba9846020015161ffff16612649565b905060008282604051602001611bc0929190613c85565b604051602081830303815290604052611bd890613d07565b905060008383604051602001611bef929190613d2b565b604051602081830303815290604052611c0790613d07565b9050825184510160020280601e0183019250806006018201915050818187600001516001600160a01b031663313ce5676040518163ffffffff1660e01b8152600401602060405180830381865afa158015611c66573d6000803e3d6000fd5b505050506040513d601f19601f82011682018060405250810190611c8a9190613d83565b60f81b604051602001611cd29392919092835260208301919091527fff0000000000000000000000000000000000000000000000000000000000000016604082015260410190565b604051602081830303815290604052945050505050919050565b6000611cf7826126e9565b6040517fa50e72320000000000000000000000000000000000000000000000000000000081529091506001600160a01b037f0000000000000000000000000000000000000000000000000000000000000000169063a50e723290611d859030907f00000000000000000000000000000000000000000000000000000000000000009087908790600401613da0565b600060405180830381600087803b158015611d9f57600080fd5b505af1158015611db3573d6000803e3d6000fd5b505050505050565b825115611fb85760008360018551611dd39190613dde565b81518110611de357611de3613df1565b60200260200101519050600184510384526000878287878787604051602001611e1196959493929190613e07565b604051602081830303815290604052905060018551018552600060036000611e3885612634565b815260200190815260200160002060009054906101000a90046001600160a01b031690506000816001600160a01b031663c55dae636040518163ffffffff1660e01b8152600401602060405180830381865afa158015611e9c573d6000803e3d6000fd5b505050506040513d601f19601f82011682018060405250810190611ec09190613401565b6040516370a0823160e01b81523060048201526001600160a01b0391909116906370a0823190602401602060405180830381865afa158015611f06573d6000803e3d6000fd5b505050506040513d601f19601f82011682018060405250810190611f2a91906135b8565b8460200151611f399190613dde565b60405163168da99d60e31b81529091506001600160a01b0383169063b46d4ce890611f7d90309061ffff9067ffffffffffffffff9087906001908b90600401613e83565b600060405180830381600087803b158015611f9757600080fd5b505af1158015611fab573d6000803e3d6000fd5b5050505050505050611db3565b8351156120c15760008460018651611fd09190613dde565b81518110611fe057611fe0613df1565b6020026020010151905060018551038552600087828787878760405160200161200e96959493929190613e07565b60405160208183030381529060405290506001865101865260006003600061203585612634565b8152602080820192909252604090810160009081205492860151915163168da99d60e31b81526001600160a01b039093169350839263b46d4ce892612087923092909182916002908a90600401613e83565b600060405180830381600087803b1580156120a157600080fd5b505af11580156120b5573d6000803e3d6000fd5b50505050505050611db3565b60008112156120fc576040517ff271b55000000000000000000000000000000000000000000000000000000000815260040160405180910390fd5b611db36001600160a01b038616878461274f565b6000815167ffffffffffffffff81111561212c5761212c612e29565b604051908082528060200260200182016040528015612155578160200160208202803683370190505b5090506000825167ffffffffffffffff81111561217457612174612e29565b60405190808252806020026020018201604052801561219d578160200160208202803683370190505b50905060005b835181101561222f576121ce8482815181106121c1576121c1613df1565b6020026020010151612634565b8382815181106121e0576121e0613df1565b6020026020010181815250508381815181106121fe576121fe613df1565b60200260200101516020015182828151811061221c5761221c613df1565b60209081029190910101526001016121a3565b50600061223b846126e9565b6040517fa7eaa1860000000000000000000000000000000000000000000000000000000081529091506001600160a01b037f0000000000000000000000000000000000000000000000000000000000000000169063a7eaa186906122cb907f0000000000000000000000000000000000000000000000000000000000000000908790879030908890600401613f0b565b600060405180830381600087803b1580156122e557600080fd5b505af11580156122f9573d6000803e3d6000fd5b5050505050505050565b8351600090156123bc5784516020860151604080880151606089015191517f7ac2ff7b0000000000000000000000000000000000000000000000000000000081526001600160a01b03878116600483015260248201899052604482019590955260ff9093166064840152608483015260a482015290851690637ac2ff7b9060c401600060405180830381600087803b15801561239e57600080fd5b505af19250505080156123af575060015b156123bc575060016123c0565b5060005b949350505050565b6000611720856020015185876000015186866129b6565b6040516370a0823160e01b81523060048201526000906001600160a01b038416906370a0823190602401602060405180830381865afa158015612426573d6000803e3d6000fd5b505050506040513d601f19601f8201168201806040525081019061244a91906135b8565b905080156124ce576040517ffcd3533c000000000000000000000000000000000000000000000000000000008152600481018290526001600160a01b03838116602483015284169063fcd3533c90604401600060405180830381600087803b1580156124b557600080fd5b505af11580156124c9573d6000803e3d6000fd5b505050505b505050565b6000816001600160a01b0316632495a5996040518163ffffffff1660e01b8152600401602060405180830381865afa158015612513573d6000803e3d6000fd5b505050506040513d601f19601f8201168201806040525081019061037a9190613401565b6001805473ffffffffffffffffffffffffffffffffffffffff191690556116fb81612a83565b60007f7fffffffffffffffffffffffffffffffffffffffffffffffffffffffffffffff8211156125bc576040517f24775e06000000000000000000000000000000000000000000000000000000008152600481018390526024016116e9565b5090565b6040516001600160a01b038381166024830152604482018390526124ce91859182169063a9059cbb906064015b604051602081830303815290604052915060e01b6020820180517bffffffffffffffffffffffffffffffffffffffffffffffffffffffff8381831617835250505050612ae0565b80516020810151905160009160a01b0161037a565b6060600061265683612b5c565b600101905060008167ffffffffffffffff81111561267657612676612e29565b6040519080825280601f01601f1916602001820160405280156126a0576020820181803683370190505b5090508181016020015b600019017f3031323334353637383961626364656600000000000000000000000000000000600a86061a8153600a85049450846126aa57509392505050565b606060005b8251811015612749578161271e84838151811061270d5761270d613df1565b602002602001015160000151611b26565b60405160200161272f929190613f69565b60408051601f1981840301815291905291506001016126ee565b50919050565b6040516370a0823160e01b81523060048201526000906001600160a01b038516906370a0823190602401602060405180830381865afa158015612796573d6000803e3d6000fd5b505050506040513d601f19601f820116820180604052508101906127ba91906135b8565b90508181106127c95750505050565b6000846001600160a01b0316632495a5996040518163ffffffff1660e01b8152600401602060405180830381865afa158015612809573d6000803e3d6000fd5b505050506040513d601f19601f8201168201806040525081019061282d9190613401565b6040516370a0823160e01b81523060048201529091506000906001600160a01b038316906370a0823190602401602060405180830381865afa158015612877573d6000803e3d6000fd5b505050506040513d601f19601f8201168201806040525081019061289b91906135b8565b90508284039350838110156128c1576128c16001600160a01b0383168630848803612c3e565b60405163095ea7b360e01b81526001600160a01b0387811660048301526024820186905283169063095ea7b3906044016020604051808303816000875af1158015612910573d6000803e3d6000fd5b505050506040513d601f19601f8201168201806040525081019061293491906138b2565b506040517f94bf804d000000000000000000000000000000000000000000000000000000008152600481018590523060248201526001600160a01b038716906394bf804d90604401600060405180830381600087803b15801561299657600080fd5b505af11580156129aa573d6000803e3d6000fd5b50505050505050505050565b845160009015612a77578551602087015160408089015160608a015191517fd505accf0000000000000000000000000000000000000000000000000000000081526001600160a01b0388811660048301528781166024830152604482018a9052606482019590955260ff909316608484015260a483015260c48201529086169063d505accf9060e401600060405180830381600087803b158015612a5957600080fd5b505af1925050508015612a6a575060015b15612a7757506001611720565b50600095945050505050565b600080546001600160a01b0383811673ffffffffffffffffffffffffffffffffffffffff19831681178455604051919092169283917f8be0079c531659141344cd1fd0a4f28419497f9722a3daafe3b4186f6b6457e09190a35050565b6000612af56001600160a01b03841683612c7d565b90508051600014158015612b1a575080806020019051810190612b1891906138b2565b155b156124ce576040517f5274afe70000000000000000000000000000000000000000000000000000000081526001600160a01b03841660048201526024016116e9565b6000807a184f03e93ff9f4daa797ed6e38ed64bf6a1f0100000000000000008310612ba5577a184f03e93ff9f4daa797ed6e38ed64bf6a1f010000000000000000830492506040015b6d04ee2d6d415b85acef81000000008310612bd1576d04ee2d6d415b85acef8100000000830492506020015b662386f26fc100008310612bef57662386f26fc10000830492506010015b6305f5e1008310612c07576305f5e100830492506008015b6127108310612c1b57612710830492506004015b60648310612c2d576064830492506002015b600a831061037a5760010192915050565b6040516001600160a01b038481166024830152838116604483015260648201839052612c779186918216906323b872dd906084016125ed565b50505050565b6060612c8b83836000612c92565b9392505050565b606081471015612cd0576040517fcd7860590000000000000000000000000000000000000000000000000000000081523060048201526024016116e9565b600080856001600160a01b03168486604051612cec9190613f98565b60006040518083038185875af1925050503d8060008114612d29576040519150601f19603f3d011682016040523d82523d6000602084013e612d2e565b606091505b5091509150612d3e868383612d48565b9695505050505050565b606082612d5d57612d5882612dbd565b612c8b565b8151158015612d7457506001600160a01b0384163b155b15612db6576040517f9996b3150000000000000000000000000000000000000000000000000000000081526001600160a01b03851660048201526024016116e9565b5080612c8b565b805115612dcd5780518082602001fd5b6040517f1425ea4200000000000000000000000000000000000000000000000000000000815260040160405180910390fd5b600060208284031215612e1157600080fd5b81356001600160e01b031981168114612c8b57600080fd5b634e487b7160e01b600052604160045260246000fd5b6040805190810167ffffffffffffffff81118282101715612e6257612e62612e29565b60405290565b60405160a0810167ffffffffffffffff81118282101715612e6257612e62612e29565b604051601f8201601f1916810167ffffffffffffffff81118282101715612eb457612eb4612e29565b604052919050565b6001600160a01b03811681146116fb57600080fd5b61ffff811681146116fb57600080fd5b600060408284031215612ef357600080fd5b612efb612e3f565b90508135612f0881612ebc565b81526020820135612f1881612ed1565b602082015292915050565b60008060608385031215612f3657600080fd5b612f408484612ee1565b91506040830135612f5081612ebc565b809150509250929050565b600067ffffffffffffffff821115612f7557612f75612e29565b50601f01601f191660200190565b600082601f830112612f9457600080fd5b8135612fa7612fa282612f5b565b612e8b565b818152846020838601011115612fbc57600080fd5b816020850160208301376000918101602001919091529392505050565b600060208284031215612feb57600080fd5b813567ffffffffffffffff81111561300257600080fd5b6123c084828501612f83565b60005b83811015613029578181015183820152602001613011565b50506000910152565b6000815180845261304a81602086016020860161300e565b601f01601f19169290920160200192915050565b602081526000612c8b6020830184613032565b600060a0828403121561274957600080fd5b6000806000806000808688036101a081121561309e57600080fd5b873596506020880135955060408801356130b781612ed1565b9450606088013593506130cd8960808a01613071565b9250608061011f19820112156130e257600080fd5b50610120870190509295509295509295565b6000806000806000610120868803121561310d57600080fd5b853561311881612ebc565b945060208601359350604086013561312f81612ed1565b9250606086013591506131458760808801613071565b90509295509295909350565b600067ffffffffffffffff82111561316b5761316b612e29565b5060051b60200190565b600082601f83011261318657600080fd5b81356020613196612fa283613151565b8083825260208201915060208460051b8701019350868411156131b857600080fd5b602086015b848110156131d457803583529183019183016131bd565b509695505050505050565b600080600080600060a086880312156131f757600080fd5b853561320281612ebc565b9450602086013561321281612ebc565b9350604086013567ffffffffffffffff8082111561322f57600080fd5b61323b89838a01613175565b9450606088013591508082111561325157600080fd5b61325d89838a01613175565b9350608088013591508082111561327357600080fd5b5061328088828901612f83565b9150509295509295909350565b60006040828403121561329f57600080fd5b612c8b8383612ee1565b600080600080600060a086880312156132c157600080fd5b85356132cc81612ebc565b945060208601356132dc81612ebc565b93506040860135925060608601359150608086013567ffffffffffffffff81111561330657600080fd5b61328088828901612f83565b60006020828403121561332457600080fd5b8135612c8b81612ebc565b60008060008060008060a0878903121561334857600080fd5b863561335381612ebc565b9550602087013561336381612ebc565b94506040870135935060608701359250608087013567ffffffffffffffff8082111561338e57600080fd5b818901915089601f8301126133a257600080fd5b8135818111156133b157600080fd5b8a60208285010111156133c357600080fd5b6020830194508093505050509295509295509295565b6001600160a01b03841681528260208201526060604082015260006117206060830184613032565b60006020828403121561341357600080fd5b8151612c8b81612ebc565b80516fffffffffffffffffffffffffffffffff8116811461343e57600080fd5b919050565b600060a0828403121561345557600080fd5b61345d612e68565b825161346881612ebc565b815260208301516003811061347c57600080fd5b602082015261348d6040840161341e565b604082015261349e6060840161341e565b606082015260808301516134b181612ebc565b60808201529392505050565b60006134cb612fa284612f5b565b90508281528383830111156134df57600080fd5b612c8b83602083018461300e565b600082601f8301126134fe57600080fd5b612c8b838351602085016134bd565b60008060006060848603121561352257600080fd5b83519250602084015161353481612ebc565b604085015190925067ffffffffffffffff81111561355157600080fd5b61355d868287016134ed565b9150509250925092565b6000806040838503121561357a57600080fd5b825161358581612ebc565b602084015190925067ffffffffffffffff8111156135a257600080fd5b6135ae858286016134ed565b9150509250929050565b6000602082840312156135ca57600080fd5b5051919050565b8051801515811461343e57600080fd5b600060a082840312156135f357600080fd5b6135fb612e68565b825161360681612ebc565b8152602083015167ffffffffffffffff8116811461362357600080fd5b6020820152604083015161363681612ed1565b6040820152613647606084016135d1565b6060820152608083015160808201528091505092915050565b60008060006060848603121561367557600080fd5b83519250602084015161368781612ed1565b80925050604084015190509250925092565b600082601f8301126136aa57600080fd5b815160206136ba612fa283613151565b828152606092830285018201928282019190878511156136d957600080fd5b8387015b8581101561374e57808903828112156136f65760008081fd5b6136fe612e3f565b60408083121561370e5760008081fd5b613716612e3f565b9250835161372381612ebc565b83528388015161373281612ed1565b83890152918152908201518187015284529284019281016136dd565b5090979650505050505050565b60008060006060848603121561377057600080fd5b835167ffffffffffffffff8082111561378857600080fd5b61379487838801613699565b945060208601519150808211156137aa57600080fd5b506137b786828701613699565b925050604084015190509250925092565b634e487b7160e01b600052601160045260246000fd5b60007f8000000000000000000000000000000000000000000000000000000000000000820361380f5761380f6137c8565b5060000390565b60008151808452602080850194506020840160005b8381101561386b578151805180516001600160a01b0316895260209081015161ffff16818a0152015160408801526060909601959082019060010161382b565b509495945050505050565b6060815260006138896060830185613816565b6001600160a01b0384166020840152828103604084015260008152602081019150509392505050565b6000602082840312156138c457600080fd5b612c8b826135d1565b602081526000612c8b6020830184613816565b60ff811681146116fb57600080fd5b60006080828403121561390157600080fd5b6040516080810181811067ffffffffffffffff8211171561392457613924612e29565b60405282358152905080602083013561393c816138e0565b8060208301525060408301356040820152606083013560608201525092915050565b60006080828403121561397057600080fd5b612c8b83836138ef565b600060a0828403121561398c57600080fd5b613994612e3f565b823581526139a584602085016138ef565b60208201529392505050565b8381526001600160a01b03831660208201526060604082015260006117206060830184613032565b6000602082840312156139eb57600080fd5b815167ffffffffffffffff811115613a0257600080fd5b6123c0848285016134ed565b6001600160a01b03831681526040602082015260006123c06040830184613032565b60ff841681526001600160a01b03831660208201526060604082015260006117206060830184613032565b600060608284031215613a6d57600080fd5b613a75612e3f565b9050613a818383612ee1565b81526040820135602082015292915050565b600082601f830112613aa457600080fd5b81356020613ab4612fa283613151565b808382526020820191506060602060608602880101945087851115613ad857600080fd5b602087015b8581101561374e57613aef8982613a5b565b8452928401928101613add565b6000806000806000806101008789031215613b1657600080fd5b8635613b2181612ebc565b9550613b308860208901613a5b565b9450608087013567ffffffffffffffff80821115613b4d57600080fd5b613b598a838b01613a93565b955060a0890135915080821115613b6f57600080fd5b50613b7c89828a01613a93565b93505060c0870135915060e087013590509295509295509295565b8181036000831280158383131683831282161715613bb757613bb76137c8565b5092915050565b8082018082111561037a5761037a6137c8565b8082018281126000831280158216821582161715613bf157613bf16137c8565b505092915050565b60006001600160a01b03808816835286602084015285604084015280851660608401525060a06080830152613c3160a0830184613032565b979650505050505050565b600060208284031215613c4e57600080fd5b815167ffffffffffffffff811115613c6557600080fd5b8201601f81018413613c7657600080fd5b6123c0848251602084016134bd565b60008351613c9781846020880161300e565b7f20426f6e6420436f75706f6e20280000000000000000000000000000000000009083019081528351613cd181600e84016020880161300e565b7f2900000000000000000000000000000000000000000000000000000000000000600e9290910191820152600f01949350505050565b805160208083015191908110156127495760001960209190910360031b1b16919050565b60008351613d3d81846020880161300e565b7f2d435000000000000000000000000000000000000000000000000000000000009083019081528351613d7781600384016020880161300e565b01600301949350505050565b600060208284031215613d9557600080fd5b8151612c8b816138e0565b60006001600160a01b03808716835280861660208401525060806040830152613dcc6080830185613816565b8281036060840152613c318185613032565b8181038181111561037a5761037a6137c8565b634e487b7160e01b600052603260045260246000fd5b60006101006001600160a01b0389168352613e476020840189805180516001600160a01b0316835260209081015161ffff16818401520151604090910152565b806080840152613e5981840188613816565b905082810360a0840152613e6d8187613816565b60c0840195909552505060e00152949350505050565b6001600160a01b038716815261ffff8616602082015267ffffffffffffffff8516604082015283606082015260ff8316608082015260c060a08201526000613ece60c0830184613032565b98975050505050505050565b60008151808452602080850194506020840160005b8381101561386b57815187529582019590820190600101613eef565b60006001600160a01b03808816835260a06020840152613f2e60a0840188613eda565b8381036040850152613f408188613eda565b905081861660608501528381036080850152613f5c8186613032565b9998505050505050505050565b60008351613f7b81846020880161300e565b835190830190613f8f81836020880161300e565b01949350505050565b60008251613faa81846020870161300e565b919091019291505056fea2646970667358221220213be9db5d3f41b395596888f5560307534b442d171fe6609d06318d1901139364736f6c63430008170033",
  "devdoc": {
    "errors": {
      "AddressEmptyCode(address)": [
        {
          "details": "There's no code at `target` (it is not a contract)."
        }
      ],
      "AddressInsufficientBalance(address)": [
        {
          "details": "The ETH balance of the account is not enough to perform the operation."
        }
      ],
      "FailedInnerCall()": [
        {
          "details": "A call to an address target failed. The target may have reverted."
        }
      ],
      "OwnableInvalidOwner(address)": [
        {
          "details": "The owner is not a valid owner account. (eg. `address(0)`)"
        }
      ],
      "OwnableUnauthorizedAccount(address)": [
        {
          "details": "The caller account is not authorized to perform an operation."
        }
      ],
      "SafeCastOverflowedUintToInt(uint256)": [
        {
          "details": "An uint value doesn't fit in an int of `bits` size."
        }
      ],
      "SafeERC20FailedOperation(address)": [
        {
          "details": "An operation with an ERC20 token failed."
        }
      ]
    },
    "kind": "dev",
    "methods": {
      "acceptOwnership()": {
        "details": "The new owner accepts the ownership transfer."
      },
      "owner()": {
        "details": "Returns the address of the current owner."
      },
      "pendingOwner()": {
        "details": "Returns the address of the pending owner."
      },
      "renounceOwnership()": {
        "details": "Leaves the contract without owner. It will not be possible to call `onlyOwner` functions. Can only be called by the current owner. NOTE: Renouncing ownership will leave the contract without an owner, thereby disabling any functionality that is only available to the owner."
      },
      "supportsInterface(bytes4)": {
        "details": "See {IERC165-supportsInterface}."
      },
      "transferOwnership(address)": {
        "details": "Starts the ownership transfer of the contract to a new account. Replaces the pending transfer if there is one. Can only be called by the current owner."
      }
    },
    "version": 1
  },
  "userdoc": {
    "kind": "user",
    "methods": {},
    "version": 1
  },
  "storageLayout": {
    "storage": [
      {
        "astId": 8,
        "contract": "contracts/DepositController.sol:DepositController",
        "label": "_owner",
        "offset": 0,
        "slot": "0",
        "type": "t_address"
      },
      {
        "astId": 156,
        "contract": "contracts/DepositController.sol:DepositController",
        "label": "_pendingOwner",
        "offset": 0,
        "slot": "1",
        "type": "t_address"
      },
      {
        "astId": 11164,
        "contract": "contracts/DepositController.sol:DepositController",
        "label": "_locked",
        "offset": 0,
        "slot": "2",
        "type": "t_uint256"
      },
      {
        "astId": 9290,
        "contract": "contracts/DepositController.sol:DepositController",
        "label": "_couponMarkets",
        "offset": 0,
        "slot": "3",
        "type": "t_mapping(t_uint256,t_address)"
      }
    ],
    "types": {
      "t_address": {
        "encoding": "inplace",
        "label": "address",
        "numberOfBytes": "20"
      },
      "t_mapping(t_uint256,t_address)": {
        "encoding": "mapping",
        "key": "t_uint256",
        "label": "mapping(uint256 => address)",
        "numberOfBytes": "32",
        "value": "t_address"
      },
      "t_uint256": {
        "encoding": "inplace",
        "label": "uint256",
        "numberOfBytes": "32"
      }
    }
  }
}