{
  "address": "0x2fB42Aaa3b32Fb5DdD86E4CbCff9d9643359A757",
  "abi": [
    {
      "inputs": [
        {
          "internalType": "address",
          "name": "weth",
          "type": "address"
        }
      ],
      "stateMutability": "nonpayable",
      "type": "constructor"
    },
    {
      "inputs": [
        {
          "internalType": "contract ISubstitute",
          "name": "substitute",
          "type": "address"
        },
        {
          "internalType": "address",
          "name": "recipient",
          "type": "address"
        }
      ],
      "name": "mint",
      "outputs": [],
      "stateMutability": "payable",
      "type": "function"
    }
  ],
  "transactionHash": "0x67e2f03526e1adf34897e0fdddc51928ce25f2128e79cd9247363e13f082a152",
  "args": [
    "0x82aF49447D8a07e3bd95BD0d56f35241523fBab1"
  ],
  "numDeployments": 1,
  "solcInputHash": "6ee56211a49e2a040139762a5247a157",
  "bytecode": "0x60a060405234801561001057600080fd5b5060405161034c38038061034c83398101604081905261002f91610040565b6001600160a01b0316608052610070565b60006020828403121561005257600080fd5b81516001600160a01b038116811461006957600080fd5b9392505050565b6080516102bb61009160003960008181603a015261010101526102bb6000f3fe60806040526004361061001e5760003560e01c8063ee1fe2ad14610023575b600080fd5b610036610031366004610223565b610038565b005b7f000000000000000000000000000000000000000000000000000000000000000073ffffffffffffffffffffffffffffffffffffffff1663d0e30db0346040518263ffffffff1660e01b81526004016000604051808303818588803b1580156100a057600080fd5b505af11580156100b4573d6000803e3d6000fd5b50506040517f095ea7b300000000000000000000000000000000000000000000000000000000815273ffffffffffffffffffffffffffffffffffffffff86811660048301523460248301527f000000000000000000000000000000000000000000000000000000000000000016935063095ea7b3925060440190506020604051808303816000875af115801561014e573d6000803e3d6000fd5b505050506040513d601f19601f82011682018060405250810190610172919061025c565b506040517f94bf804d00000000000000000000000000000000000000000000000000000000815234600482015273ffffffffffffffffffffffffffffffffffffffff82811660248301528316906394bf804d90604401600060405180830381600087803b1580156101e257600080fd5b505af11580156101f6573d6000803e3d6000fd5b505050505050565b73ffffffffffffffffffffffffffffffffffffffff8116811461022057600080fd5b50565b6000806040838503121561023657600080fd5b8235610241816101fe565b91506020830135610251816101fe565b809150509250929050565b60006020828403121561026e57600080fd5b8151801515811461027e57600080fd5b939250505056fea2646970667358221220b4a73bf0b45792c84ddbee58fff2cdf8f90545ba83211e002187e732b1dc52e364736f6c63430008170033",
  "devdoc": {
    "kind": "dev",
    "methods": {},
    "version": 1
  },
  "userdoc": {
    "kind": "user",
    "methods": {},
    "version": 1
  },
  "storageLayout": {
    "storage": [],
    "types": null
  }
}