{
  "address": "0x2EA069EB48De599BBd490a07A2Ea9BD9730F7475",
  "abi": [
    {
      "inputs": [
        {
          "internalType": "address",
          "name": "weth_",
          "type": "address"
        },
        {
          "internalType": "address",
          "name": "bondPositionManager_",
          "type": "address"
        },
        {
          "internalType": "address",
          "name": "couponManager_",
          "type": "address"
        },
        {
          "internalType": "address",
          "name": "couponWrapper_",
          "type": "address"
        },
        {
          "internalType": "address",
          "name": "owner_",
          "type": "address"
        }
      ],
      "stateMutability": "nonpayable",
      "type": "constructor"
    },
    {
      "inputs": [
        {
          "internalType": "address",
          "name": "target",
          "type": "address"
        }
      ],
      "name": "AddressEmptyCode",
      "type": "error"
    },
    {
      "inputs": [
        {
          "internalType": "address",
          "name": "account",
          "type": "address"
        }
      ],
      "name": "AddressInsufficientBalance",
      "type": "error"
    },
    {
      "inputs": [],
      "name": "FailedInnerCall",
      "type": "error"
    },
    {
      "inputs": [],
      "name": "InvalidAccess",
      "type": "error"
    },
    {
      "inputs": [],
      "name": "InvalidValueTransfer",
      "type": "error"
    },
    {
      "inputs": [
        {
          "internalType": "address",
          "name": "owner",
          "type": "address"
        }
      ],
      "name": "OwnableInvalidOwner",
      "type": "error"
    },
    {
      "inputs": [
        {
          "internalType": "address",
          "name": "account",
          "type": "address"
        }
      ],
      "name": "OwnableUnauthorizedAccount",
      "type": "error"
    },
    {
      "inputs": [
        {
          "internalType": "address",
          "name": "token",
          "type": "address"
        }
      ],
      "name": "SafeERC20FailedOperation",
      "type": "error"
    },
    {
      "anonymous": false,
      "inputs": [
        {
          "indexed": true,
          "internalType": "address",
          "name": "previousOwner",
          "type": "address"
        },
        {
          "indexed": true,
          "internalType": "address",
          "name": "newOwner",
          "type": "address"
        }
      ],
      "name": "OwnershipTransferStarted",
      "type": "event"
    },
    {
      "anonymous": false,
      "inputs": [
        {
          "indexed": true,
          "internalType": "address",
          "name": "previousOwner",
          "type": "address"
        },
        {
          "indexed": true,
          "internalType": "address",
          "name": "newOwner",
          "type": "address"
        }
      ],
      "name": "OwnershipTransferred",
      "type": "event"
    },
    {
      "inputs": [],
      "name": "acceptOwnership",
      "outputs": [],
      "stateMutability": "nonpayable",
      "type": "function"
    },
    {
      "inputs": [
        {
          "components": [
            {
              "internalType": "uint256",
              "name": "permitAmount",
              "type": "uint256"
            },
            {
              "components": [
                {
                  "internalType": "uint256",
                  "name": "deadline",
                  "type": "uint256"
                },
                {
                  "internalType": "uint8",
                  "name": "v",
                  "type": "uint8"
                },
                {
                  "internalType": "bytes32",
                  "name": "r",
                  "type": "bytes32"
                },
                {
                  "internalType": "bytes32",
                  "name": "s",
                  "type": "bytes32"
                }
              ],
              "internalType": "struct PermitSignature",
              "name": "signature",
              "type": "tuple"
            }
          ],
          "internalType": "struct ERC20PermitParams",
          "name": "tokenPermitParams",
          "type": "tuple"
        },
        {
          "components": [
            {
              "internalType": "uint256",
              "name": "deadline",
              "type": "uint256"
            },
            {
              "internalType": "uint8",
              "name": "v",
              "type": "uint8"
            },
            {
              "internalType": "bytes32",
              "name": "r",
              "type": "bytes32"
            },
            {
              "internalType": "bytes32",
              "name": "s",
              "type": "bytes32"
            }
          ],
          "internalType": "struct PermitSignature",
          "name": "positionPermitParams",
          "type": "tuple"
        },
        {
          "components": [
            {
              "internalType": "uint256",
              "name": "deadline",
              "type": "uint256"
            },
            {
              "internalType": "uint8",
              "name": "v",
              "type": "uint8"
            },
            {
              "internalType": "bytes32",
              "name": "r",
              "type": "bytes32"
            },
            {
              "internalType": "bytes32",
              "name": "s",
              "type": "bytes32"
            }
          ],
          "internalType": "struct PermitSignature",
          "name": "couponPermitParams",
          "type": "tuple"
        },
        {
          "internalType": "uint256",
          "name": "tokenId",
          "type": "uint256"
        },
        {
          "internalType": "uint256",
          "name": "amount",
          "type": "uint256"
        },
        {
          "internalType": "Epoch",
          "name": "expiredWith",
          "type": "uint16"
        }
      ],
      "name": "adjust",
      "outputs": [],
      "stateMutability": "payable",
      "type": "function"
    },
    {
      "inputs": [
        {
          "components": [
            {
              "internalType": "uint256",
              "name": "permitAmount",
              "type": "uint256"
            },
            {
              "components": [
                {
                  "internalType": "uint256",
                  "name": "deadline",
                  "type": "uint256"
                },
                {
                  "internalType": "uint8",
                  "name": "v",
                  "type": "uint8"
                },
                {
                  "internalType": "bytes32",
                  "name": "r",
                  "type": "bytes32"
                },
                {
                  "internalType": "bytes32",
                  "name": "s",
                  "type": "bytes32"
                }
              ],
              "internalType": "struct PermitSignature",
              "name": "signature",
              "type": "tuple"
            }
          ],
          "internalType": "struct ERC20PermitParams",
          "name": "tokenPermitParams",
          "type": "tuple"
        },
        {
          "components": [
            {
              "internalType": "uint256",
              "name": "deadline",
              "type": "uint256"
            },
            {
              "internalType": "uint8",
              "name": "v",
              "type": "uint8"
            },
            {
              "internalType": "bytes32",
              "name": "r",
              "type": "bytes32"
            },
            {
              "internalType": "bytes32",
              "name": "s",
              "type": "bytes32"
            }
          ],
          "internalType": "struct PermitSignature",
          "name": "positionPermitParams",
          "type": "tuple"
        },
        {
          "components": [
            {
              "internalType": "uint256",
              "name": "deadline",
              "type": "uint256"
            },
            {
              "internalType": "uint8",
              "name": "v",
              "type": "uint8"
            },
            {
              "internalType": "bytes32",
              "name": "r",
              "type": "bytes32"
            },
            {
              "internalType": "bytes32",
              "name": "s",
              "type": "bytes32"
            }
          ],
          "internalType": "struct PermitSignature",
          "name": "couponPermitParams",
          "type": "tuple"
        },
        {
          "internalType": "uint256",
          "name": "tokenId",
          "type": "uint256"
        },
        {
          "internalType": "uint256",
          "name": "amount",
          "type": "uint256"
        },
        {
          "internalType": "Epoch",
          "name": "expiredWith",
          "type": "uint16"
        }
      ],
      "name": "adjustAndWrapCoupons",
      "outputs": [],
      "stateMutability": "payable",
      "type": "function"
    },
    {
      "inputs": [
        {
          "components": [
            {
              "internalType": "uint256",
              "name": "permitAmount",
              "type": "uint256"
            },
            {
              "components": [
                {
                  "internalType": "uint256",
                  "name": "deadline",
                  "type": "uint256"
                },
                {
                  "internalType": "uint8",
                  "name": "v",
                  "type": "uint8"
                },
                {
                  "internalType": "bytes32",
                  "name": "r",
                  "type": "bytes32"
                },
                {
                  "internalType": "bytes32",
                  "name": "s",
                  "type": "bytes32"
                }
              ],
              "internalType": "struct PermitSignature",
              "name": "signature",
              "type": "tuple"
            }
          ],
          "internalType": "struct ERC20PermitParams",
          "name": "permitParams",
          "type": "tuple"
        },
        {
          "internalType": "address",
          "name": "asset",
          "type": "address"
        },
        {
          "internalType": "uint256",
          "name": "amount",
          "type": "uint256"
        },
        {
          "internalType": "Epoch",
          "name": "expiredWith",
          "type": "uint16"
        }
      ],
      "name": "mint",
      "outputs": [
        {
          "internalType": "uint256",
          "name": "",
          "type": "uint256"
        }
      ],
      "stateMutability": "payable",
      "type": "function"
    },
    {
      "inputs": [
        {
          "components": [
            {
              "internalType": "uint256",
              "name": "permitAmount",
              "type": "uint256"
            },
            {
              "components": [
                {
                  "internalType": "uint256",
                  "name": "deadline",
                  "type": "uint256"
                },
                {
                  "internalType": "uint8",
                  "name": "v",
                  "type": "uint8"
                },
                {
                  "internalType": "bytes32",
                  "name": "r",
                  "type": "bytes32"
                },
                {
                  "internalType": "bytes32",
                  "name": "s",
                  "type": "bytes32"
                }
              ],
              "internalType": "struct PermitSignature",
              "name": "signature",
              "type": "tuple"
            }
          ],
          "internalType": "struct ERC20PermitParams",
          "name": "permitParams",
          "type": "tuple"
        },
        {
          "internalType": "address",
          "name": "asset",
          "type": "address"
        },
        {
          "internalType": "uint256",
          "name": "amount",
          "type": "uint256"
        },
        {
          "internalType": "Epoch",
          "name": "expiredWith",
          "type": "uint16"
        }
      ],
      "name": "mintAndWrapCoupons",
      "outputs": [
        {
          "internalType": "uint256",
          "name": "",
          "type": "uint256"
        }
      ],
      "stateMutability": "payable",
      "type": "function"
    },
    {
      "inputs": [
        {
          "internalType": "address",
          "name": "",
          "type": "address"
        },
        {
          "internalType": "address",
          "name": "",
          "type": "address"
        },
        {
          "internalType": "uint256[]",
          "name": "",
          "type": "uint256[]"
        },
        {
          "internalType": "uint256[]",
          "name": "",
          "type": "uint256[]"
        },
        {
          "internalType": "bytes",
          "name": "",
          "type": "bytes"
        }
      ],
      "name": "onERC1155BatchReceived",
      "outputs": [
        {
          "internalType": "bytes4",
          "name": "",
          "type": "bytes4"
        }
      ],
      "stateMutability": "nonpayable",
      "type": "function"
    },
    {
      "inputs": [
        {
          "internalType": "address",
          "name": "",
          "type": "address"
        },
        {
          "internalType": "address",
          "name": "",
          "type": "address"
        },
        {
          "internalType": "uint256",
          "name": "",
          "type": "uint256"
        },
        {
          "internalType": "uint256",
          "name": "",
          "type": "uint256"
        },
        {
          "internalType": "bytes",
          "name": "",
          "type": "bytes"
        }
      ],
      "name": "onERC1155Received",
      "outputs": [
        {
          "internalType": "bytes4",
          "name": "",
          "type": "bytes4"
        }
      ],
      "stateMutability": "nonpayable",
      "type": "function"
    },
    {
      "inputs": [],
      "name": "owner",
      "outputs": [
        {
          "internalType": "address",
          "name": "",
          "type": "address"
        }
      ],
      "stateMutability": "view",
      "type": "function"
    },
    {
      "inputs": [],
      "name": "pendingOwner",
      "outputs": [
        {
          "internalType": "address",
          "name": "",
          "type": "address"
        }
      ],
      "stateMutability": "view",
      "type": "function"
    },
    {
      "inputs": [
        {
          "internalType": "bytes",
          "name": "data",
          "type": "bytes"
        }
      ],
      "name": "positionLockAcquired",
      "outputs": [
        {
          "internalType": "bytes",
          "name": "result",
          "type": "bytes"
        }
      ],
      "stateMutability": "nonpayable",
      "type": "function"
    },
    {
      "inputs": [],
      "name": "renounceOwnership",
      "outputs": [],
      "stateMutability": "nonpayable",
      "type": "function"
    },
    {
      "inputs": [
        {
          "internalType": "bytes4",
          "name": "interfaceId",
          "type": "bytes4"
        }
      ],
      "name": "supportsInterface",
      "outputs": [
        {
          "internalType": "bool",
          "name": "",
          "type": "bool"
        }
      ],
      "stateMutability": "view",
      "type": "function"
    },
    {
      "inputs": [
        {
          "internalType": "address",
          "name": "newOwner",
          "type": "address"
        }
      ],
      "name": "transferOwnership",
      "outputs": [],
      "stateMutability": "nonpayable",
      "type": "function"
    },
    {
      "inputs": [
        {
          "internalType": "address",
          "name": "token",
          "type": "address"
        },
        {
          "internalType": "address",
          "name": "to",
          "type": "address"
        }
      ],
      "name": "withdrawLostToken",
      "outputs": [],
      "stateMutability": "nonpayable",
      "type": "function"
    }
  ],
  "transactionHash": "0x4befc71421f190a4f1c10bd10553e5c401bd5c5f46526f7fbb736e24ec8a582d",
  "args": [
    "0x82aF49447D8a07e3bd95BD0d56f35241523fBab1",
    "0x0Cf91Bc7a67B063142C029a69fF9C8ccd93476E2",
    "0x8bbcA766D175aDbffB073832262990df1c5ef748",
    "0xc5577988Cc8A49ecF6A48c8e84717E481E3bF57b",
    "0x1689FD73FfC888d47D201b72B0ae7A83c20fA274"
  ],
  "numDeployments": 1,
  "solcInputHash": "6ee56211a49e2a040139762a5247a157",
  "bytecode": "0x6101006040523480156200001257600080fd5b506040516200280038038062002800833981016040819052620000359162000184565b806001600160a01b0381166200006557604051631e4fbdf760e01b81526000600482015260240160405180910390fd5b6200007081620000f9565b506001600160a01b0385811660805284811660a05283811660c081905290831660e081905260405163a22cb46560e01b815260048101919091526001602482015263a22cb46590604401600060405180830381600087803b158015620000d557600080fd5b505af1158015620000ea573d6000803e3d6000fd5b505050505050505050620001f4565b600180546001600160a01b0319169055620001148162000117565b50565b600080546001600160a01b038381166001600160a01b0319831681178455604051919092169283917f8be0079c531659141344cd1fd0a4f28419497f9722a3daafe3b4186f6b6457e09190a35050565b80516001600160a01b03811681146200017f57600080fd5b919050565b600080600080600060a086880312156200019d57600080fd5b620001a88662000167565b9450620001b86020870162000167565b9350620001c86040870162000167565b9250620001d86060870162000167565b9150620001e86080870162000167565b90509295509295909350565b60805160a05160c05160e0516125626200029e6000396000610944015260008181610a6c01526113b1015260008181610404015281816104ba0152818161059d015281816106480152818161070401528181610778015281816108ad015281816109cb01528181610b0501528181610b9e01528181610f2301528181611013015281816113730152818161141f015261154f015260008181610def01526112fb01526125626000f3fe6080604052600436106100dd5760003560e01c806379ba50971161007f578063c497f29d11610059578063c497f29d14610242578063e30c397814610255578063f23a6e6114610273578063f2fde38b146102b857600080fd5b806379ba5097146101c25780638da5cb5b146101d7578063bc197c811461020957600080fd5b80631dc778d3116100bb5780631dc778d31461015a57806346a114e21461016d5780634f2c530b1461019a578063715018a6146101ad57600080fd5b806301ffc9a7146100e257806304cb499b146101175780631c31ae5f14610139575b600080fd5b3480156100ee57600080fd5b506101026100fd366004611adc565b6102d8565b60405190151581526020015b60405180910390f35b34801561012357600080fd5b50610137610132366004611b1b565b610341565b005b61014c610147366004611b7c565b6103cc565b60405190815260200161010e565b61014c610168366004611b7c565b6103e7565b34801561017957600080fd5b5061018d610188366004611bcf565b6103f7565b60405161010e9190611c65565b6101376101a8366004611caa565b610c11565b3480156101b957600080fd5b50610137610c29565b3480156101ce57600080fd5b50610137610c3d565b3480156101e357600080fd5b506000546001600160a01b03165b6040516001600160a01b03909116815260200161010e565b34801561021557600080fd5b50610229610224366004611e98565b610c86565b6040516001600160e01b0319909116815260200161010e565b610137610250366004611caa565b610cb1565b34801561026157600080fd5b506001546001600160a01b03166101f1565b34801561027f57600080fd5b5061022961028e366004611f46565b7ff23a6e610000000000000000000000000000000000000000000000000000000095945050505050565b3480156102c457600080fd5b506101376102d3366004611faf565b610cc1565b60006001600160e01b031982167f4e2312e000000000000000000000000000000000000000000000000000000000148061033b57507f01ffc9a7000000000000000000000000000000000000000000000000000000006001600160e01b03198316145b92915050565b610349610d3f565b6040516370a0823160e01b81523060048201526103c89082906001600160a01b038516906370a0823190602401602060405180830381865afa158015610393573d6000803e3d6000fd5b505050506040513d601f19601f820116820180604052508101906103b79190611fcc565b6001600160a01b0385169190610d6c565b5050565b60006103dc858585856000610de5565b90505b949350505050565b60006103dc858585856001610de5565b6060336001600160a01b037f0000000000000000000000000000000000000000000000000000000000000000161461045b576040517fc0185c6400000000000000000000000000000000000000000000000000000000815260040160405180910390fd5b6000808080808061046e888a018a611ff3565b9550955095509550955095508460000361054e576040517f6a6278420000000000000000000000000000000000000000000000000000000081526001600160a01b0382811660048301527f00000000000000000000000000000000000000000000000000000000000000001690636a627842906024016020604051808303816000875af1158015610503573d6000803e3d6000fd5b505050506040513d601f19601f820116820180604052508101906105279190611fcc565b94508460405160200161053c91815260200190565b60405160208183030381529060405296505b6040517f7c6af77d000000000000000000000000000000000000000000000000000000008152600481018690526024810185905261ffff84166044820152600090819081906001600160a01b037f00000000000000000000000000000000000000000000000000000000000000001690637c6af77d906064016000604051808303816000875af11580156105e6573d6000803e3d6000fd5b505050506040513d6000823e601f3d908101601f1916820160405261060e9190810190612117565b9250925092506000811315610765576106316001600160a01b0385168a83611082565b60405163095ea7b360e01b81526001600160a01b037f0000000000000000000000000000000000000000000000000000000000000000811660048301526024820183905285169063095ea7b3906044016020604051808303816000875af11580156106a0573d6000803e3d6000fd5b505050506040513d601f19601f820116820180604052508101906106c49190612184565b506040517f338b5dea0000000000000000000000000000000000000000000000000000000081526001600160a01b038581166004830152602482018390527f0000000000000000000000000000000000000000000000000000000000000000169063338b5dea90604401600060405180830381600087803b15801561074857600080fd5b505af115801561075c573d6000803e3d6000fd5b50505050610889565b6000811215610889576001600160a01b037f0000000000000000000000000000000000000000000000000000000000000000166301e3366785306107a8856121b7565b6040516001600160e01b031960e086901b1681526001600160a01b0393841660048201529290911660248301526044820152606401600060405180830381600087803b1580156107f757600080fd5b505af115801561080b573d6000803e3d6000fd5b50505050836001600160a01b031663fcd3533c82610828906121b7565b6040516001600160e01b031960e084901b16815260048101919091526001600160a01b038c166024820152604401600060405180830381600087803b15801561087057600080fd5b505af1158015610884573d6000803e3d6000fd5b505050505b825115610a355784156109b4576040516365ae584760e01b81526001600160a01b037f000000000000000000000000000000000000000000000000000000000000000016906365ae5847906108e4908690309060040161224c565b600060405180830381600087803b1580156108fe57600080fd5b505af1158015610912573d6000803e3d6000fd5b50506040517f34b408750000000000000000000000000000000000000000000000000000000081526001600160a01b037f00000000000000000000000000000000000000000000000000000000000000001692506334b40875915061097d9086908d90600401612288565b600060405180830381600087803b15801561099757600080fd5b505af11580156109ab573d6000803e3d6000fd5b50505050610a35565b6040516365ae584760e01b81526001600160a01b037f000000000000000000000000000000000000000000000000000000000000000016906365ae584790610a029086908d9060040161224c565b600060405180830381600087803b158015610a1c57600080fd5b505af1158015610a30573d6000803e3d6000fd5b505050505b815115610b6f576040517fa50e72320000000000000000000000000000000000000000000000000000000081526001600160a01b037f0000000000000000000000000000000000000000000000000000000000000000169063a50e723290610aa5908c90309087906004016122b3565b600060405180830381600087803b158015610abf57600080fd5b505af1158015610ad3573d6000803e3d6000fd5b50506040517fe6ee95e20000000000000000000000000000000000000000000000000000000081526001600160a01b037f000000000000000000000000000000000000000000000000000000000000000016925063e6ee95e29150610b3c9085906004016122fa565b600060405180830381600087803b158015610b5657600080fd5b505af1158015610b6a573d6000803e3d6000fd5b505050505b6040517faba5b4b3000000000000000000000000000000000000000000000000000000008152600481018990527f00000000000000000000000000000000000000000000000000000000000000006001600160a01b03169063aba5b4b390602401600060405180830381600087803b158015610bea57600080fd5b505af1158015610bfe573d6000803e3d6000fd5b5050505050505050505050505092915050565b610c2186868686868660006112f3565b505050505050565b610c31610d3f565b610c3b60006115eb565b565b60015433906001600160a01b03168114610c7a5760405163118cdaa760e01b81526001600160a01b03821660048201526024015b60405180910390fd5b610c83816115eb565b50565b7fbc197c81000000000000000000000000000000000000000000000000000000005b95945050505050565b610c2186868686868660016112f3565b610cc9610d3f565b600180546001600160a01b03831673ffffffffffffffffffffffffffffffffffffffff199091168117909155610d076000546001600160a01b031690565b6001600160a01b03167f38d16b8cac22d99fc7c124b9cd0de2d3fa1faef420bfe791d8c362d765e2270060405160405180910390a350565b6000546001600160a01b03163314610c3b5760405163118cdaa760e01b8152336004820152602401610c71565b6040516001600160a01b03838116602483015260448201839052610de091859182169063a9059cbb906064015b604051602081830303815290604052915060e01b6020820180517bffffffffffffffffffffffffffffffffffffffffffffffffffffffff8381831617835250505050611611565b505050565b60004715610e62577f00000000000000000000000000000000000000000000000000000000000000006001600160a01b031663d0e30db0476040518263ffffffff1660e01b81526004016000604051808303818588803b158015610e4857600080fd5b505af1158015610e5c573d6000803e3d6000fd5b50505050505b6000856001600160a01b0316632495a5996040518163ffffffff1660e01b8152600401602060405180830381865afa158015610ea2573d6000803e3d6000fd5b505050506040513d601f19601f82011682018060405250810190610ec6919061230d565b9050610ee5813330610edd368c90038c018c61239f565b92919061168d565b506040805133602082015260009181018290526060810187905261ffff8616608082015284151560a08201526001600160a01b0388811660c08301527f0000000000000000000000000000000000000000000000000000000000000000169063815483199060e0016040516020818303038152906040526040518263ffffffff1660e01b8152600401610f789190611c65565b6000604051808303816000875af1158015610f97573d6000803e3d6000fd5b505050506040513d6000823e601f3d908101601f19168201604052610fbf91908101906123d6565b905080806020019051810190610fd59190611fcc565b6040517f23b872dd000000000000000000000000000000000000000000000000000000008152306004820152336024820152604481018290529093507f00000000000000000000000000000000000000000000000000000000000000006001600160a01b0316906323b872dd90606401600060405180830381600087803b15801561105f57600080fd5b505af1158015611073573d6000803e3d6000fd5b50505050505095945050505050565b6040516370a0823160e01b81523060048201526000906001600160a01b038516906370a0823190602401602060405180830381865afa1580156110c9573d6000803e3d6000fd5b505050506040513d601f19601f820116820180604052508101906110ed9190611fcc565b90508181106110fc5750505050565b80820391506000846001600160a01b0316632495a5996040518163ffffffff1660e01b8152600401602060405180830381865afa158015611141573d6000803e3d6000fd5b505050506040513d601f19601f82011682018060405250810190611165919061230d565b6040516370a0823160e01b81523060048201529091506000906001600160a01b038316906370a0823190602401602060405180830381865afa1580156111af573d6000803e3d6000fd5b505050506040513d601f19601f820116820180604052508101906111d39190611fcc565b9050838110156111fe576111fe85306111ec8488612444565b6001600160a01b03861692919061176a565b60405163095ea7b360e01b81526001600160a01b0387811660048301526024820186905283169063095ea7b3906044016020604051808303816000875af115801561124d573d6000803e3d6000fd5b505050506040513d601f19601f820116820180604052508101906112719190612184565b506040517f94bf804d000000000000000000000000000000000000000000000000000000008152600481018590523060248201526001600160a01b038716906394bf804d90604401600060405180830381600087803b1580156112d357600080fd5b505af11580156112e7573d6000803e3d6000fd5b50505050505050505050565b471561136e577f00000000000000000000000000000000000000000000000000000000000000006001600160a01b031663d0e30db0476040518263ffffffff1660e01b81526004016000604051808303818588803b15801561135457600080fd5b505af1158015611368573d6000803e3d6000fd5b50505050505b6113ab7f000000000000000000000000000000000000000000000000000000000000000085306113a3368b90038b018b612457565b9291906117a9565b506113ec7f0000000000000000000000000000000000000000000000000000000000000000333060016113e3368b90038b018b612457565b9392919061182f565b506040517feb02c301000000000000000000000000000000000000000000000000000000008152600481018590526000907f00000000000000000000000000000000000000000000000000000000000000006001600160a01b03169063eb02c3019060240160a060405180830381865afa15801561146e573d6000803e3d6000fd5b505050506040513d601f19601f820116820180604052508101906114929190612473565b6000015190506000816001600160a01b0316632495a5996040518163ffffffff1660e01b8152600401602060405180830381865afa1580156114d8573d6000803e3d6000fd5b505050506040513d601f19601f820116820180604052508101906114fc919061230d565b9050611513813330610edd368e90038e018e61239f565b50604080513360208201529081018790526060810186905261ffff8516608082015283151560a08201526001600160a01b0383811660c08301527f0000000000000000000000000000000000000000000000000000000000000000169063815483199060e0016040516020818303038152906040526040518263ffffffff1660e01b81526004016115a49190611c65565b6000604051808303816000875af11580156115c3573d6000803e3d6000fd5b505050506040513d6000823e601f3d908101601f191682016040526112e791908101906123d6565b6001805473ffffffffffffffffffffffffffffffffffffffff19169055610c83816118fd565b60006116266001600160a01b0384168361195a565b9050805160001415801561164b5750808060200190518101906116499190612184565b155b15610de0576040517f5274afe70000000000000000000000000000000000000000000000000000000081526001600160a01b0384166004820152602401610c71565b6020840151516000901561175f57845160208087015180519181015160408083015160609093015190517fd505accf0000000000000000000000000000000000000000000000000000000081526001600160a01b03898116600483015288811660248301526044820196909652606481019490945260ff909116608484015260a483019190915260c48201529085169063d505accf9060e4015b600060405180830381600087803b15801561174157600080fd5b505af1925050508015611752575060015b1561175f575060016103df565b506000949350505050565b6040516001600160a01b0384811660248301528381166044830152606482018390526117a39186918216906323b872dd90608401610d99565b50505050565b83516000901561175f5784516020860151604080880151606089015191517f7ac2ff7b0000000000000000000000000000000000000000000000000000000081526001600160a01b03878116600483015260248201899052604482019590955260ff9093166064840152608483015260a482015290851690637ac2ff7b9060c401611727565b8451600090156118f1578551602087015160408089015160608a015191517ff51cc7dd0000000000000000000000000000000000000000000000000000000081526001600160a01b03898116600483015288811660248301528715156044830152606482019590955260ff909316608484015260a483015260c48201529086169063f51cc7dd9060e401600060405180830381600087803b1580156118d357600080fd5b505af19250505080156118e4575060015b156118f157506001610ca8565b50600095945050505050565b600080546001600160a01b0383811673ffffffffffffffffffffffffffffffffffffffff19831681178455604051919092169283917f8be0079c531659141344cd1fd0a4f28419497f9722a3daafe3b4186f6b6457e09190a35050565b60606119688383600061196f565b9392505050565b6060814710156119ad576040517fcd786059000000000000000000000000000000000000000000000000000000008152306004820152602401610c71565b600080856001600160a01b031684866040516119c99190612510565b60006040518083038185875af1925050503d8060008114611a06576040519150601f19603f3d011682016040523d82523d6000602084013e611a0b565b606091505b5091509150611a1b868383611a25565b9695505050505050565b606082611a3a57611a3582611a9a565b611968565b8151158015611a5157506001600160a01b0384163b155b15611a93576040517f9996b3150000000000000000000000000000000000000000000000000000000081526001600160a01b0385166004820152602401610c71565b5080611968565b805115611aaa5780518082602001fd5b6040517f1425ea4200000000000000000000000000000000000000000000000000000000815260040160405180910390fd5b600060208284031215611aee57600080fd5b81356001600160e01b03198116811461196857600080fd5b6001600160a01b0381168114610c8357600080fd5b60008060408385031215611b2e57600080fd5b8235611b3981611b06565b91506020830135611b4981611b06565b809150509250929050565b600060a08284031215611b6657600080fd5b50919050565b61ffff81168114610c8357600080fd5b6000806000806101008587031215611b9357600080fd5b611b9d8686611b54565b935060a0850135611bad81611b06565b925060c0850135915060e0850135611bc481611b6c565b939692955090935050565b60008060208385031215611be257600080fd5b823567ffffffffffffffff80821115611bfa57600080fd5b818501915085601f830112611c0e57600080fd5b813581811115611c1d57600080fd5b866020828501011115611c2f57600080fd5b60209290920196919550909350505050565b60005b83811015611c5c578181015183820152602001611c44565b50506000910152565b6020815260008251806020840152611c84816040850160208701611c41565b601f01601f19169190910160400192915050565b600060808284031215611b6657600080fd5b6000806000806000806102008789031215611cc457600080fd5b611cce8888611b54565b9550611cdd8860a08901611c98565b9450611ced886101208901611c98565b93506101a087013592506101c087013591506101e0870135611d0e81611b6c565b809150509295509295509295565b634e487b7160e01b600052604160045260246000fd5b6040805190810167ffffffffffffffff81118282101715611d5557611d55611d1c565b60405290565b604051601f8201601f1916810167ffffffffffffffff81118282101715611d8457611d84611d1c565b604052919050565b600067ffffffffffffffff821115611da657611da6611d1c565b5060051b60200190565b600082601f830112611dc157600080fd5b81356020611dd6611dd183611d8c565b611d5b565b8083825260208201915060208460051b870101935086841115611df857600080fd5b602086015b84811015611e145780358352918301918301611dfd565b509695505050505050565b600067ffffffffffffffff821115611e3957611e39611d1c565b50601f01601f191660200190565b600082601f830112611e5857600080fd5b8135611e66611dd182611e1f565b818152846020838601011115611e7b57600080fd5b816020850160208301376000918101602001919091529392505050565b600080600080600060a08688031215611eb057600080fd5b8535611ebb81611b06565b94506020860135611ecb81611b06565b9350604086013567ffffffffffffffff80821115611ee857600080fd5b611ef489838a01611db0565b94506060880135915080821115611f0a57600080fd5b611f1689838a01611db0565b93506080880135915080821115611f2c57600080fd5b50611f3988828901611e47565b9150509295509295909350565b600080600080600060a08688031215611f5e57600080fd5b8535611f6981611b06565b94506020860135611f7981611b06565b93506040860135925060608601359150608086013567ffffffffffffffff811115611fa357600080fd5b611f3988828901611e47565b600060208284031215611fc157600080fd5b813561196881611b06565b600060208284031215611fde57600080fd5b5051919050565b8015158114610c8357600080fd5b60008060008060008060c0878903121561200c57600080fd5b863561201781611b06565b95506020870135945060408701359350606087013561203581611b6c565b9250608087013561204581611fe5565b915060a0870135611d0e81611b06565b600082601f83011261206657600080fd5b81516020612076611dd183611d8c565b8281526060928302850182019282820191908785111561209557600080fd5b8387015b8581101561210a57808903828112156120b25760008081fd5b6120ba611d32565b6040808312156120ca5760008081fd5b6120d2611d32565b925083516120df81611b06565b8352838801516120ee81611b6c565b8389015291815290820151818701528452928401928101612099565b5090979650505050505050565b60008060006060848603121561212c57600080fd5b835167ffffffffffffffff8082111561214457600080fd5b61215087838801612055565b9450602086015191508082111561216657600080fd5b5061217386828701612055565b925050604084015190509250925092565b60006020828403121561219657600080fd5b815161196881611fe5565b634e487b7160e01b600052601160045260246000fd5b60007f800000000000000000000000000000000000000000000000000000000000000082036121e8576121e86121a1565b5060000390565b600081518084526020808501945080840160005b83811015612241578151805180516001600160a01b0316895284015161ffff1684890152830151604088015260609096019590820190600101612203565b509495945050505050565b60608152600061225f60608301856121ef565b6001600160a01b0384166020840152828103604084015260008152602081019150509392505050565b60408152600061229b60408301856121ef565b90506001600160a01b03831660208301529392505050565b60006001600160a01b038086168352808516602084015250608060408301526122df60808301846121ef565b82810360608401526000815260208101915050949350505050565b60208152600061196860208301846121ef565b60006020828403121561231f57600080fd5b815161196881611b06565b60006080828403121561233c57600080fd5b6040516080810181811067ffffffffffffffff8211171561235f5761235f611d1c565b60405282358152905080602083013560ff8116811461237d57600080fd5b8060208301525060408301356040820152606083013560608201525092915050565b600060a082840312156123b157600080fd5b6123b9611d32565b823581526123ca846020850161232a565b60208201529392505050565b6000602082840312156123e857600080fd5b815167ffffffffffffffff8111156123ff57600080fd5b8201601f8101841361241057600080fd5b805161241e611dd182611e1f565b81815285602083850101111561243357600080fd5b610ca8826020830160208601611c41565b8181038181111561033b5761033b6121a1565b60006080828403121561246957600080fd5b611968838361232a565b600060a0828403121561248557600080fd5b60405160a0810167ffffffffffffffff82821081831117156124a9576124a9611d1c565b81604052845191506124ba82611b06565b90825260208401519080821682146124d157600080fd5b50602082015260408301516124e581611b6c565b604082015260608301516124f881611fe5565b60608201526080928301519281019290925250919050565b60008251612522818460208701611c41565b919091019291505056fea264697066735822122097b0f912e265c27999a170d9a8c27ca0626455ce28cc5d045cd97c0b0acb489164736f6c63430008170033",
  "devdoc": {
    "errors": {
      "AddressEmptyCode(address)": [
        {
          "details": "There's no code at `target` (it is not a contract)."
        }
      ],
      "AddressInsufficientBalance(address)": [
        {
          "details": "The ETH balance of the account is not enough to perform the operation."
        }
      ],
      "FailedInnerCall()": [
        {
          "details": "A call to an address target failed. The target may have reverted."
        }
      ],
      "OwnableInvalidOwner(address)": [
        {
          "details": "The owner is not a valid owner account. (eg. `address(0)`)"
        }
      ],
      "OwnableUnauthorizedAccount(address)": [
        {
          "details": "The caller account is not authorized to perform an operation."
        }
      ],
      "SafeERC20FailedOperation(address)": [
        {
          "details": "An operation with an ERC20 token failed."
        }
      ]
    },
    "kind": "dev",
    "methods": {
      "acceptOwnership()": {
        "details": "The new owner accepts the ownership transfer."
      },
      "owner()": {
        "details": "Returns the address of the current owner."
      },
      "pendingOwner()": {
        "details": "Returns the address of the pending owner."
      },
      "renounceOwnership()": {
        "details": "Leaves the contract without owner. It will not be possible to call `onlyOwner` functions. Can only be called by the current owner. NOTE: Renouncing ownership will leave the contract without an owner, thereby disabling any functionality that is only available to the owner."
      },
      "supportsInterface(bytes4)": {
        "details": "See {IERC165-supportsInterface}."
      },
      "transferOwnership(address)": {
        "details": "Starts the ownership transfer of the contract to a new account. Replaces the pending transfer if there is one. Can only be called by the current owner."
      }
    },
    "version": 1
  },
  "userdoc": {
    "kind": "user",
    "methods": {},
    "version": 1
  },
  "storageLayout": {
    "storage": [
      {
        "astId": 8,
        "contract": "contracts/SimpleBondController.sol:SimpleBondController",
        "label": "_owner",
        "offset": 0,
        "slot": "0",
        "type": "t_address"
      },
      {
        "astId": 156,
        "contract": "contracts/SimpleBondController.sol:SimpleBondController",
        "label": "_pendingOwner",
        "offset": 0,
        "slot": "1",
        "type": "t_address"
      }
    ],
    "types": {
      "t_address": {
        "encoding": "inplace",
        "label": "address",
        "numberOfBytes": "20"
      }
    }
  }
}