{
  "address": "0x1B3c13c5CD7907334d68cBef6109CE0fC249C309",
  "abi": [
    {
      "inputs": [
        {
          "internalType": "address",
          "name": "wrapped1155Factory",
          "type": "address"
        },
        {
          "internalType": "address",
          "name": "cloberController",
          "type": "address"
        },
        {
          "internalType": "address",
          "name": "bookManager",
          "type": "address"
        },
        {
          "internalType": "address",
          "name": "couponManager",
          "type": "address"
        },
        {
          "internalType": "address",
          "name": "weth",
          "type": "address"
        },
        {
          "internalType": "address",
          "name": "loanPositionManager",
          "type": "address"
        },
        {
          "internalType": "address",
          "name": "router",
          "type": "address"
        }
      ],
      "stateMutability": "nonpayable",
      "type": "constructor"
    },
    {
      "inputs": [
        {
          "internalType": "address",
          "name": "target",
          "type": "address"
        }
      ],
      "name": "AddressEmptyCode",
      "type": "error"
    },
    {
      "inputs": [
        {
          "internalType": "address",
          "name": "account",
          "type": "address"
        }
      ],
      "name": "AddressInsufficientBalance",
      "type": "error"
    },
    {
      "inputs": [
        {
          "internalType": "string",
          "name": "reason",
          "type": "string"
        }
      ],
      "name": "CollateralSwapFailed",
      "type": "error"
    },
    {
      "inputs": [],
      "name": "ControllerSlippage",
      "type": "error"
    },
    {
      "inputs": [],
      "name": "FailedInnerCall",
      "type": "error"
    },
    {
      "inputs": [],
      "name": "InvalidAccess",
      "type": "error"
    },
    {
      "inputs": [],
      "name": "InvalidMarket",
      "type": "error"
    },
    {
      "inputs": [
        {
          "internalType": "address",
          "name": "owner",
          "type": "address"
        }
      ],
      "name": "OwnableInvalidOwner",
      "type": "error"
    },
    {
      "inputs": [
        {
          "internalType": "address",
          "name": "account",
          "type": "address"
        }
      ],
      "name": "OwnableUnauthorizedAccount",
      "type": "error"
    },
    {
      "inputs": [],
      "name": "Reentrancy",
      "type": "error"
    },
    {
      "inputs": [
        {
          "internalType": "uint256",
          "name": "value",
          "type": "uint256"
        }
      ],
      "name": "SafeCastOverflowedUintToInt",
      "type": "error"
    },
    {
      "inputs": [
        {
          "internalType": "address",
          "name": "token",
          "type": "address"
        }
      ],
      "name": "SafeERC20FailedOperation",
      "type": "error"
    },
    {
      "anonymous": false,
      "inputs": [
        {
          "indexed": true,
          "internalType": "uint256",
          "name": "positionId",
          "type": "uint256"
        },
        {
          "indexed": false,
          "internalType": "int256",
          "name": "cost",
          "type": "int256"
        },
        {
          "components": [
            {
              "components": [
                {
                  "internalType": "address",
                  "name": "asset",
                  "type": "address"
                },
                {
                  "internalType": "Epoch",
                  "name": "epoch",
                  "type": "uint16"
                }
              ],
              "internalType": "struct CouponKey",
              "name": "key",
              "type": "tuple"
            },
            {
              "internalType": "uint256",
              "name": "amount",
              "type": "uint256"
            }
          ],
          "indexed": false,
          "internalType": "struct Coupon[]",
          "name": "couponsToBuy",
          "type": "tuple[]"
        },
        {
          "components": [
            {
              "components": [
                {
                  "internalType": "address",
                  "name": "asset",
                  "type": "address"
                },
                {
                  "internalType": "Epoch",
                  "name": "epoch",
                  "type": "uint16"
                }
              ],
              "internalType": "struct CouponKey",
              "name": "key",
              "type": "tuple"
            },
            {
              "internalType": "uint256",
              "name": "amount",
              "type": "uint256"
            }
          ],
          "indexed": false,
          "internalType": "struct Coupon[]",
          "name": "couponsToSell",
          "type": "tuple[]"
        }
      ],
      "name": "CouponTrade",
      "type": "event"
    },
    {
      "anonymous": false,
      "inputs": [
        {
          "indexed": true,
          "internalType": "address",
          "name": "previousOwner",
          "type": "address"
        },
        {
          "indexed": true,
          "internalType": "address",
          "name": "newOwner",
          "type": "address"
        }
      ],
      "name": "OwnershipTransferStarted",
      "type": "event"
    },
    {
      "anonymous": false,
      "inputs": [
        {
          "indexed": true,
          "internalType": "address",
          "name": "previousOwner",
          "type": "address"
        },
        {
          "indexed": true,
          "internalType": "address",
          "name": "newOwner",
          "type": "address"
        }
      ],
      "name": "OwnershipTransferred",
      "type": "event"
    },
    {
      "anonymous": false,
      "inputs": [
        {
          "indexed": true,
          "internalType": "address",
          "name": "asset",
          "type": "address"
        },
        {
          "indexed": true,
          "internalType": "Epoch",
          "name": "epoch",
          "type": "uint16"
        },
        {
          "indexed": false,
          "internalType": "BookId",
          "name": "sellMarketBookId",
          "type": "uint192"
        },
        {
          "indexed": false,
          "internalType": "BookId",
          "name": "buyMarketBookId",
          "type": "uint192"
        }
      ],
      "name": "SetCouponMarket",
      "type": "event"
    },
    {
      "anonymous": false,
      "inputs": [
        {
          "indexed": true,
          "internalType": "uint256",
          "name": "positionId",
          "type": "uint256"
        },
        {
          "indexed": true,
          "internalType": "address",
          "name": "inToken",
          "type": "address"
        },
        {
          "indexed": true,
          "internalType": "address",
          "name": "outToken",
          "type": "address"
        },
        {
          "indexed": false,
          "internalType": "uint256",
          "name": "inAmount",
          "type": "uint256"
        },
        {
          "indexed": false,
          "internalType": "uint256",
          "name": "outAmount",
          "type": "uint256"
        }
      ],
      "name": "SwapToken",
      "type": "event"
    },
    {
      "inputs": [],
      "name": "acceptOwnership",
      "outputs": [],
      "stateMutability": "nonpayable",
      "type": "function"
    },
    {
      "inputs": [
        {
          "internalType": "uint256",
          "name": "positionId",
          "type": "uint256"
        },
        {
          "internalType": "uint256",
          "name": "collateralAmount",
          "type": "uint256"
        },
        {
          "internalType": "uint256",
          "name": "debtAmount",
          "type": "uint256"
        },
        {
          "internalType": "int256",
          "name": "interestThreshold",
          "type": "int256"
        },
        {
          "internalType": "Epoch",
          "name": "expiredWith",
          "type": "uint16"
        },
        {
          "components": [
            {
              "internalType": "address",
              "name": "inSubstitute",
              "type": "address"
            },
            {
              "internalType": "uint256",
              "name": "amount",
              "type": "uint256"
            },
            {
              "internalType": "bytes",
              "name": "data",
              "type": "bytes"
            }
          ],
          "internalType": "struct IBorrowControllerV2.SwapParams",
          "name": "swapParams",
          "type": "tuple"
        },
        {
          "components": [
            {
              "internalType": "uint256",
              "name": "deadline",
              "type": "uint256"
            },
            {
              "internalType": "uint8",
              "name": "v",
              "type": "uint8"
            },
            {
              "internalType": "bytes32",
              "name": "r",
              "type": "bytes32"
            },
            {
              "internalType": "bytes32",
              "name": "s",
              "type": "bytes32"
            }
          ],
          "internalType": "struct PermitSignature",
          "name": "positionPermitParams",
          "type": "tuple"
        },
        {
          "components": [
            {
              "internalType": "uint256",
              "name": "permitAmount",
              "type": "uint256"
            },
            {
              "components": [
                {
                  "internalType": "uint256",
                  "name": "deadline",
                  "type": "uint256"
                },
                {
                  "internalType": "uint8",
                  "name": "v",
                  "type": "uint8"
                },
                {
                  "internalType": "bytes32",
                  "name": "r",
                  "type": "bytes32"
                },
                {
                  "internalType": "bytes32",
                  "name": "s",
                  "type": "bytes32"
                }
              ],
              "internalType": "struct PermitSignature",
              "name": "signature",
              "type": "tuple"
            }
          ],
          "internalType": "struct ERC20PermitParams",
          "name": "collateralPermitParams",
          "type": "tuple"
        },
        {
          "components": [
            {
              "internalType": "uint256",
              "name": "permitAmount",
              "type": "uint256"
            },
            {
              "components": [
                {
                  "internalType": "uint256",
                  "name": "deadline",
                  "type": "uint256"
                },
                {
                  "internalType": "uint8",
                  "name": "v",
                  "type": "uint8"
                },
                {
                  "internalType": "bytes32",
                  "name": "r",
                  "type": "bytes32"
                },
                {
                  "internalType": "bytes32",
                  "name": "s",
                  "type": "bytes32"
                }
              ],
              "internalType": "struct PermitSignature",
              "name": "signature",
              "type": "tuple"
            }
          ],
          "internalType": "struct ERC20PermitParams",
          "name": "debtPermitParams",
          "type": "tuple"
        }
      ],
      "name": "adjust",
      "outputs": [],
      "stateMutability": "payable",
      "type": "function"
    },
    {
      "inputs": [
        {
          "internalType": "address",
          "name": "collateralToken",
          "type": "address"
        },
        {
          "internalType": "address",
          "name": "debtToken",
          "type": "address"
        },
        {
          "internalType": "uint256",
          "name": "collateralAmount",
          "type": "uint256"
        },
        {
          "internalType": "uint256",
          "name": "debtAmount",
          "type": "uint256"
        },
        {
          "internalType": "int256",
          "name": "maxPayInterest",
          "type": "int256"
        },
        {
          "internalType": "Epoch",
          "name": "expiredWith",
          "type": "uint16"
        },
        {
          "components": [
            {
              "internalType": "address",
              "name": "inSubstitute",
              "type": "address"
            },
            {
              "internalType": "uint256",
              "name": "amount",
              "type": "uint256"
            },
            {
              "internalType": "bytes",
              "name": "data",
              "type": "bytes"
            }
          ],
          "internalType": "struct IBorrowControllerV2.SwapParams",
          "name": "swapParams",
          "type": "tuple"
        },
        {
          "components": [
            {
              "internalType": "uint256",
              "name": "permitAmount",
              "type": "uint256"
            },
            {
              "components": [
                {
                  "internalType": "uint256",
                  "name": "deadline",
                  "type": "uint256"
                },
                {
                  "internalType": "uint8",
                  "name": "v",
                  "type": "uint8"
                },
                {
                  "internalType": "bytes32",
                  "name": "r",
                  "type": "bytes32"
                },
                {
                  "internalType": "bytes32",
                  "name": "s",
                  "type": "bytes32"
                }
              ],
              "internalType": "struct PermitSignature",
              "name": "signature",
              "type": "tuple"
            }
          ],
          "internalType": "struct ERC20PermitParams",
          "name": "collateralPermitParams",
          "type": "tuple"
        }
      ],
      "name": "borrow",
      "outputs": [
        {
          "internalType": "uint256",
          "name": "positionId",
          "type": "uint256"
        }
      ],
      "stateMutability": "payable",
      "type": "function"
    },
    {
      "inputs": [
        {
          "components": [
            {
              "internalType": "address",
              "name": "asset",
              "type": "address"
            },
            {
              "internalType": "Epoch",
              "name": "epoch",
              "type": "uint16"
            }
          ],
          "internalType": "struct CouponKey",
          "name": "couponKey",
          "type": "tuple"
        }
      ],
      "name": "getCouponMarket",
      "outputs": [
        {
          "components": [
            {
              "internalType": "Currency",
              "name": "base",
              "type": "address"
            },
            {
              "internalType": "uint64",
              "name": "unit",
              "type": "uint64"
            },
            {
              "internalType": "Currency",
              "name": "quote",
              "type": "address"
            },
            {
              "internalType": "FeePolicy",
              "name": "makerPolicy",
              "type": "uint24"
            },
            {
              "internalType": "contract IHooks",
              "name": "hooks",
              "type": "address"
            },
            {
              "internalType": "FeePolicy",
              "name": "takerPolicy",
              "type": "uint24"
            }
          ],
          "internalType": "struct IBookManager.BookKey",
          "name": "",
          "type": "tuple"
        },
        {
          "components": [
            {
              "internalType": "Currency",
              "name": "base",
              "type": "address"
            },
            {
              "internalType": "uint64",
              "name": "unit",
              "type": "uint64"
            },
            {
              "internalType": "Currency",
              "name": "quote",
              "type": "address"
            },
            {
              "internalType": "FeePolicy",
              "name": "makerPolicy",
              "type": "uint24"
            },
            {
              "internalType": "contract IHooks",
              "name": "hooks",
              "type": "address"
            },
            {
              "internalType": "FeePolicy",
              "name": "takerPolicy",
              "type": "uint24"
            }
          ],
          "internalType": "struct IBookManager.BookKey",
          "name": "",
          "type": "tuple"
        }
      ],
      "stateMutability": "view",
      "type": "function"
    },
    {
      "inputs": [
        {
          "internalType": "address",
          "name": "",
          "type": "address"
        },
        {
          "internalType": "address",
          "name": "",
          "type": "address"
        },
        {
          "internalType": "uint256[]",
          "name": "",
          "type": "uint256[]"
        },
        {
          "internalType": "uint256[]",
          "name": "",
          "type": "uint256[]"
        },
        {
          "internalType": "bytes",
          "name": "",
          "type": "bytes"
        }
      ],
      "name": "onERC1155BatchReceived",
      "outputs": [
        {
          "internalType": "bytes4",
          "name": "",
          "type": "bytes4"
        }
      ],
      "stateMutability": "nonpayable",
      "type": "function"
    },
    {
      "inputs": [
        {
          "internalType": "address",
          "name": "",
          "type": "address"
        },
        {
          "internalType": "address",
          "name": "",
          "type": "address"
        },
        {
          "internalType": "uint256",
          "name": "",
          "type": "uint256"
        },
        {
          "internalType": "uint256",
          "name": "",
          "type": "uint256"
        },
        {
          "internalType": "bytes",
          "name": "",
          "type": "bytes"
        }
      ],
      "name": "onERC1155Received",
      "outputs": [
        {
          "internalType": "bytes4",
          "name": "",
          "type": "bytes4"
        }
      ],
      "stateMutability": "nonpayable",
      "type": "function"
    },
    {
      "inputs": [],
      "name": "owner",
      "outputs": [
        {
          "internalType": "address",
          "name": "",
          "type": "address"
        }
      ],
      "stateMutability": "view",
      "type": "function"
    },
    {
      "inputs": [],
      "name": "pendingOwner",
      "outputs": [
        {
          "internalType": "address",
          "name": "",
          "type": "address"
        }
      ],
      "stateMutability": "view",
      "type": "function"
    },
    {
      "inputs": [
        {
          "internalType": "bytes",
          "name": "data",
          "type": "bytes"
        }
      ],
      "name": "positionLockAcquired",
      "outputs": [
        {
          "internalType": "bytes",
          "name": "result",
          "type": "bytes"
        }
      ],
      "stateMutability": "nonpayable",
      "type": "function"
    },
    {
      "inputs": [],
      "name": "renounceOwnership",
      "outputs": [],
      "stateMutability": "nonpayable",
      "type": "function"
    },
    {
      "inputs": [
        {
          "components": [
            {
              "internalType": "address",
              "name": "asset",
              "type": "address"
            },
            {
              "internalType": "Epoch",
              "name": "epoch",
              "type": "uint16"
            }
          ],
          "internalType": "struct CouponKey",
          "name": "couponKey",
          "type": "tuple"
        },
        {
          "components": [
            {
              "internalType": "Currency",
              "name": "base",
              "type": "address"
            },
            {
              "internalType": "uint64",
              "name": "unit",
              "type": "uint64"
            },
            {
              "internalType": "Currency",
              "name": "quote",
              "type": "address"
            },
            {
              "internalType": "FeePolicy",
              "name": "makerPolicy",
              "type": "uint24"
            },
            {
              "internalType": "contract IHooks",
              "name": "hooks",
              "type": "address"
            },
            {
              "internalType": "FeePolicy",
              "name": "takerPolicy",
              "type": "uint24"
            }
          ],
          "internalType": "struct IBookManager.BookKey",
          "name": "sellBookKey",
          "type": "tuple"
        },
        {
          "components": [
            {
              "internalType": "Currency",
              "name": "base",
              "type": "address"
            },
            {
              "internalType": "uint64",
              "name": "unit",
              "type": "uint64"
            },
            {
              "internalType": "Currency",
              "name": "quote",
              "type": "address"
            },
            {
              "internalType": "FeePolicy",
              "name": "makerPolicy",
              "type": "uint24"
            },
            {
              "internalType": "contract IHooks",
              "name": "hooks",
              "type": "address"
            },
            {
              "internalType": "FeePolicy",
              "name": "takerPolicy",
              "type": "uint24"
            }
          ],
          "internalType": "struct IBookManager.BookKey",
          "name": "buyBookKey",
          "type": "tuple"
        }
      ],
      "name": "setCouponBookKey",
      "outputs": [],
      "stateMutability": "nonpayable",
      "type": "function"
    },
    {
      "inputs": [
        {
          "internalType": "bytes4",
          "name": "interfaceId",
          "type": "bytes4"
        }
      ],
      "name": "supportsInterface",
      "outputs": [
        {
          "internalType": "bool",
          "name": "",
          "type": "bool"
        }
      ],
      "stateMutability": "view",
      "type": "function"
    },
    {
      "inputs": [
        {
          "internalType": "address",
          "name": "newOwner",
          "type": "address"
        }
      ],
      "name": "transferOwnership",
      "outputs": [],
      "stateMutability": "nonpayable",
      "type": "function"
    },
    {
      "stateMutability": "payable",
      "type": "receive"
    }
  ],
  "transactionHash": "0xe900ae8afa63a1728cbcb854364ecf08e1f7feee13ebea776dc25a9891e3fd93",
  "args": [
    "0xfcBE16BfD991E4949244E59d9b524e6964b8BB75",
    "0x2489e8daffb7A4900074840C24e8096A25e2Eeb0",
    "0x6411E5f824E1386d62ea20bFE5d815933F7E8491",
    "0xF4723F17a6CCb33cF7221636cc07ee7752F865FA",
    "0xE0dBCB42CCAc63C949cE3EF879A647DDb662916d",
    "0xa9c39C3B106023282F3E4da74B601585f15c3e0F",
    "0xfd71fBe411E839220b625826858578454f58F4b2"
  ],
  "numDeployments": 1,
  "solcInputHash": "1137a8c1aa36304c07d3c419e87543a4",
  "bytecode": "0x610160604052600160025534801561001657600080fd5b5060405161596538038061596583398101604081905261003591610197565b8686868686338061006057604051631e4fbdf760e01b81526000600482015260240160405180910390fd5b6100698161010f565b506001600160a01b0385811660805284811660a081905283821660c081905291851660e05260405163a22cb46560e01b815260048101919091526001602482015263a22cb46590604401600060405180830381600087803b1580156100cd57600080fd5b505af11580156100e1573d6000803e3d6000fd5b5050506001600160a01b039182166101005250958616610120525050505016610140525061021d9350505050565b600180546001600160a01b03191690556101288161012b565b50565b600080546001600160a01b038381166001600160a01b0319831681178455604051919092169283917f8be0079c531659141344cd1fd0a4f28419497f9722a3daafe3b4186f6b6457e09190a35050565b80516001600160a01b038116811461019257600080fd5b919050565b600080600080600080600060e0888a0312156101b257600080fd5b6101bb8861017b565b96506101c96020890161017b565b95506101d76040890161017b565b94506101e56060890161017b565b93506101f36080890161017b565b925061020160a0890161017b565b915061020f60c0890161017b565b905092959891949750929550565b60805160a05160c05160e0516101005161012051610140516155f261037360003960008181611fec0152818161206e015261213b01526000818161035601528181610437015281816104e6015281816105c8015281816106720152818161076a015281816108000152818161093c015281816109fe01528181610a9301528181610b2d01528181610c0801528181610c9f01528181610df101528181610e8801528181610eda01528181610fbd0152818161199d0152611a67015260008181610d4301528181611096015281816111270152818161185701528181611aeb01528181611b7c01528181611f290152611f620152600081816113aa015261146f0152600081816112b301528181611cfa01526130bc0152600081816126b60152818161292e01528181612bcc01528181612cbe0152612d7a01526000818161128401528181611d29015261308f01526155f26000f3fe6080604052600436106100d65760003560e01c80638da5cb5b1161007f578063d08e48ac11610059578063d08e48ac1461023c578063e30c39781461025d578063f23a6e611461027b578063f2fde38b146102c057600080fd5b80638da5cb5b146101a3578063bc197c81146101d5578063bf4415dc1461020e57600080fd5b8063715018a6116100b0578063715018a61461015957806379ba50971461016e5780637b3f203f1461018357600080fd5b806301ffc9a7146100e257806346a114e2146101175780636791d2e41461014457600080fd5b366100dd57005b600080fd5b3480156100ee57600080fd5b506101026100fd366004613e1a565b6102e0565b60405190151581526020015b60405180910390f35b34801561012357600080fd5b50610137610132366004613f78565b610349565b60405161010e9190613ffd565b610157610152366004614044565b610d11565b005b34801561016557600080fd5b506101576111f5565b34801561017a57600080fd5b50610157611209565b34801561018f57600080fd5b5061015761019e366004614165565b611252565b3480156101af57600080fd5b506000546001600160a01b03165b6040516001600160a01b03909116815260200161010e565b3480156101e157600080fd5b506101f56101f036600461423b565b611676565b6040516001600160e01b0319909116815260200161010e565b34801561021a57600080fd5b5061022e6102293660046142e9565b6116a1565b60405161010e929190614305565b61024f61024a3660046143d1565b611823565b60405190815260200161010e565b34801561026957600080fd5b506001546001600160a01b03166101bd565b34801561028757600080fd5b506101f5610296366004614475565b7ff23a6e610000000000000000000000000000000000000000000000000000000095945050505050565b3480156102cc57600080fd5b506101576102db3660046144de565b611c4b565b60006001600160e01b031982167f4e2312e000000000000000000000000000000000000000000000000000000000148061034357507f01ffc9a7000000000000000000000000000000000000000000000000000000006001600160e01b03198316145b92915050565b6060336001600160a01b037f0000000000000000000000000000000000000000000000000000000000000000161461039457604051633006171960e21b815260040160405180910390fd5b6040805160608082018352600080835260208301819052928201528190848060200190518101906103c5919061454b565b97509194509250905060008390036104cd57600080868060200190518101906103ee9190614618565b6040517fee1fe2ad0000000000000000000000000000000000000000000000000000000081526001600160a01b0380851660048301528084166024830152919a509294509092507f0000000000000000000000000000000000000000000000000000000000000000169063ee1fe2ad906044016020604051808303816000875af1158015610480573d6000803e3d6000fd5b505050506040513d601f19601f820116820180604052508101906104a4919061467c565b9450846040516020016104b991815260200190565b604051602081830303815290604052955050505b60405163eb02c30160e01b8152600481018490526000907f00000000000000000000000000000000000000000000000000000000000000006001600160a01b03169063eb02c3019060240160e060405180830381865afa158015610535573d6000803e3d6000fd5b505050506040513d601f19601f8201168201806040525081019061055991906146c0565b9050600086806020019051810190610571919061476c565b61ffff9091166020860181905260c0860183905260a086018490526040517f42e910af0000000000000000000000000000000000000000000000000000000081529194506000938493849384936001600160a01b037f000000000000000000000000000000000000000000000000000000000000000016936342e910af93610618938f93906004019384526020840192909252604083015261ffff16606082015260800190565b6000604051808303816000875af1158015610637573d6000803e3d6000fd5b505050506040513d6000823e601f3d908101601f1916820160405261065f919081019061486d565b93509350935093506000821215610717577f00000000000000000000000000000000000000000000000000000000000000006001600160a01b03166301e33667876060015130856106af906148f7565b6040516001600160e01b031960e086901b1681526001600160a01b0393841660048201529290911660248301526044820152606401600060405180830381600087803b1580156106fe57600080fd5b505af1158015610712573d6000803e3d6000fd5b505050505b60008113156107c95760808601516040517f01e336670000000000000000000000000000000000000000000000000000000081526001600160a01b039182166004820152306024820152604481018390527f0000000000000000000000000000000000000000000000000000000000000000909116906301e3366790606401600060405180830381600087803b1580156107b057600080fd5b505af11580156107c4573d6000803e3d6000fd5b505050505b835115610872576040517f65ae58470000000000000000000000000000000000000000000000000000000081526001600160a01b037f000000000000000000000000000000000000000000000000000000000000000016906365ae584790610837908790309060040161498c565b600060405180830381600087803b15801561085157600080fd5b505af1158015610865573d6000803e3d6000fd5b5050505061087284611cbc565b85606001516001600160a01b031687600001516001600160a01b0316036108b6576108b089876060015188608001518a602001518b60400151611d8b565b506108f6565b85608001516001600160a01b031687600001516001600160a01b0316036108f6576108f489876080015188606001518a602001518b60400151611d8b565b505b610908888a886080015187878a61235e565b6000821315610a5d5761092086606001518984612f18565b606086015160405163095ea7b360e01b81526001600160a01b037f000000000000000000000000000000000000000000000000000000000000000081166004830152602482018590529091169063095ea7b3906044016020604051808303816000875af1158015610995573d6000803e3d6000fd5b505050506040513d601f19601f820116820180604052508101906109b991906149c8565b5060608601516040517f338b5dea0000000000000000000000000000000000000000000000000000000081526001600160a01b039182166004820152602481018490527f00000000000000000000000000000000000000000000000000000000000000009091169063338b5dea90604401600060405180830381600087803b158015610a4457600080fd5b505af1158015610a58573d6000803e3d6000fd5b505050505b6000811215610bc857610a7e86608001518983610a79906148f7565b612f18565b60808601516001600160a01b031663095ea7b37f0000000000000000000000000000000000000000000000000000000000000000610abb846148f7565b6040516001600160e01b031960e085901b1681526001600160a01b03909216600483015260248201526044016020604051808303816000875af1158015610b06573d6000803e3d6000fd5b505050506040513d601f19601f82011682018060405250810190610b2a91906149c8565b507f00000000000000000000000000000000000000000000000000000000000000006001600160a01b031663338b5dea876080015183610b69906148f7565b6040516001600160e01b031960e085901b1681526001600160a01b0390921660048301526024820152604401600060405180830381600087803b158015610baf57600080fd5b505af1158015610bc3573d6000803e3d6000fd5b505050505b825115610c7057610bd883612f31565b6040517fe6ee95e20000000000000000000000000000000000000000000000000000000081526001600160a01b037f0000000000000000000000000000000000000000000000000000000000000000169063e6ee95e290610c3d9086906004016149e3565b600060405180830381600087803b158015610c5757600080fd5b505af1158015610c6b573d6000803e3d6000fd5b505050505b6040517faba5b4b3000000000000000000000000000000000000000000000000000000008152600481018a90527f00000000000000000000000000000000000000000000000000000000000000006001600160a01b03169063aba5b4b390602401600060405180830381600087803b158015610ceb57600080fd5b505af1158015610cff573d6000803e3d6000fd5b50505050505050505050505050919050565b600254600114610d345760405163558a1e0360e11b815260040160405180910390fd5b600280554715801590610db6577f00000000000000000000000000000000000000000000000000000000000000006001600160a01b031663d0e30db0476040518263ffffffff1660e01b81526004016000604051808303818588803b158015610d9c57600080fd5b505af1158015610db0573d6000803e3d6000fd5b50505050505b6040517f6352211e000000000000000000000000000000000000000000000000000000008152600481018b90528a9033906001600160a01b037f00000000000000000000000000000000000000000000000000000000000000001690636352211e90602401602060405180830381865afa158015610e38573d6000803e3d6000fd5b505050506040513d601f19601f82011682018060405250810190610e5c91906149f6565b6001600160a01b031614610e8357604051633006171960e21b815260040160405180910390fd5b610ec07f00000000000000000000000000000000000000000000000000000000000000008c30610eb8368a90038a018a614a91565b929190613124565b5060405163eb02c30160e01b8152600481018c90526000907f00000000000000000000000000000000000000000000000000000000000000006001600160a01b03169063eb02c3019060240160e060405180830381865afa158015610f29573d6000803e3d6000fd5b505050506040513d601f19601f82011682018060405250810190610f4d91906146c0565b9050610f78610f5f82606001516131e9565b3330610f70368a90038a018a614aad565b92919061324d565b50610f9a610f8982608001516131e9565b3330610f7036899003890189614aad565b5060a081018b905260c081018a905261ffff881660208201526001600160a01b037f0000000000000000000000000000000000000000000000000000000000000000166381548319610ff68e848d610ff18d614ae4565b613264565b6040518263ffffffff1660e01b81526004016110129190613ffd565b6000604051808303816000875af1158015611031573d6000803e3d6000fd5b505050506040513d6000823e601f3d908101601f191682016040526110599190810190614b47565b506110688160600151336132e7565b6110768160800151336132e7565b505080156111e4576040516370a0823160e01b81523060048201526000907f00000000000000000000000000000000000000000000000000000000000000006001600160a01b0316906370a0823190602401602060405180830381865afa1580156110e5573d6000803e3d6000fd5b505050506040513d601f19601f82011682018060405250810190611109919061467c565b905080156111e257604051632e1a7d4d60e01b8152600481018290527f00000000000000000000000000000000000000000000000000000000000000006001600160a01b031690632e1a7d4d90602401600060405180830381600087803b15801561117357600080fd5b505af1158015611187573d6000803e3d6000fd5b50506040516000925033915083908381818185875af1925050503d80600081146111cd576040519150601f19603f3d011682016040523d82523d6000602084013e6111d2565b606091505b50509050806111e057600080fd5b505b505b505060016002555050505050505050565b6111fd6133c8565b61120760006133f5565b565b60015433906001600160a01b031681146112465760405163118cdaa760e01b81526001600160a01b03821660048201526024015b60405180910390fd5b61124f816133f5565b50565b61125a6133c8565b60006112658461340e565b9050600061127e856020810151905160a09190911b0190565b905060007f00000000000000000000000000000000000000000000000000000000000000006001600160a01b03166308b2ea5e7f000000000000000000000000000000000000000000000000000000000000000084866040518463ffffffff1660e01b81526004016112f293929190614b7c565b602060405180830381865afa15801561130f573d6000803e3d6000fd5b505050506040513d601f19601f8201168201806040525081019061133391906149f6565b9050600061134e61134936889003880188614bb5565b6135d4565b9050600061136461134936889003880188614bb5565b90506113766040880160208901614c42565b604051639b22917d60e01b81526001600160c01b038416600482015267ffffffffffffffff91909116906001600160a01b037f00000000000000000000000000000000000000000000000000000000000000001690639b22917d9060240160c060405180830381865afa1580156113f1573d6000803e3d6000fd5b505050506040513d601f19601f820116820180604052508101906114159190614c5f565b6020015167ffffffffffffffff161415806114eb575061143b6040870160208801614c42565b604051639b22917d60e01b81526001600160c01b038316600482015267ffffffffffffffff91909116906001600160a01b037f00000000000000000000000000000000000000000000000000000000000000001690639b22917d9060240160c060405180830381865afa1580156114b6573d6000803e3d6000fd5b505050506040513d601f19601f820116820180604052508101906114da9190614c5f565b6020015167ffffffffffffffff1614155b80611518575087516001600160a01b031661150c6060890160408a016144de565b6001600160a01b031614155b8061154157506001600160a01b03831661153560208901896144de565b6001600160a01b031614155b8061156d57506001600160a01b03831661156160608801604089016144de565b6001600160a01b031614155b80611597575087516001600160a01b031661158b60208801886144de565b6001600160a01b031614155b156115ce576040517f9db8d5b100000000000000000000000000000000000000000000000000000000815260040160405180910390fd5b600084815260036020526040902087906115e88282614ce0565b5050600084815260046020526040902086906116048282614ce0565b905050876020015161ffff1688600001516001600160a01b03167f9f5198720ca2a8650d7430bf7d005f703c28af08bf0fe680b0b2ed87415f0d5a84846040516116649291906001600160c01b0392831681529116602082015260400190565b60405180910390a35050505050505050565b7fbc197c81000000000000000000000000000000000000000000000000000000005b95945050505050565b6040805160c081018252600080825260208201819052918101829052606081018290526080810182905260a08101919091526040805160c081018252600080825260208201819052918101829052606081018290526080810182905260a08101919091526003600061171e856020810151905160a09190911b0190565b815260200190815260200160002060046000611745866020810151905160a09190911b0190565b81526020808201929092526040908101600020815160c0808201845285546001600160a01b03808216845267ffffffffffffffff600160a01b928390048116858901526001808a0154808416878a015262ffffff90859004811660608089019190915260029b8c01548086166080808b019190915290879004831660a0808b01919091528b519889018c528a548088168a528890049095169b88019b909b5291880154808516998701999099529784900488169085015297909401549384169582019590955293909104909116928201929092529094909350915050565b60006002546001146118485760405163558a1e0360e11b815260040160405180910390fd5b6002805547158015906118ca577f00000000000000000000000000000000000000000000000000000000000000006001600160a01b031663d0e30db0476040518263ffffffff1660e01b81526004016000604051808303818588803b1580156118b057600080fd5b505af11580156118c4573d6000803e3d6000fd5b50505050505b6118e76118d68b6131e9565b3330610f7036889003880188614aad565b5060408051602081018a905290810188905261ffff861660608201526080810187905260009060a0016040516020818303038152906040529050600033868d8d8560405160200161193a93929190614e0f565b60408051601f198184030181529082905261195a94939291602001614e64565b60408051601f19818403018152908290527f8154831900000000000000000000000000000000000000000000000000000000825291506000906001600160a01b037f000000000000000000000000000000000000000000000000000000000000000016906381548319906119d2908590600401613ffd565b6000604051808303816000875af11580156119f1573d6000803e3d6000fd5b505050506040513d6000823e601f3d908101601f19168201604052611a199190810190614b47565b905080806020019051810190611a2f919061467c565b9350611a3b8c336132e7565b611a458b336132e7565b6040516323b872dd60e01b8152306004820152336024820152604481018590527f00000000000000000000000000000000000000000000000000000000000000006001600160a01b0316906323b872dd90606401600060405180830381600087803b158015611ab357600080fd5b505af1158015611ac7573d6000803e3d6000fd5b5050505050508015611c39576040516370a0823160e01b81523060048201526000907f00000000000000000000000000000000000000000000000000000000000000006001600160a01b0316906370a0823190602401602060405180830381865afa158015611b3a573d6000803e3d6000fd5b505050506040513d601f19601f82011682018060405250810190611b5e919061467c565b90508015611c3757604051632e1a7d4d60e01b8152600481018290527f00000000000000000000000000000000000000000000000000000000000000006001600160a01b031690632e1a7d4d90602401600060405180830381600087803b158015611bc857600080fd5b505af1158015611bdc573d6000803e3d6000fd5b50506040516000925033915083908381818185875af1925050503d8060008114611c22576040519150601f19603f3d011682016040523d82523d6000602084013e611c27565b606091505b5050905080611c3557600080fd5b505b505b50600160025598975050505050505050565b611c536133c8565b600180546001600160a01b0383166001600160a01b03199091168117909155611c846000546001600160a01b031690565b6001600160a01b03167f38d16b8cac22d99fc7c124b9cd0de2d3fa1faef420bfe791d8c362d765e2270060405160405180910390a350565b6000611cc782613607565b6040517fa50e72320000000000000000000000000000000000000000000000000000000081529091506001600160a01b037f0000000000000000000000000000000000000000000000000000000000000000169063a50e723290611d559030907f00000000000000000000000000000000000000000000000000000000000000009087908790600401614f17565b600060405180830381600087803b158015611d6f57600080fd5b505af1158015611d83573d6000803e3d6000fd5b505050505050565b600080856001600160a01b0316632495a5996040518163ffffffff1660e01b8152600401602060405180830381865afa158015611dcc573d6000803e3d6000fd5b505050506040513d601f19601f82011682018060405250810190611df091906149f6565b90506000856001600160a01b0316632495a5996040518163ffffffff1660e01b8152600401602060405180830381865afa158015611e32573d6000803e3d6000fd5b505050506040513d601f19601f82011682018060405250810190611e5691906149f6565b6040516370a0823160e01b81523060048201529091506000906001600160a01b038316906370a0823190602401602060405180830381865afa158015611ea0573d6000803e3d6000fd5b505050506040513d601f19601f82011682018060405250810190611ec4919061467c565b604051633f34d4cf60e21b8152600481018890523060248201529091506001600160a01b0389169063fcd3533c90604401600060405180830381600087803b158015611f0f57600080fd5b505af1158015611f23573d6000803e3d6000fd5b505050507f00000000000000000000000000000000000000000000000000000000000000006001600160a01b0316836001600160a01b031603611fd5577f00000000000000000000000000000000000000000000000000000000000000006001600160a01b031663d0e30db0876040518263ffffffff1660e01b81526004016000604051808303818588803b158015611fbb57600080fd5b505af1158015611fcf573d6000803e3d6000fd5b50505050505b60405163095ea7b360e01b81526001600160a01b037f0000000000000000000000000000000000000000000000000000000000000000811660048301526024820188905284169063095ea7b3906044016020604051808303816000875af1158015612044573d6000803e3d6000fd5b505050506040513d601f19601f8201168201806040525081019061206891906149c8565b506000807f00000000000000000000000000000000000000000000000000000000000000006001600160a01b0316876040516120a49190614f55565b6000604051808303816000865af19150503d80600081146120e1576040519150601f19603f3d011682016040523d82523d6000602084013e6120e6565b606091505b50915091508161212457806040517feff8841400000000000000000000000000000000000000000000000000000000815260040161123d9190613ffd565b60405163095ea7b360e01b81526001600160a01b037f0000000000000000000000000000000000000000000000000000000000000000811660048301526000602483015286169063095ea7b3906044016020604051808303816000875af1158015612193573d6000803e3d6000fd5b505050506040513d601f19601f820116820180604052508101906121b791906149c8565b506040516370a0823160e01b815230600482015283906001600160a01b038616906370a0823190602401602060405180830381865afa1580156121fe573d6000803e3d6000fd5b505050506040513d601f19601f82011682018060405250810190612222919061467c565b039550836001600160a01b0316856001600160a01b03168c7f44505d8a4cc74571d35c8c059e2e3a4319aadbb35eb617c603b97f8c7a1740608b8a604051612274929190918252602082015260400190565b60405180910390a460405163095ea7b360e01b81526001600160a01b038a811660048301526024820188905285169063095ea7b3906044016020604051808303816000875af11580156122cb573d6000803e3d6000fd5b505050506040513d601f19601f820116820180604052508101906122ef91906149c8565b506040516394bf804d60e01b8152600481018790523060248201526001600160a01b038a16906394bf804d90604401600060405180830381600087803b15801561233857600080fd5b505af115801561234c573d6000803e3d6000fd5b50505050505050505095945050505050565b60008351835161236e9190614f71565b905060008167ffffffffffffffff81111561238b5761238b613e44565b6040519080825280602002602001820160405280156123b4578160200160208202803683370190505b50905060008267ffffffffffffffff8111156123d2576123d2613e44565b60405190808252806020026020018201604052801561240557816020015b60608152602001906001900390816123f05790505b5090506000612415846001614f71565b67ffffffffffffffff81111561242d5761242d613e44565b604051908082528060200260200182016040528015612456578160200160208202803683370190505b5090508781858151811061246c5761246c614f84565b60200260200101906001600160a01b031690816001600160a01b03168152505060008651945060005b858110156126985760038582815181106124b1576124b1614f84565b602002602001019060068111156124ca576124ca614f9a565b908160068111156124dd576124dd614f9a565b815250506000600460006125198b85815181106124fc576124fc614f84565b6020026020010151600001516020810151905160a09190911b0190565b81526020808201929092526040908101600020815160c08101835281546001600160a01b03808216835267ffffffffffffffff600160a01b928390041695830195909552600183015480861694830185905262ffffff908290048116606084015260029093015494851660808301529093041660a08301528551919250908590849081106125a9576125a9614f84565b60200260200101906001600160a01b031690816001600160a01b0316815250508882815181106125db576125db614f84565b602002602001015160200151836125f29190614f71565b92506040518060800160405280612608836135d4565b6001600160c01b03168152602001600081526020018a848151811061262f5761262f614f84565b6020026020010151602001518152602001604051806020016040528060008152508152506040516020016126639190614fec565b60405160208183030381529060405285838151811061268457612684614f84565b602090810291909101015250600101612495565b5080156127345760405163095ea7b360e01b81526001600160a01b037f000000000000000000000000000000000000000000000000000000000000000081166004830152602482018390528a169063095ea7b3906044016020604051808303816000875af115801561270e573d6000803e3d6000fd5b505050506040513d601f19601f8201168201806040525081019061273291906149c8565b505b8751945060005b858110156129b557600485828a516127539190614f71565b8151811061276357612763614f84565b6020026020010190600681111561277c5761277c614f9a565b9081600681111561278f5761278f614f9a565b815250506000600360006127ae8c85815181106124fc576124fc614f84565b81526020808201929092526040908101600020815160c08101835281546001600160a01b03808216808452600160a01b9283900467ffffffffffffffff16968401969096526001840154808216958401959095529381900462ffffff908116606084015260029093015493841660808301529092041660a08201528a51909250859061283b908590614f71565b8151811061284b5761284b614f84565b60200260200101906001600160a01b031690816001600160a01b03168152505089828151811061287d5761287d614f84565b6020026020010151602001519250604051806080016040528061289f836135d4565b6001600160c01b0316815260200160008152602001848152602001604051806020016040528060008152508152506040516020016128dd9190614fec565b60405160208183030381529060405285838b516128fa9190614f71565b8151811061290a5761290a614f84565b6020908102919091010152805160405163095ea7b360e01b81526001600160a01b037f000000000000000000000000000000000000000000000000000000000000000081166004830152602482018690529091169063095ea7b3906044016020604051808303816000875af1158015612987573d6000803e3d6000fd5b505050506040513d601f19601f820116820180604052508101906129ab91906149c8565b505060010161273b565b506000861315612c4a576040516370a0823160e01b815230600482015286906001600160a01b038b16906370a0823190602401602060405180830381865afa158015612a05573d6000803e3d6000fd5b505050506040513d601f19601f82011682018060405250810190612a29919061467c565b1015612bb5576000896001600160a01b0316632495a5996040518163ffffffff1660e01b8152600401602060405180830381865afa158015612a6f573d6000803e3d6000fd5b505050506040513d601f19601f82011682018060405250810190612a9391906149f6565b6040517fdd62ed3e0000000000000000000000000000000000000000000000000000000081526001600160a01b038e81166004830152306024830152919250612b929183169063dd62ed3e90604401602060405180830381865afa158015612aff573d6000803e3d6000fd5b505050506040513d601f19601f82011682018060405250810190612b23919061467c565b6040516370a0823160e01b81526001600160a01b038f811660048301528416906370a0823190602401602060405180830381865afa158015612b69573d6000803e3d6000fd5b505050506040513d601f19601f82011682018060405250810190612b8d919061467c565b61366d565b9150612bb38c612ba2898561366d565b6001600160a01b038d169190613685565b505b60405163095ea7b360e01b81526001600160a01b037f000000000000000000000000000000000000000000000000000000000000000081166004830152602482018890528a169063095ea7b3906044016020604051808303816000875af1158015612c24573d6000803e3d6000fd5b505050506040513d601f19601f82011682018060405250810190612c4891906149c8565b505b6040516370a0823160e01b81523060048201526000906001600160a01b038b16906370a0823190602401602060405180830381865afa158015612c91573d6000803e3d6000fd5b505050506040513d601f19601f82011682018060405250810190612cb5919061467c565b905060006060807f00000000000000000000000000000000000000000000000000000000000000006001600160a01b0316637658ab058989898686426040518763ffffffff1660e01b8152600401612d1296959493929190615163565b6000604051808303816000875af1158015612d31573d6000803e3d6000fd5b505050506040513d6000823e601f3d908101601f19168201604052612d599190810190615225565b5060008a1315612df85760405163095ea7b360e01b81526001600160a01b037f000000000000000000000000000000000000000000000000000000000000000081166004830152600060248301528e169063095ea7b3906044016020604051808303816000875af1158015612dd2573d6000803e3d6000fd5b505050506040513d601f19601f82011682018060405250810190612df691906149c8565b505b6040516370a0823160e01b81523060048201526000906001600160a01b038f16906370a0823190602401602060405180830381865afa158015612e3f573d6000803e3d6000fd5b505050506040513d601f19601f82011682018060405250810190612e63919061467c565b905084811115612e8257612e788582036138d9565b6000039350612e90565b612e8d8186036138d9565b93505b50505080881215612ecd576040517ff271b55000000000000000000000000000000000000000000000000000000000815260040160405180910390fd5b8b7fea48060ea3a75dd9823b1965dd0353def45dfd2eb0ab0aeac8c6c76effafef42828b8d604051612f01939291906152ab565b60405180910390a250505050505050505050505050565b612f2c6001600160a01b0384168383613685565b505050565b6000815167ffffffffffffffff811115612f4d57612f4d613e44565b604051908082528060200260200182016040528015612f76578160200160208202803683370190505b5090506000825167ffffffffffffffff811115612f9557612f95613e44565b604051908082528060200260200182016040528015612fbe578160200160208202803683370190505b50905060005b835181101561305057612fef848281518110612fe257612fe2614f84565b602002602001015161393c565b83828151811061300157613001614f84565b60200260200101818152505083818151811061301f5761301f614f84565b60200260200101516020015182828151811061303d5761303d614f84565b6020908102919091010152600101612fc4565b50600061305c84613607565b6040517fa7eaa1860000000000000000000000000000000000000000000000000000000081529091506001600160a01b037f0000000000000000000000000000000000000000000000000000000000000000169063a7eaa186906130ec907f0000000000000000000000000000000000000000000000000000000000000000908790879030908890600401615307565b600060405180830381600087803b15801561310657600080fd5b505af115801561311a573d6000803e3d6000fd5b5050505050505050565b8351600090156131dd5784516020860151604080880151606089015191517f7ac2ff7b0000000000000000000000000000000000000000000000000000000081526001600160a01b03878116600483015260248201899052604482019590955260ff9093166064840152608483015260a482015290851690637ac2ff7b9060c401600060405180830381600087803b1580156131bf57600080fd5b505af19250505080156131d0575060015b156131dd575060016131e1565b5060005b949350505050565b6000816001600160a01b0316632495a5996040518163ffffffff1660e01b8152600401602060405180830381865afa158015613229573d6000803e3d6000fd5b505050506040513d601f19601f8201168201806040525081019061034391906149f6565b600061169885602001518587600001518686613951565b606060008460a001518560c001518660200151866040516020016132a59493929190938452602084019290925261ffff166040830152606082015260800190565b6040516020818303038152906040529050853384836040516020016132cd9493929190615365565b604051602081830303815290604052915050949350505050565b6040516370a0823160e01b81523060048201526000906001600160a01b038416906370a0823190602401602060405180830381865afa15801561332e573d6000803e3d6000fd5b505050506040513d601f19601f82011682018060405250810190613352919061467c565b90508060000361336157505050565b604051633f34d4cf60e21b8152600481018290526001600160a01b03838116602483015284169063fcd3533c90604401600060405180830381600087803b1580156133ab57600080fd5b505af11580156133bf573d6000803e3d6000fd5b50505050505050565b6000546001600160a01b031633146112075760405163118cdaa760e01b815233600482015260240161123d565b600180546001600160a01b031916905561124f81613a1e565b6060600082600001516001600160a01b03166395d89b416040518163ffffffff1660e01b8152600401600060405180830381865afa158015613454573d6000803e3d6000fd5b505050506040513d6000823e601f3d908101601f1916820160405261347c91908101906153c2565b90506000613491846020015161ffff16613a6e565b9050600082826040516020016134a892919061540b565b6040516020818303038152906040526134c09061548d565b9050600083836040516020016134d79291906154b1565b6040516020818303038152906040526134ef9061548d565b9050825184510160020280601e0183019250806006018201915050818187600001516001600160a01b031663313ce5676040518163ffffffff1660e01b8152600401602060405180830381865afa15801561354e573d6000803e3d6000fd5b505050506040513d601f19601f820116820180604052508101906135729190615509565b60f81b6040516020016135ba9392919092835260208301919091527fff0000000000000000000000000000000000000000000000000000000000000016604082015260410190565b604051602081830303815290604052945050505050919050565b600080826040516020016135e89190615526565b60408051601f1981840301815291905280516020909101209392505050565b606060005b8251811015613667578161363c84838151811061362b5761362b614f84565b60200260200101516000015161340e565b60405160200161364d92919061558d565b60408051601f19818403018152919052915060010161360c565b50919050565b600081831061367c578161367e565b825b9392505050565b6000836001600160a01b0316632495a5996040518163ffffffff1660e01b8152600401602060405180830381865afa1580156136c5573d6000803e3d6000fd5b505050506040513d601f19601f820116820180604052508101906136e991906149f6565b6040516370a0823160e01b81523060048201529091506000906001600160a01b038616906370a0823190602401602060405180830381865afa158015613733573d6000803e3d6000fd5b505050506040513d601f19601f82011682018060405250810190613757919061467c565b6040516370a0823160e01b81523060048201529091506000906001600160a01b038416906370a0823190602401602060405180830381865afa1580156137a1573d6000803e3d6000fd5b505050506040513d601f19601f820116820180604052508101906137c5919061467c565b90506137d18183614f71565b8411156137f7576137f26001600160a01b0384168630858803859003613b0e565b508083035b8015611d835760405163095ea7b360e01b81526001600160a01b0387811660048301526024820183905284169063095ea7b3906044016020604051808303816000875af115801561384c573d6000803e3d6000fd5b505050506040513d601f19601f8201168201806040525081019061387091906149c8565b506040516394bf804d60e01b8152600481018290523060248201526001600160a01b038716906394bf804d90604401600060405180830381600087803b1580156138b957600080fd5b505af11580156138cd573d6000803e3d6000fd5b50505050505050505050565b60007f7fffffffffffffffffffffffffffffffffffffffffffffffffffffffffffffff821115613938576040517f24775e060000000000000000000000000000000000000000000000000000000081526004810183905260240161123d565b5090565b80516020810151905160009160a01b01610343565b845160009015613a12578551602087015160408089015160608a015191517fd505accf0000000000000000000000000000000000000000000000000000000081526001600160a01b0388811660048301528781166024830152604482018a9052606482019590955260ff909316608484015260a483015260c48201529086169063d505accf9060e401600060405180830381600087803b1580156139f457600080fd5b505af1925050508015613a05575060015b15613a1257506001611698565b50600095945050505050565b600080546001600160a01b038381166001600160a01b0319831681178455604051919092169283917f8be0079c531659141344cd1fd0a4f28419497f9722a3daafe3b4186f6b6457e09190a35050565b60606000613a7b83613b83565b600101905060008167ffffffffffffffff811115613a9b57613a9b613e44565b6040519080825280601f01601f191660200182016040528015613ac5576020820181803683370190505b5090508181016020015b600019017f3031323334353637383961626364656600000000000000000000000000000000600a86061a8153600a8504945084613acf57509392505050565b604080516001600160a01b0385811660248301528416604482015260648082018490528251808303909101815260849091019091526020810180517bffffffffffffffffffffffffffffffffffffffffffffffffffffffff166323b872dd60e01b179052613b7d908590613c65565b50505050565b6000807a184f03e93ff9f4daa797ed6e38ed64bf6a1f0100000000000000008310613bcc577a184f03e93ff9f4daa797ed6e38ed64bf6a1f010000000000000000830492506040015b6d04ee2d6d415b85acef81000000008310613bf8576d04ee2d6d415b85acef8100000000830492506020015b662386f26fc100008310613c1657662386f26fc10000830492506010015b6305f5e1008310613c2e576305f5e100830492506008015b6127108310613c4257612710830492506004015b60648310613c54576064830492506002015b600a83106103435760010192915050565b6000613c7a6001600160a01b03841683613ce1565b90508051600014158015613c9f575080806020019051810190613c9d91906149c8565b155b15612f2c576040517f5274afe70000000000000000000000000000000000000000000000000000000081526001600160a01b038416600482015260240161123d565b606061367e8383600084600080856001600160a01b03168486604051613d079190614f55565b60006040518083038185875af1925050503d8060008114613d44576040519150601f19603f3d011682016040523d82523d6000602084013e613d49565b606091505b5091509150613d59868383613d63565b9695505050505050565b606082613d7857613d7382613dd8565b61367e565b8151158015613d8f57506001600160a01b0384163b155b15613dd1576040517f9996b3150000000000000000000000000000000000000000000000000000000081526001600160a01b038516600482015260240161123d565b508061367e565b805115613de85780518082602001fd5b6040517f1425ea4200000000000000000000000000000000000000000000000000000000815260040160405180910390fd5b600060208284031215613e2c57600080fd5b81356001600160e01b03198116811461367e57600080fd5b634e487b7160e01b600052604160045260246000fd5b6040805190810167ffffffffffffffff81118282101715613e7d57613e7d613e44565b60405290565b6040516060810167ffffffffffffffff81118282101715613e7d57613e7d613e44565b60405160c0810167ffffffffffffffff81118282101715613e7d57613e7d613e44565b604051601f8201601f1916810167ffffffffffffffff81118282101715613ef257613ef2613e44565b604052919050565b600067ffffffffffffffff821115613f1457613f14613e44565b50601f01601f191660200190565b600082601f830112613f3357600080fd5b8135613f46613f4182613efa565b613ec9565b818152846020838601011115613f5b57600080fd5b816020850160208301376000918101602001919091529392505050565b600060208284031215613f8a57600080fd5b813567ffffffffffffffff811115613fa157600080fd5b6131e184828501613f22565b60005b83811015613fc8578181015183820152602001613fb0565b50506000910152565b60008151808452613fe9816020860160208601613fad565b601f01601f19169290920160200192915050565b60208152600061367e6020830184613fd1565b61ffff8116811461124f57600080fd5b60006060828403121561366757600080fd5b600060a0828403121561366757600080fd5b6000806000806000806000806000898b0361028081121561406457600080fd5b8a35995060208b0135985060408b0135975060608b0135965060808b013561408b81614010565b955060a08b013567ffffffffffffffff8111156140a757600080fd5b6140b38d828e01614020565b955050608060bf19820112156140c857600080fd5b5060c08a0192506140dd8b6101408c01614032565b91506140ed8b6101e08c01614032565b90509295985092959850929598565b6001600160a01b038116811461124f57600080fd5b60006040828403121561412357600080fd5b61412b613e5a565b90508135614138816140fc565b8152602082013561414881614010565b602082015292915050565b600060c0828403121561366757600080fd5b60008060006101c0848603121561417b57600080fd5b6141858585614111565b92506141948560408601614153565b91506141a4856101008601614153565b90509250925092565b600067ffffffffffffffff8211156141c7576141c7613e44565b5060051b60200190565b600082601f8301126141e257600080fd5b813560206141f2613f41836141ad565b8083825260208201915060208460051b87010193508684111561421457600080fd5b602086015b848110156142305780358352918301918301614219565b509695505050505050565b600080600080600060a0868803121561425357600080fd5b853561425e816140fc565b9450602086013561426e816140fc565b9350604086013567ffffffffffffffff8082111561428b57600080fd5b61429789838a016141d1565b945060608801359150808211156142ad57600080fd5b6142b989838a016141d1565b935060808801359150808211156142cf57600080fd5b506142dc88828901613f22565b9150509295509295909350565b6000604082840312156142fb57600080fd5b61367e8383614111565b610180810161436d82856001600160a01b0380825116835267ffffffffffffffff6020830151166020840152806040830151166040840152606082015162ffffff80821660608601528260808501511660808601528060a08501511660a08601525050505050565b82516001600160a01b0390811660c0840152602084015167ffffffffffffffff1660e084015260408401518116610100840152606084015162ffffff908116610120850152608085015190911661014084015260a08401511661016083015261367e565b600080600080600080600080610180898b0312156143ee57600080fd5b88356143f9816140fc565b97506020890135614409816140fc565b965060408901359550606089013594506080890135935060a089013561442e81614010565b925060c089013567ffffffffffffffff81111561444a57600080fd5b6144568b828c01614020565b9250506144668a60e08b01614032565b90509295985092959890939650565b600080600080600060a0868803121561448d57600080fd5b8535614498816140fc565b945060208601356144a8816140fc565b93506040860135925060608601359150608086013567ffffffffffffffff8111156144d257600080fd5b6142dc88828901613f22565b6000602082840312156144f057600080fd5b813561367e816140fc565b6000614509613f4184613efa565b905082815283838301111561451d57600080fd5b61367e836020830184613fad565b600082601f83011261453c57600080fd5b61367e838351602085016144fb565b6000806000806080858703121561456157600080fd5b845193506020850151614573816140fc565b604086015190935067ffffffffffffffff8082111561459157600080fd5b90860190606082890312156145a557600080fd5b6145ad613e83565b82516145b8816140fc565b8152602083810151908201526040830151828111156145d657600080fd5b6145e28a82860161452b565b60408301525060608801519094509150808211156145ff57600080fd5b5061460c8782880161452b565b91505092959194509250565b60008060006060848603121561462d57600080fd5b8351614638816140fc565b6020850151909350614649816140fc565b604085015190925067ffffffffffffffff81111561466657600080fd5b6146728682870161452b565b9150509250925092565b60006020828403121561468e57600080fd5b5051919050565b67ffffffffffffffff8116811461124f57600080fd5b805180151581146146bb57600080fd5b919050565b600060e082840312156146d257600080fd5b60405160e0810181811067ffffffffffffffff821117156146f5576146f5613e44565b604052825161470381614695565b8152602083015161471381614010565b6020820152614724604084016146ab565b60408201526060830151614737816140fc565b6060820152608083015161474a816140fc565b608082015260a0838101519082015260c0928301519281019290925250919050565b6000806000806080858703121561478257600080fd5b8451935060208501519250604085015161479b81614010565b6060959095015193969295505050565b600082601f8301126147bc57600080fd5b815160206147cc613f41836141ad565b828152606092830285018201928282019190878511156147eb57600080fd5b8387015b8581101561486057808903828112156148085760008081fd5b614810613e5a565b6040808312156148205760008081fd5b614828613e5a565b92508351614835816140fc565b83528388015161484481614010565b83890152918152908201518187015284529284019281016147ef565b5090979650505050505050565b6000806000806080858703121561488357600080fd5b845167ffffffffffffffff8082111561489b57600080fd5b6148a7888389016147ab565b955060208701519150808211156148bd57600080fd5b506148ca878288016147ab565b604087015160609097015195989097509350505050565b634e487b7160e01b600052601160045260246000fd5b60007f80000000000000000000000000000000000000000000000000000000000000008203614928576149286148e1565b5060000390565b600081518084526020808501945080840160005b83811015614981578151805180516001600160a01b0316895284015161ffff1684890152830151604088015260609096019590820190600101614943565b509495945050505050565b60608152600061499f606083018561492f565b6001600160a01b0384166020840152828103604084015260008152602081019150509392505050565b6000602082840312156149da57600080fd5b61367e826146ab565b60208152600061367e602083018461492f565b600060208284031215614a0857600080fd5b815161367e816140fc565b60ff8116811461124f57600080fd5b600060808284031215614a3457600080fd5b6040516080810181811067ffffffffffffffff82111715614a5757614a57613e44565b604052823581529050806020830135614a6f81614a13565b8060208301525060408301356040820152606083013560608201525092915050565b600060808284031215614aa357600080fd5b61367e8383614a22565b600060a08284031215614abf57600080fd5b614ac7613e5a565b82358152614ad88460208501614a22565b60208201529392505050565b600060608236031215614af657600080fd5b614afe613e83565b8235614b09816140fc565b815260208381013590820152604083013567ffffffffffffffff811115614b2f57600080fd5b614b3b36828601613f22565b60408301525092915050565b600060208284031215614b5957600080fd5b815167ffffffffffffffff811115614b7057600080fd5b6131e18482850161452b565b6001600160a01b03841681528260208201526060604082015260006116986060830184613fd1565b62ffffff8116811461124f57600080fd5b600060c08284031215614bc757600080fd5b614bcf613ea6565b8235614bda816140fc565b81526020830135614bea81614695565b60208201526040830135614bfd816140fc565b60408201526060830135614c1081614ba4565b60608201526080830135614c23816140fc565b608082015260a0830135614c3681614ba4565b60a08201529392505050565b600060208284031215614c5457600080fd5b813561367e81614695565b600060c08284031215614c7157600080fd5b614c79613ea6565b8251614c84816140fc565b81526020830151614c9481614695565b60208201526040830151614ca7816140fc565b60408201526060830151614cba81614ba4565b60608201526080830151614ccd816140fc565b608082015260a0830151614c3681614ba4565b8135614ceb816140fc565b81546001600160a01b0319166001600160a01b038216178255506020820135614d1381614695565b81547fffffffff0000000000000000ffffffffffffffffffffffffffffffffffffffff1660a09190911b7bffffffffffffffff000000000000000000000000000000000000000016178155600181016040830135614d70816140fc565b81546001600160a01b0319166001600160a01b038216178255506060830135614d9881614ba4565b815462ffffff60a01b191660a082901b62ffffff60a01b161782555050600281016080830135614dc7816140fc565b81546001600160a01b0319166001600160a01b0382161782555060a0830135614def81614ba4565b815462ffffff60a01b191660a082901b62ffffff60a01b16178255613b7d565b60006001600160a01b038086168352808516602084015250606060408301526116986060830184613fd1565b81835281816020850137506000828201602090810191909152601f909101601f19169091010190565b60ff8516815260006001600160a01b038086166020840152608060408401528435614e8e816140fc565b166080830152602084013560a0830152604084013536859003601e19018112614eb657600080fd5b840160208101903567ffffffffffffffff811115614ed357600080fd5b803603821315614ee257600080fd5b606060c0850152614ef760e085018284614e3b565b9150508281036060840152614f0c8185613fd1565b979650505050505050565b60006001600160a01b03808716835280861660208401525060806040830152614f43608083018561492f565b8281036060840152614f0c8185613fd1565b60008251614f67818460208701613fad565b9190910192915050565b80820180821115610343576103436148e1565b634e487b7160e01b600052603260045260246000fd5b634e487b7160e01b600052602160045260246000fd5b6001600160c01b038151168252602081015160208301526040810151604083015260006060820151608060608501526131e16080850182613fd1565b60208152600061367e6020830184614fb0565b60008282518085526020808601955060208260051b8401016020860160005b8481101561486057601f1986840301895261503a838351613fd1565b9884019892509083019060010161501e565b60008151808452602080850194506020840160005b838110156149815781516001600160a01b031687529582019590820190600101615061565b60008151808452602080850194506020840160005b8381101561498157815180516001600160a01b0316885283810151848901526040908101518051828a0152602081015160ff166060808b01919091529181015160808a0152015160a088015260c0909601959082019060010161509b565b60008151808452602080850194506020840160005b838110156149815781518051885283015161514f848901828051825260ff602082015116602083015260408101516040830152606081015160608301525050565b5060a096909601959082019060010161510e565b60c0808252875190820181905260009060209060e0840190828b0184805b838110156151b9578251600781106151a757634e487b7160e01b83526021600452602483fd5b85529385019391850191600101615181565b5050505083810360208501526151cf818a614fff565b91505082810360408401526151e4818861504c565b905082810360608401526151f88187615086565b9050828103608084015261520c81866150f9565b915050614f0c60a083018467ffffffffffffffff169052565b6000602080838503121561523857600080fd5b825167ffffffffffffffff81111561524f57600080fd5b8301601f8101851361526057600080fd5b805161526e613f41826141ad565b81815260059190911b8201830190838101908783111561528d57600080fd5b928401925b82841015614f0c57835182529284019290840190615292565b8381526060602082015260006152c4606083018561492f565b8281036040840152613d59818561492f565b60008151808452602080850194506020840160005b83811015614981578151875295820195908201906001016152eb565b60006001600160a01b03808816835260a0602084015261532a60a08401886152d6565b838103604085015261533c81886152d6565b9050818616606085015283810360808501526153588186613fd1565b9998505050505050505050565b84815260006001600160a01b0380861660208401526080604084015280855116608084015250602084015160a08301526040840151606060c08401526153ae60e0840182613fd1565b90508281036060840152614f0c8185613fd1565b6000602082840312156153d457600080fd5b815167ffffffffffffffff8111156153eb57600080fd5b8201601f810184136153fc57600080fd5b6131e1848251602084016144fb565b6000835161541d818460208801613fad565b7f20426f6e6420436f75706f6e2028000000000000000000000000000000000000908301908152835161545781600e840160208801613fad565b7f2900000000000000000000000000000000000000000000000000000000000000600e9290910191820152600f01949350505050565b805160208083015191908110156136675760001960209190910360031b1b16919050565b600083516154c3818460208801613fad565b7f2d4350000000000000000000000000000000000000000000000000000000000090830190815283516154fd816003840160208801613fad565b01600301949350505050565b60006020828403121561551b57600080fd5b815161367e81614a13565b60c0810161034382846001600160a01b0380825116835267ffffffffffffffff6020830151166020840152806040830151166040840152606082015162ffffff80821660608601528260808501511660808601528060a08501511660a08601525050505050565b6000835161559f818460208801613fad565b8351908301906155b3818360208801613fad565b0194935050505056fea26469706673582212207a85e844007e8460a8c06dd0a4adb1fa2998213a2e3cec775c0b991c062a4d6564736f6c63430008190033",
  "devdoc": {
    "errors": {
      "AddressEmptyCode(address)": [
        {
          "details": "There's no code at `target` (it is not a contract)."
        }
      ],
      "AddressInsufficientBalance(address)": [
        {
          "details": "The ETH balance of the account is not enough to perform the operation."
        }
      ],
      "FailedInnerCall()": [
        {
          "details": "A call to an address target failed. The target may have reverted."
        }
      ],
      "OwnableInvalidOwner(address)": [
        {
          "details": "The owner is not a valid owner account. (eg. `address(0)`)"
        }
      ],
      "OwnableUnauthorizedAccount(address)": [
        {
          "details": "The caller account is not authorized to perform an operation."
        }
      ],
      "SafeCastOverflowedUintToInt(uint256)": [
        {
          "details": "An uint value doesn't fit in an int of `bits` size."
        }
      ],
      "SafeERC20FailedOperation(address)": [
        {
          "details": "An operation with an ERC20 token failed."
        }
      ]
    },
    "kind": "dev",
    "methods": {
      "acceptOwnership()": {
        "details": "The new owner accepts the ownership transfer."
      },
      "owner()": {
        "details": "Returns the address of the current owner."
      },
      "pendingOwner()": {
        "details": "Returns the address of the pending owner."
      },
      "renounceOwnership()": {
        "details": "Leaves the contract without owner. It will not be possible to call `onlyOwner` functions. Can only be called by the current owner. NOTE: Renouncing ownership will leave the contract without an owner, thereby disabling any functionality that is only available to the owner."
      },
      "supportsInterface(bytes4)": {
        "details": "See {IERC165-supportsInterface}."
      },
      "transferOwnership(address)": {
        "details": "Starts the ownership transfer of the contract to a new account. Replaces the pending transfer if there is one. Can only be called by the current owner."
      }
    },
    "version": 1
  },
  "userdoc": {
    "kind": "user",
    "methods": {},
    "version": 1
  },
  "storageLayout": {
    "storage": [
      {
        "astId": 8,
        "contract": "contracts/BorrowControllerV2.sol:BorrowControllerV2",
        "label": "_owner",
        "offset": 0,
        "slot": "0",
        "type": "t_address"
      },
      {
        "astId": 156,
        "contract": "contracts/BorrowControllerV2.sol:BorrowControllerV2",
        "label": "_pendingOwner",
        "offset": 0,
        "slot": "1",
        "type": "t_address"
      },
      {
        "astId": 11712,
        "contract": "contracts/BorrowControllerV2.sol:BorrowControllerV2",
        "label": "_locked",
        "offset": 0,
        "slot": "2",
        "type": "t_uint256"
      },
      {
        "astId": 9607,
        "contract": "contracts/BorrowControllerV2.sol:BorrowControllerV2",
        "label": "_couponSellMarkets",
        "offset": 0,
        "slot": "3",
        "type": "t_mapping(t_uint256,t_struct(BookKey)6506_storage)"
      },
      {
        "astId": 9612,
        "contract": "contracts/BorrowControllerV2.sol:BorrowControllerV2",
        "label": "_couponBuyMarkets",
        "offset": 0,
        "slot": "4",
        "type": "t_mapping(t_uint256,t_struct(BookKey)6506_storage)"
      }
    ],
    "types": {
      "t_address": {
        "encoding": "inplace",
        "label": "address",
        "numberOfBytes": "20"
      },
      "t_contract(IHooks)7338": {
        "encoding": "inplace",
        "label": "contract IHooks",
        "numberOfBytes": "20"
      },
      "t_mapping(t_uint256,t_struct(BookKey)6506_storage)": {
        "encoding": "mapping",
        "key": "t_uint256",
        "label": "mapping(uint256 => struct IBookManager.BookKey)",
        "numberOfBytes": "32",
        "value": "t_struct(BookKey)6506_storage"
      },
      "t_struct(BookKey)6506_storage": {
        "encoding": "inplace",
        "label": "struct IBookManager.BookKey",
        "members": [
          {
            "astId": 6491,
            "contract": "contracts/BorrowControllerV2.sol:BorrowControllerV2",
            "label": "base",
            "offset": 0,
            "slot": "0",
            "type": "t_userDefinedValueType(Currency)5975"
          },
          {
            "astId": 6493,
            "contract": "contracts/BorrowControllerV2.sol:BorrowControllerV2",
            "label": "unit",
            "offset": 20,
            "slot": "0",
            "type": "t_uint64"
          },
          {
            "astId": 6496,
            "contract": "contracts/BorrowControllerV2.sol:BorrowControllerV2",
            "label": "quote",
            "offset": 0,
            "slot": "1",
            "type": "t_userDefinedValueType(Currency)5975"
          },
          {
            "astId": 6499,
            "contract": "contracts/BorrowControllerV2.sol:BorrowControllerV2",
            "label": "makerPolicy",
            "offset": 20,
            "slot": "1",
            "type": "t_userDefinedValueType(FeePolicy)6147"
          },
          {
            "astId": 6502,
            "contract": "contracts/BorrowControllerV2.sol:BorrowControllerV2",
            "label": "hooks",
            "offset": 0,
            "slot": "2",
            "type": "t_contract(IHooks)7338"
          },
          {
            "astId": 6505,
            "contract": "contracts/BorrowControllerV2.sol:BorrowControllerV2",
            "label": "takerPolicy",
            "offset": 20,
            "slot": "2",
            "type": "t_userDefinedValueType(FeePolicy)6147"
          }
        ],
        "numberOfBytes": "96"
      },
      "t_uint256": {
        "encoding": "inplace",
        "label": "uint256",
        "numberOfBytes": "32"
      },
      "t_uint64": {
        "encoding": "inplace",
        "label": "uint64",
        "numberOfBytes": "8"
      },
      "t_userDefinedValueType(Currency)5975": {
        "encoding": "inplace",
        "label": "Currency",
        "numberOfBytes": "20"
      },
      "t_userDefinedValueType(FeePolicy)6147": {
        "encoding": "inplace",
        "label": "FeePolicy",
        "numberOfBytes": "3"
      }
    }
  }
}