{
  "address": "0xf541568E2d46AAc4A3724C3c5ae4027205C5b6b5",
  "abi": [
    {
      "inputs": [
        {
          "internalType": "address",
          "name": "wrapped1155Factory",
          "type": "address"
        },
        {
          "internalType": "address",
          "name": "cloberController",
          "type": "address"
        },
        {
          "internalType": "address",
          "name": "bookManager",
          "type": "address"
        },
        {
          "internalType": "address",
          "name": "couponManager",
          "type": "address"
        },
        {
          "internalType": "address",
          "name": "weth",
          "type": "address"
        },
        {
          "internalType": "address",
          "name": "bondPositionManager",
          "type": "address"
        }
      ],
      "stateMutability": "nonpayable",
      "type": "constructor"
    },
    {
      "inputs": [
        {
          "internalType": "address",
          "name": "target",
          "type": "address"
        }
      ],
      "name": "AddressEmptyCode",
      "type": "error"
    },
    {
      "inputs": [
        {
          "internalType": "address",
          "name": "account",
          "type": "address"
        }
      ],
      "name": "AddressInsufficientBalance",
      "type": "error"
    },
    {
      "inputs": [],
      "name": "ControllerSlippage",
      "type": "error"
    },
    {
      "inputs": [],
      "name": "FailedInnerCall",
      "type": "error"
    },
    {
      "inputs": [],
      "name": "InvalidAccess",
      "type": "error"
    },
    {
      "inputs": [],
      "name": "InvalidMarket",
      "type": "error"
    },
    {
      "inputs": [
        {
          "internalType": "address",
          "name": "owner",
          "type": "address"
        }
      ],
      "name": "OwnableInvalidOwner",
      "type": "error"
    },
    {
      "inputs": [
        {
          "internalType": "address",
          "name": "account",
          "type": "address"
        }
      ],
      "name": "OwnableUnauthorizedAccount",
      "type": "error"
    },
    {
      "inputs": [],
      "name": "Reentrancy",
      "type": "error"
    },
    {
      "inputs": [
        {
          "internalType": "uint256",
          "name": "value",
          "type": "uint256"
        }
      ],
      "name": "SafeCastOverflowedUintToInt",
      "type": "error"
    },
    {
      "inputs": [
        {
          "internalType": "address",
          "name": "token",
          "type": "address"
        }
      ],
      "name": "SafeERC20FailedOperation",
      "type": "error"
    },
    {
      "anonymous": false,
      "inputs": [
        {
          "indexed": true,
          "internalType": "uint256",
          "name": "positionId",
          "type": "uint256"
        },
        {
          "indexed": false,
          "internalType": "int256",
          "name": "cost",
          "type": "int256"
        },
        {
          "components": [
            {
              "components": [
                {
                  "internalType": "address",
                  "name": "asset",
                  "type": "address"
                },
                {
                  "internalType": "Epoch",
                  "name": "epoch",
                  "type": "uint16"
                }
              ],
              "internalType": "struct CouponKey",
              "name": "key",
              "type": "tuple"
            },
            {
              "internalType": "uint256",
              "name": "amount",
              "type": "uint256"
            }
          ],
          "indexed": false,
          "internalType": "struct Coupon[]",
          "name": "couponsToBuy",
          "type": "tuple[]"
        },
        {
          "components": [
            {
              "components": [
                {
                  "internalType": "address",
                  "name": "asset",
                  "type": "address"
                },
                {
                  "internalType": "Epoch",
                  "name": "epoch",
                  "type": "uint16"
                }
              ],
              "internalType": "struct CouponKey",
              "name": "key",
              "type": "tuple"
            },
            {
              "internalType": "uint256",
              "name": "amount",
              "type": "uint256"
            }
          ],
          "indexed": false,
          "internalType": "struct Coupon[]",
          "name": "couponsToSell",
          "type": "tuple[]"
        }
      ],
      "name": "CouponTrade",
      "type": "event"
    },
    {
      "anonymous": false,
      "inputs": [
        {
          "indexed": true,
          "internalType": "address",
          "name": "previousOwner",
          "type": "address"
        },
        {
          "indexed": true,
          "internalType": "address",
          "name": "newOwner",
          "type": "address"
        }
      ],
      "name": "OwnershipTransferStarted",
      "type": "event"
    },
    {
      "anonymous": false,
      "inputs": [
        {
          "indexed": true,
          "internalType": "address",
          "name": "previousOwner",
          "type": "address"
        },
        {
          "indexed": true,
          "internalType": "address",
          "name": "newOwner",
          "type": "address"
        }
      ],
      "name": "OwnershipTransferred",
      "type": "event"
    },
    {
      "anonymous": false,
      "inputs": [
        {
          "indexed": true,
          "internalType": "address",
          "name": "asset",
          "type": "address"
        },
        {
          "indexed": true,
          "internalType": "Epoch",
          "name": "epoch",
          "type": "uint16"
        },
        {
          "indexed": false,
          "internalType": "BookId",
          "name": "sellMarketBookId",
          "type": "uint192"
        },
        {
          "indexed": false,
          "internalType": "BookId",
          "name": "buyMarketBookId",
          "type": "uint192"
        }
      ],
      "name": "SetCouponMarket",
      "type": "event"
    },
    {
      "inputs": [],
      "name": "acceptOwnership",
      "outputs": [],
      "stateMutability": "nonpayable",
      "type": "function"
    },
    {
      "inputs": [
        {
          "internalType": "uint256",
          "name": "positionId",
          "type": "uint256"
        },
        {
          "internalType": "uint256",
          "name": "amount",
          "type": "uint256"
        },
        {
          "internalType": "Epoch",
          "name": "expiredWith",
          "type": "uint16"
        },
        {
          "internalType": "int256",
          "name": "interestThreshold",
          "type": "int256"
        },
        {
          "components": [
            {
              "internalType": "uint256",
              "name": "permitAmount",
              "type": "uint256"
            },
            {
              "components": [
                {
                  "internalType": "uint256",
                  "name": "deadline",
                  "type": "uint256"
                },
                {
                  "internalType": "uint8",
                  "name": "v",
                  "type": "uint8"
                },
                {
                  "internalType": "bytes32",
                  "name": "r",
                  "type": "bytes32"
                },
                {
                  "internalType": "bytes32",
                  "name": "s",
                  "type": "bytes32"
                }
              ],
              "internalType": "struct PermitSignature",
              "name": "signature",
              "type": "tuple"
            }
          ],
          "internalType": "struct ERC20PermitParams",
          "name": "tokenPermitParams",
          "type": "tuple"
        },
        {
          "components": [
            {
              "internalType": "uint256",
              "name": "deadline",
              "type": "uint256"
            },
            {
              "internalType": "uint8",
              "name": "v",
              "type": "uint8"
            },
            {
              "internalType": "bytes32",
              "name": "r",
              "type": "bytes32"
            },
            {
              "internalType": "bytes32",
              "name": "s",
              "type": "bytes32"
            }
          ],
          "internalType": "struct PermitSignature",
          "name": "positionPermitParams",
          "type": "tuple"
        }
      ],
      "name": "adjust",
      "outputs": [],
      "stateMutability": "payable",
      "type": "function"
    },
    {
      "inputs": [
        {
          "internalType": "address",
          "name": "asset",
          "type": "address"
        },
        {
          "internalType": "uint256",
          "name": "amount",
          "type": "uint256"
        },
        {
          "internalType": "Epoch",
          "name": "expiredWith",
          "type": "uint16"
        },
        {
          "internalType": "int256",
          "name": "minEarnInterest",
          "type": "int256"
        },
        {
          "components": [
            {
              "internalType": "uint256",
              "name": "permitAmount",
              "type": "uint256"
            },
            {
              "components": [
                {
                  "internalType": "uint256",
                  "name": "deadline",
                  "type": "uint256"
                },
                {
                  "internalType": "uint8",
                  "name": "v",
                  "type": "uint8"
                },
                {
                  "internalType": "bytes32",
                  "name": "r",
                  "type": "bytes32"
                },
                {
                  "internalType": "bytes32",
                  "name": "s",
                  "type": "bytes32"
                }
              ],
              "internalType": "struct PermitSignature",
              "name": "signature",
              "type": "tuple"
            }
          ],
          "internalType": "struct ERC20PermitParams",
          "name": "tokenPermitParams",
          "type": "tuple"
        }
      ],
      "name": "deposit",
      "outputs": [
        {
          "internalType": "uint256",
          "name": "positionId",
          "type": "uint256"
        }
      ],
      "stateMutability": "payable",
      "type": "function"
    },
    {
      "inputs": [
        {
          "components": [
            {
              "internalType": "address",
              "name": "asset",
              "type": "address"
            },
            {
              "internalType": "Epoch",
              "name": "epoch",
              "type": "uint16"
            }
          ],
          "internalType": "struct CouponKey",
          "name": "couponKey",
          "type": "tuple"
        }
      ],
      "name": "getCouponMarket",
      "outputs": [
        {
          "components": [
            {
              "internalType": "Currency",
              "name": "base",
              "type": "address"
            },
            {
              "internalType": "uint64",
              "name": "unit",
              "type": "uint64"
            },
            {
              "internalType": "Currency",
              "name": "quote",
              "type": "address"
            },
            {
              "internalType": "FeePolicy",
              "name": "makerPolicy",
              "type": "uint24"
            },
            {
              "internalType": "contract IHooks",
              "name": "hooks",
              "type": "address"
            },
            {
              "internalType": "FeePolicy",
              "name": "takerPolicy",
              "type": "uint24"
            }
          ],
          "internalType": "struct IBookManager.BookKey",
          "name": "",
          "type": "tuple"
        },
        {
          "components": [
            {
              "internalType": "Currency",
              "name": "base",
              "type": "address"
            },
            {
              "internalType": "uint64",
              "name": "unit",
              "type": "uint64"
            },
            {
              "internalType": "Currency",
              "name": "quote",
              "type": "address"
            },
            {
              "internalType": "FeePolicy",
              "name": "makerPolicy",
              "type": "uint24"
            },
            {
              "internalType": "contract IHooks",
              "name": "hooks",
              "type": "address"
            },
            {
              "internalType": "FeePolicy",
              "name": "takerPolicy",
              "type": "uint24"
            }
          ],
          "internalType": "struct IBookManager.BookKey",
          "name": "",
          "type": "tuple"
        }
      ],
      "stateMutability": "view",
      "type": "function"
    },
    {
      "inputs": [
        {
          "internalType": "address",
          "name": "",
          "type": "address"
        },
        {
          "internalType": "address",
          "name": "",
          "type": "address"
        },
        {
          "internalType": "uint256[]",
          "name": "",
          "type": "uint256[]"
        },
        {
          "internalType": "uint256[]",
          "name": "",
          "type": "uint256[]"
        },
        {
          "internalType": "bytes",
          "name": "",
          "type": "bytes"
        }
      ],
      "name": "onERC1155BatchReceived",
      "outputs": [
        {
          "internalType": "bytes4",
          "name": "",
          "type": "bytes4"
        }
      ],
      "stateMutability": "nonpayable",
      "type": "function"
    },
    {
      "inputs": [
        {
          "internalType": "address",
          "name": "",
          "type": "address"
        },
        {
          "internalType": "address",
          "name": "",
          "type": "address"
        },
        {
          "internalType": "uint256",
          "name": "",
          "type": "uint256"
        },
        {
          "internalType": "uint256",
          "name": "",
          "type": "uint256"
        },
        {
          "internalType": "bytes",
          "name": "",
          "type": "bytes"
        }
      ],
      "name": "onERC1155Received",
      "outputs": [
        {
          "internalType": "bytes4",
          "name": "",
          "type": "bytes4"
        }
      ],
      "stateMutability": "nonpayable",
      "type": "function"
    },
    {
      "inputs": [],
      "name": "owner",
      "outputs": [
        {
          "internalType": "address",
          "name": "",
          "type": "address"
        }
      ],
      "stateMutability": "view",
      "type": "function"
    },
    {
      "inputs": [],
      "name": "pendingOwner",
      "outputs": [
        {
          "internalType": "address",
          "name": "",
          "type": "address"
        }
      ],
      "stateMutability": "view",
      "type": "function"
    },
    {
      "inputs": [
        {
          "internalType": "bytes",
          "name": "data",
          "type": "bytes"
        }
      ],
      "name": "positionLockAcquired",
      "outputs": [
        {
          "internalType": "bytes",
          "name": "result",
          "type": "bytes"
        }
      ],
      "stateMutability": "nonpayable",
      "type": "function"
    },
    {
      "inputs": [],
      "name": "renounceOwnership",
      "outputs": [],
      "stateMutability": "nonpayable",
      "type": "function"
    },
    {
      "inputs": [
        {
          "components": [
            {
              "internalType": "address",
              "name": "asset",
              "type": "address"
            },
            {
              "internalType": "Epoch",
              "name": "epoch",
              "type": "uint16"
            }
          ],
          "internalType": "struct CouponKey",
          "name": "couponKey",
          "type": "tuple"
        },
        {
          "components": [
            {
              "internalType": "Currency",
              "name": "base",
              "type": "address"
            },
            {
              "internalType": "uint64",
              "name": "unit",
              "type": "uint64"
            },
            {
              "internalType": "Currency",
              "name": "quote",
              "type": "address"
            },
            {
              "internalType": "FeePolicy",
              "name": "makerPolicy",
              "type": "uint24"
            },
            {
              "internalType": "contract IHooks",
              "name": "hooks",
              "type": "address"
            },
            {
              "internalType": "FeePolicy",
              "name": "takerPolicy",
              "type": "uint24"
            }
          ],
          "internalType": "struct IBookManager.BookKey",
          "name": "sellBookKey",
          "type": "tuple"
        },
        {
          "components": [
            {
              "internalType": "Currency",
              "name": "base",
              "type": "address"
            },
            {
              "internalType": "uint64",
              "name": "unit",
              "type": "uint64"
            },
            {
              "internalType": "Currency",
              "name": "quote",
              "type": "address"
            },
            {
              "internalType": "FeePolicy",
              "name": "makerPolicy",
              "type": "uint24"
            },
            {
              "internalType": "contract IHooks",
              "name": "hooks",
              "type": "address"
            },
            {
              "internalType": "FeePolicy",
              "name": "takerPolicy",
              "type": "uint24"
            }
          ],
          "internalType": "struct IBookManager.BookKey",
          "name": "buyBookKey",
          "type": "tuple"
        }
      ],
      "name": "setCouponBookKey",
      "outputs": [],
      "stateMutability": "nonpayable",
      "type": "function"
    },
    {
      "inputs": [
        {
          "internalType": "bytes4",
          "name": "interfaceId",
          "type": "bytes4"
        }
      ],
      "name": "supportsInterface",
      "outputs": [
        {
          "internalType": "bool",
          "name": "",
          "type": "bool"
        }
      ],
      "stateMutability": "view",
      "type": "function"
    },
    {
      "inputs": [
        {
          "internalType": "address",
          "name": "newOwner",
          "type": "address"
        }
      ],
      "name": "transferOwnership",
      "outputs": [],
      "stateMutability": "nonpayable",
      "type": "function"
    },
    {
      "stateMutability": "payable",
      "type": "receive"
    }
  ],
  "transactionHash": "0xf03f3515f1f12c84dd0a20a36fb70b00056c94897e9445f24eb6f0e93b640302",
  "args": [
    "0xfcBE16BfD991E4949244E59d9b524e6964b8BB75",
    "0x2489e8daffb7A4900074840C24e8096A25e2Eeb0",
    "0x6411E5f824E1386d62ea20bFE5d815933F7E8491",
    "0xF4723F17a6CCb33cF7221636cc07ee7752F865FA",
    "0xE0dBCB42CCAc63C949cE3EF879A647DDb662916d",
    "0x9ef962bC0EacCe2aCf85Bd2456Af65B63d0746Fb"
  ],
  "numDeployments": 1,
  "solcInputHash": "1137a8c1aa36304c07d3c419e87543a4",
  "bytecode": "0x610140604052600160025534801561001657600080fd5b50604051614d07380380614d0783398101604081905261003591610193565b8585858585338061006057604051631e4fbdf760e01b81526000600482015260240160405180910390fd5b6100698161010b565b506001600160a01b0385811660805284811660a081905283821660c081905291851660e05260405163a22cb46560e01b815260048101919091526001602482015263a22cb46590604401600060405180830381600087803b1580156100cd57600080fd5b505af11580156100e1573d6000803e3d6000fd5b5050506001600160a01b039182166101005250949094166101205250610207975050505050505050565b600180546001600160a01b031916905561012481610127565b50565b600080546001600160a01b038381166001600160a01b0319831681178455604051919092169283917f8be0079c531659141344cd1fd0a4f28419497f9722a3daafe3b4186f6b6457e09190a35050565b80516001600160a01b038116811461018e57600080fd5b919050565b60008060008060008060c087890312156101ac57600080fd5b6101b587610177565b95506101c360208801610177565b94506101d160408801610177565b93506101df60608801610177565b92506101ed60808801610177565b91506101fb60a08801610177565b90509295509295509295565b60805160a05160c05160e05161010051610120516149e6610321600039600081816103560152818161040f015281816104bd015281816105a10152818161063501528181610705015281816107b80152818161087701528181610916015281816109ad01528181610afd01528181610b9401528181610be601528181610cb301528181610ff6015261110e015260008181610a4f01528181610d8c01528181610e1d01528181610f1c0152818161119201526112230152600081816114a401526115690152600081816113ad015281816119cc01526127bb015260008181611db50152818161202d015281816122cb015281816123bd015261247901526000818161137e015281816119fb015261278e01526149e66000f3fe6080604052600436106100d65760003560e01c80637b3f203f1161007f578063bf4415dc11610059578063bf4415dc1461022f578063e30c39781461025d578063f23a6e611461027b578063f2fde38b146102c057600080fd5b80637b3f203f146101a45780638da5cb5b146101c4578063bc197c81146101f657600080fd5b80636c2da999116100b05780636c2da99914610159578063715018a61461017a57806379ba50971461018f57600080fd5b806301ffc9a7146100e257806346a114e214610117578063566814831461014457600080fd5b366100dd57005b600080fd5b3480156100ee57600080fd5b506101026100fd3660046134c8565b6102e0565b60405190151581526020015b60405180910390f35b34801561012357600080fd5b50610137610132366004613603565b610349565b60405161010e9190613688565b6101576101523660046136bd565b610a1d565b005b61016c610167366004613743565b610ee8565b60405190815260200161010e565b34801561018657600080fd5b506101576112ef565b34801561019b57600080fd5b50610157611303565b3480156101b057600080fd5b506101576101bf3660046137f4565b61134c565b3480156101d057600080fd5b506000546001600160a01b03165b6040516001600160a01b03909116815260200161010e565b34801561020257600080fd5b506102166102113660046138ca565b611770565b6040516001600160e01b0319909116815260200161010e565b34801561023b57600080fd5b5061024f61024a366004613978565b61179b565b60405161010e929190613994565b34801561026957600080fd5b506001546001600160a01b03166101de565b34801561028757600080fd5b50610216610296366004613a60565b7ff23a6e610000000000000000000000000000000000000000000000000000000095945050505050565b3480156102cc57600080fd5b506101576102db366004613ac9565b61191d565b60006001600160e01b031982167f4e2312e000000000000000000000000000000000000000000000000000000000148061034357507f01ffc9a7000000000000000000000000000000000000000000000000000000006001600160e01b03198316145b92915050565b6060336001600160a01b037f0000000000000000000000000000000000000000000000000000000000000000161461039457604051633006171960e21b815260040160405180910390fd5b600080838060200190518101906103ab9190613b36565b9550909250905060008290036104a4576000848060200190518101906103d19190613b90565b6040517f6a6278420000000000000000000000000000000000000000000000000000000081526001600160a01b0380841660048301529197509192507f00000000000000000000000000000000000000000000000000000000000000001690636a627842906024016020604051808303816000875af1158015610458573d6000803e3d6000fd5b505050506040513d601f19601f8201168201806040525081019061047c9190613be1565b92508260405160200161049191815260200190565b6040516020818303038152906040529350505b60405163eb02c30160e01b8152600481018390526000907f00000000000000000000000000000000000000000000000000000000000000006001600160a01b03169063eb02c3019060240160a060405180830381865afa15801561050c573d6000803e3d6000fd5b505050506040513d601f19601f820116820180604052508101906105309190613c25565b90506000858060200190518101906105489190613cb5565b61ffff91909116604085810182905260808601849052517f7c6af77d00000000000000000000000000000000000000000000000000000000815260048101889052602481019390935260448301529150600090819081907f00000000000000000000000000000000000000000000000000000000000000006001600160a01b031690637c6af77d906064016000604051808303816000875af11580156105f2573d6000803e3d6000fd5b505050506040513d6000823e601f3d908101601f1916820160405261061a9190810190613db0565b92509250925060008112156106ce5784516001600160a01b037f000000000000000000000000000000000000000000000000000000000000000016906301e33667903061066685613e33565b6040516001600160e01b031960e086901b1681526001600160a01b0393841660048201529290911660248301526044820152606401600060405180830381600087803b1580156106b557600080fd5b505af11580156106c9573d6000803e3d6000fd5b505050505b825115610777576040517f65ae58470000000000000000000000000000000000000000000000000000000081526001600160a01b037f000000000000000000000000000000000000000000000000000000000000000016906365ae58479061073c9086903090600401613ec8565b600060405180830381600087803b15801561075657600080fd5b505af115801561076a573d6000803e3d6000fd5b505050506107778361198e565b61078986888760000151868689611a5d565b60008113156108d657845161079f908783612617565b845160405163095ea7b360e01b81526001600160a01b037f000000000000000000000000000000000000000000000000000000000000000081166004830152602482018490529091169063095ea7b3906044016020604051808303816000875af1158015610811573d6000803e3d6000fd5b505050506040513d601f19601f820116820180604052508101906108359190613f04565b5084516040517f338b5dea0000000000000000000000000000000000000000000000000000000081526001600160a01b039182166004820152602481018390527f00000000000000000000000000000000000000000000000000000000000000009091169063338b5dea90604401600060405180830381600087803b1580156108bd57600080fd5b505af11580156108d1573d6000803e3d6000fd5b505050505b81511561097e576108e682612630565b6040517fe6ee95e20000000000000000000000000000000000000000000000000000000081526001600160a01b037f0000000000000000000000000000000000000000000000000000000000000000169063e6ee95e29061094b908590600401613f1f565b600060405180830381600087803b15801561096557600080fd5b505af1158015610979573d6000803e3d6000fd5b505050505b6040517faba5b4b3000000000000000000000000000000000000000000000000000000008152600481018890527f00000000000000000000000000000000000000000000000000000000000000006001600160a01b03169063aba5b4b390602401600060405180830381600087803b1580156109f957600080fd5b505af1158015610a0d573d6000803e3d6000fd5b5050505050505050505050919050565b600254600114610a405760405163558a1e0360e11b815260040160405180910390fd5b600280554715801590610ac2577f00000000000000000000000000000000000000000000000000000000000000006001600160a01b031663d0e30db0476040518263ffffffff1660e01b81526004016000604051808303818588803b158015610aa857600080fd5b505af1158015610abc573d6000803e3d6000fd5b50505050505b6040517f6352211e00000000000000000000000000000000000000000000000000000000815260048101889052879033906001600160a01b037f00000000000000000000000000000000000000000000000000000000000000001690636352211e90602401602060405180830381865afa158015610b44573d6000803e3d6000fd5b505050506040513d601f19601f82011682018060405250810190610b689190613f32565b6001600160a01b031614610b8f57604051633006171960e21b815260040160405180910390fd5b610bcc7f00000000000000000000000000000000000000000000000000000000000000008930610bc436889003880188613fcd565b929190612823565b5060405163eb02c30160e01b8152600481018990526000907f00000000000000000000000000000000000000000000000000000000000000006001600160a01b03169063eb02c3019060240160a060405180830381865afa158015610c35573d6000803e3d6000fd5b505050506040513d601f19601f82011682018060405250810190610c599190613c25565b8051909150610c7b903330610c73368a90038a018a613fe9565b9291906128e8565b5060408051602081018a905261ffff891681830152606080820189905282518083039091018152608082019092526001600160a01b037f00000000000000000000000000000000000000000000000000000000000000001690638154831990610cec908d903390869060a001614020565b6040516020818303038152906040526040518263ffffffff1660e01b8152600401610d179190613688565b6000604051808303816000875af1158015610d36573d6000803e3d6000fd5b505050506040513d6000823e601f3d908101601f19168201604052610d5e9190810190614048565b508151610d6b90336128ff565b5050508015610eda576040516370a0823160e01b81523060048201526000907f00000000000000000000000000000000000000000000000000000000000000006001600160a01b0316906370a0823190602401602060405180830381865afa158015610ddb573d6000803e3d6000fd5b505050506040513d601f19601f82011682018060405250810190610dff9190613be1565b90508015610ed857604051632e1a7d4d60e01b8152600481018290527f00000000000000000000000000000000000000000000000000000000000000006001600160a01b031690632e1a7d4d90602401600060405180830381600087803b158015610e6957600080fd5b505af1158015610e7d573d6000803e3d6000fd5b50506040516000925033915083908381818185875af1925050503d8060008114610ec3576040519150601f19603f3d011682016040523d82523d6000602084013e610ec8565b606091505b5050905080610ed657600080fd5b505b505b505060016002555050505050565b6000600254600114610f0d5760405163558a1e0360e11b815260040160405180910390fd5b600280554715801590610f8f577f00000000000000000000000000000000000000000000000000000000000000006001600160a01b031663d0e30db0476040518263ffffffff1660e01b81526004016000604051808303818588803b158015610f7557600080fd5b505af1158015610f89573d6000803e3d6000fd5b50505050505b610fac610f9b886129f9565b3330610c7336889003880188613fe9565b5060008686610fba87613e33565b604051602001610fe19392919092835261ffff919091166020830152604082015260600190565b604051602081830303815290604052905060007f00000000000000000000000000000000000000000000000000000000000000006001600160a01b031663815483196000338c8660405160200161103992919061407d565b60408051601f198184030181529082905261105893929160200161409f565b6040516020818303038152906040526040518263ffffffff1660e01b81526004016110839190613688565b6000604051808303816000875af11580156110a2573d6000803e3d6000fd5b505050506040513d6000823e601f3d908101601f191682016040526110ca9190810190614048565b9050808060200190518101906110e09190613be1565b93506110ec89336128ff565b6040516323b872dd60e01b8152306004820152336024820152604481018590527f00000000000000000000000000000000000000000000000000000000000000006001600160a01b0316906323b872dd90606401600060405180830381600087803b15801561115a57600080fd5b505af115801561116e573d6000803e3d6000fd5b50505050505080156112e0576040516370a0823160e01b81523060048201526000907f00000000000000000000000000000000000000000000000000000000000000006001600160a01b0316906370a0823190602401602060405180830381865afa1580156111e1573d6000803e3d6000fd5b505050506040513d601f19601f820116820180604052508101906112059190613be1565b905080156112de57604051632e1a7d4d60e01b8152600481018290527f00000000000000000000000000000000000000000000000000000000000000006001600160a01b031690632e1a7d4d90602401600060405180830381600087803b15801561126f57600080fd5b505af1158015611283573d6000803e3d6000fd5b50506040516000925033915083908381818185875af1925050503d80600081146112c9576040519150601f19603f3d011682016040523d82523d6000602084013e6112ce565b606091505b50509050806112dc57600080fd5b505b505b50600160025595945050505050565b6112f7612a5d565b6113016000612a8a565b565b60015433906001600160a01b031681146113405760405163118cdaa760e01b81526001600160a01b03821660048201526024015b60405180910390fd5b61134981612a8a565b50565b611354612a5d565b600061135f84612aa3565b90506000611378856020810151905160a09190911b0190565b905060007f00000000000000000000000000000000000000000000000000000000000000006001600160a01b03166308b2ea5e7f000000000000000000000000000000000000000000000000000000000000000084866040518463ffffffff1660e01b81526004016113ec939291906140ca565b602060405180830381865afa158015611409573d6000803e3d6000fd5b505050506040513d601f19601f8201168201806040525081019061142d9190613f32565b9050600061144861144336889003880188614103565b612c69565b9050600061145e61144336889003880188614103565b90506114706040880160208901614190565b604051639b22917d60e01b81526001600160c01b038416600482015267ffffffffffffffff91909116906001600160a01b037f00000000000000000000000000000000000000000000000000000000000000001690639b22917d9060240160c060405180830381865afa1580156114eb573d6000803e3d6000fd5b505050506040513d601f19601f8201168201806040525081019061150f91906141ad565b6020015167ffffffffffffffff161415806115e557506115356040870160208801614190565b604051639b22917d60e01b81526001600160c01b038316600482015267ffffffffffffffff91909116906001600160a01b037f00000000000000000000000000000000000000000000000000000000000000001690639b22917d9060240160c060405180830381865afa1580156115b0573d6000803e3d6000fd5b505050506040513d601f19601f820116820180604052508101906115d491906141ad565b6020015167ffffffffffffffff1614155b80611612575087516001600160a01b03166116066060890160408a01613ac9565b6001600160a01b031614155b8061163b57506001600160a01b03831661162f6020890189613ac9565b6001600160a01b031614155b8061166757506001600160a01b03831661165b6060880160408901613ac9565b6001600160a01b031614155b80611691575087516001600160a01b03166116856020880188613ac9565b6001600160a01b031614155b156116c8576040517f9db8d5b100000000000000000000000000000000000000000000000000000000815260040160405180910390fd5b600084815260036020526040902087906116e2828261422e565b5050600084815260046020526040902086906116fe828261422e565b905050876020015161ffff1688600001516001600160a01b03167f9f5198720ca2a8650d7430bf7d005f703c28af08bf0fe680b0b2ed87415f0d5a848460405161175e9291906001600160c01b0392831681529116602082015260400190565b60405180910390a35050505050505050565b7fbc197c81000000000000000000000000000000000000000000000000000000005b95945050505050565b6040805160c081018252600080825260208201819052918101829052606081018290526080810182905260a08101919091526040805160c081018252600080825260208201819052918101829052606081018290526080810182905260a081019190915260036000611818856020810151905160a09190911b0190565b81526020019081526020016000206004600061183f866020810151905160a09190911b0190565b81526020808201929092526040908101600020815160c0808201845285546001600160a01b03808216845267ffffffffffffffff600160a01b928390048116858901526001808a0154808416878a015262ffffff90859004811660608089019190915260029b8c01548086166080808b019190915290879004831660a0808b01919091528b519889018c528a548088168a528890049095169b88019b909b5291880154808516998701999099529784900488169085015297909401549384169582019590955293909104909116928201929092529094909350915050565b611925612a5d565b600180546001600160a01b0383166001600160a01b031990911681179091556119566000546001600160a01b031690565b6001600160a01b03167f38d16b8cac22d99fc7c124b9cd0de2d3fa1faef420bfe791d8c362d765e2270060405160405180910390a350565b600061199982612c9c565b6040517fa50e72320000000000000000000000000000000000000000000000000000000081529091506001600160a01b037f0000000000000000000000000000000000000000000000000000000000000000169063a50e723290611a279030907f0000000000000000000000000000000000000000000000000000000000000000908790879060040161435d565b600060405180830381600087803b158015611a4157600080fd5b505af1158015611a55573d6000803e3d6000fd5b505050505050565b600083518351611a6d91906143a6565b905060008167ffffffffffffffff811115611a8a57611a8a6134f2565b604051908082528060200260200182016040528015611ab3578160200160208202803683370190505b50905060008267ffffffffffffffff811115611ad157611ad16134f2565b604051908082528060200260200182016040528015611b0457816020015b6060815260200190600190039081611aef5790505b5090506000611b148460016143a6565b67ffffffffffffffff811115611b2c57611b2c6134f2565b604051908082528060200260200182016040528015611b55578160200160208202803683370190505b50905087818581518110611b6b57611b6b6143b9565b60200260200101906001600160a01b031690816001600160a01b03168152505060008651945060005b85811015611d97576003858281518110611bb057611bb06143b9565b60200260200101906006811115611bc957611bc96143cf565b90816006811115611bdc57611bdc6143cf565b81525050600060046000611c188b8581518110611bfb57611bfb6143b9565b6020026020010151600001516020810151905160a09190911b0190565b81526020808201929092526040908101600020815160c08101835281546001600160a01b03808216835267ffffffffffffffff600160a01b928390041695830195909552600183015480861694830185905262ffffff908290048116606084015260029093015494851660808301529093041660a0830152855191925090859084908110611ca857611ca86143b9565b60200260200101906001600160a01b031690816001600160a01b031681525050888281518110611cda57611cda6143b9565b60200260200101516020015183611cf191906143a6565b92506040518060800160405280611d0783612c69565b6001600160c01b03168152602001600081526020018a8481518110611d2e57611d2e6143b9565b602002602001015160200151815260200160405180602001604052806000815250815250604051602001611d629190614421565b604051602081830303815290604052858381518110611d8357611d836143b9565b602090810291909101015250600101611b94565b508015611e335760405163095ea7b360e01b81526001600160a01b037f000000000000000000000000000000000000000000000000000000000000000081166004830152602482018390528a169063095ea7b3906044016020604051808303816000875af1158015611e0d573d6000803e3d6000fd5b505050506040513d601f19601f82011682018060405250810190611e319190613f04565b505b8751945060005b858110156120b457600485828a51611e5291906143a6565b81518110611e6257611e626143b9565b60200260200101906006811115611e7b57611e7b6143cf565b90816006811115611e8e57611e8e6143cf565b81525050600060036000611ead8c8581518110611bfb57611bfb6143b9565b81526020808201929092526040908101600020815160c08101835281546001600160a01b03808216808452600160a01b9283900467ffffffffffffffff16968401969096526001840154808216958401959095529381900462ffffff908116606084015260029093015493841660808301529092041660a08201528a519092508590611f3a9085906143a6565b81518110611f4a57611f4a6143b9565b60200260200101906001600160a01b031690816001600160a01b031681525050898281518110611f7c57611f7c6143b9565b60200260200101516020015192506040518060800160405280611f9e83612c69565b6001600160c01b031681526020016000815260200184815260200160405180602001604052806000815250815250604051602001611fdc9190614421565b60405160208183030381529060405285838b51611ff991906143a6565b81518110612009576120096143b9565b6020908102919091010152805160405163095ea7b360e01b81526001600160a01b037f000000000000000000000000000000000000000000000000000000000000000081166004830152602482018690529091169063095ea7b3906044016020604051808303816000875af1158015612086573d6000803e3d6000fd5b505050506040513d601f19601f820116820180604052508101906120aa9190613f04565b5050600101611e3a565b506000861315612349576040516370a0823160e01b815230600482015286906001600160a01b038b16906370a0823190602401602060405180830381865afa158015612104573d6000803e3d6000fd5b505050506040513d601f19601f820116820180604052508101906121289190613be1565b10156122b4576000896001600160a01b0316632495a5996040518163ffffffff1660e01b8152600401602060405180830381865afa15801561216e573d6000803e3d6000fd5b505050506040513d601f19601f820116820180604052508101906121929190613f32565b6040517fdd62ed3e0000000000000000000000000000000000000000000000000000000081526001600160a01b038e811660048301523060248301529192506122919183169063dd62ed3e90604401602060405180830381865afa1580156121fe573d6000803e3d6000fd5b505050506040513d601f19601f820116820180604052508101906122229190613be1565b6040516370a0823160e01b81526001600160a01b038f811660048301528416906370a0823190602401602060405180830381865afa158015612268573d6000803e3d6000fd5b505050506040513d601f19601f8201168201806040525081019061228c9190613be1565b612d02565b91506122b28c6122a18985612d02565b6001600160a01b038d169190612d1a565b505b60405163095ea7b360e01b81526001600160a01b037f000000000000000000000000000000000000000000000000000000000000000081166004830152602482018890528a169063095ea7b3906044016020604051808303816000875af1158015612323573d6000803e3d6000fd5b505050506040513d601f19601f820116820180604052508101906123479190613f04565b505b6040516370a0823160e01b81523060048201526000906001600160a01b038b16906370a0823190602401602060405180830381865afa158015612390573d6000803e3d6000fd5b505050506040513d601f19601f820116820180604052508101906123b49190613be1565b905060006060807f00000000000000000000000000000000000000000000000000000000000000006001600160a01b0316637658ab058989898686426040518763ffffffff1660e01b815260040161241196959493929190614598565b6000604051808303816000875af1158015612430573d6000803e3d6000fd5b505050506040513d6000823e601f3d908101601f19168201604052612458919081019061465a565b5060008a13156124f75760405163095ea7b360e01b81526001600160a01b037f000000000000000000000000000000000000000000000000000000000000000081166004830152600060248301528e169063095ea7b3906044016020604051808303816000875af11580156124d1573d6000803e3d6000fd5b505050506040513d601f19601f820116820180604052508101906124f59190613f04565b505b6040516370a0823160e01b81523060048201526000906001600160a01b038f16906370a0823190602401602060405180830381865afa15801561253e573d6000803e3d6000fd5b505050506040513d601f19601f820116820180604052508101906125629190613be1565b90508481111561258157612577858203612f87565b600003935061258f565b61258c818603612f87565b93505b505050808812156125cc576040517ff271b55000000000000000000000000000000000000000000000000000000000815260040160405180910390fd5b8b7fea48060ea3a75dd9823b1965dd0353def45dfd2eb0ab0aeac8c6c76effafef42828b8d604051612600939291906146e0565b60405180910390a250505050505050505050505050565b61262b6001600160a01b0384168383612d1a565b505050565b6000815167ffffffffffffffff81111561264c5761264c6134f2565b604051908082528060200260200182016040528015612675578160200160208202803683370190505b5090506000825167ffffffffffffffff811115612694576126946134f2565b6040519080825280602002602001820160405280156126bd578160200160208202803683370190505b50905060005b835181101561274f576126ee8482815181106126e1576126e16143b9565b6020026020010151612fea565b838281518110612700576127006143b9565b60200260200101818152505083818151811061271e5761271e6143b9565b60200260200101516020015182828151811061273c5761273c6143b9565b60209081029190910101526001016126c3565b50600061275b84612c9c565b6040517fa7eaa1860000000000000000000000000000000000000000000000000000000081529091506001600160a01b037f0000000000000000000000000000000000000000000000000000000000000000169063a7eaa186906127eb907f000000000000000000000000000000000000000000000000000000000000000090879087903090889060040161473c565b600060405180830381600087803b15801561280557600080fd5b505af1158015612819573d6000803e3d6000fd5b5050505050505050565b8351600090156128dc5784516020860151604080880151606089015191517f7ac2ff7b0000000000000000000000000000000000000000000000000000000081526001600160a01b03878116600483015260248201899052604482019590955260ff9093166064840152608483015260a482015290851690637ac2ff7b9060c401600060405180830381600087803b1580156128be57600080fd5b505af19250505080156128cf575060015b156128dc575060016128e0565b5060005b949350505050565b600061179285602001518587600001518686612fff565b6040516370a0823160e01b81523060048201526000906001600160a01b038416906370a0823190602401602060405180830381865afa158015612946573d6000803e3d6000fd5b505050506040513d601f19601f8201168201806040525081019061296a9190613be1565b90508060000361297957505050565b6040517ffcd3533c000000000000000000000000000000000000000000000000000000008152600481018290526001600160a01b03838116602483015284169063fcd3533c90604401600060405180830381600087803b1580156129dc57600080fd5b505af11580156129f0573d6000803e3d6000fd5b50505050505050565b6000816001600160a01b0316632495a5996040518163ffffffff1660e01b8152600401602060405180830381865afa158015612a39573d6000803e3d6000fd5b505050506040513d601f19601f820116820180604052508101906103439190613f32565b6000546001600160a01b031633146113015760405163118cdaa760e01b8152336004820152602401611337565b600180546001600160a01b0319169055611349816130cc565b6060600082600001516001600160a01b03166395d89b416040518163ffffffff1660e01b8152600401600060405180830381865afa158015612ae9573d6000803e3d6000fd5b505050506040513d6000823e601f3d908101601f19168201604052612b11919081019061479a565b90506000612b26846020015161ffff1661311c565b905060008282604051602001612b3d9291906147e3565b604051602081830303815290604052612b5590614865565b905060008383604051602001612b6c929190614889565b604051602081830303815290604052612b8490614865565b9050825184510160020280601e0183019250806006018201915050818187600001516001600160a01b031663313ce5676040518163ffffffff1660e01b8152600401602060405180830381865afa158015612be3573d6000803e3d6000fd5b505050506040513d601f19601f82011682018060405250810190612c0791906148e1565b60f81b604051602001612c4f9392919092835260208301919091527fff0000000000000000000000000000000000000000000000000000000000000016604082015260410190565b604051602081830303815290604052945050505050919050565b60008082604051602001612c7d91906148fe565b60408051601f1981840301815291905280516020909101209392505050565b606060005b8251811015612cfc5781612cd1848381518110612cc057612cc06143b9565b602002602001015160000151612aa3565b604051602001612ce2929190614965565b60408051601f198184030181529190529150600101612ca1565b50919050565b6000818310612d115781612d13565b825b9392505050565b6000836001600160a01b0316632495a5996040518163ffffffff1660e01b8152600401602060405180830381865afa158015612d5a573d6000803e3d6000fd5b505050506040513d601f19601f82011682018060405250810190612d7e9190613f32565b6040516370a0823160e01b81523060048201529091506000906001600160a01b038616906370a0823190602401602060405180830381865afa158015612dc8573d6000803e3d6000fd5b505050506040513d601f19601f82011682018060405250810190612dec9190613be1565b6040516370a0823160e01b81523060048201529091506000906001600160a01b038416906370a0823190602401602060405180830381865afa158015612e36573d6000803e3d6000fd5b505050506040513d601f19601f82011682018060405250810190612e5a9190613be1565b9050612e6681836143a6565b841115612e8c57612e876001600160a01b03841686308588038590036131bc565b508083035b8015611a555760405163095ea7b360e01b81526001600160a01b0387811660048301526024820183905284169063095ea7b3906044016020604051808303816000875af1158015612ee1573d6000803e3d6000fd5b505050506040513d601f19601f82011682018060405250810190612f059190613f04565b506040517f94bf804d000000000000000000000000000000000000000000000000000000008152600481018290523060248201526001600160a01b038716906394bf804d90604401600060405180830381600087803b158015612f6757600080fd5b505af1158015612f7b573d6000803e3d6000fd5b50505050505050505050565b60007f7fffffffffffffffffffffffffffffffffffffffffffffffffffffffffffffff821115612fe6576040517f24775e0600000000000000000000000000000000000000000000000000000000815260048101839052602401611337565b5090565b80516020810151905160009160a01b01610343565b8451600090156130c0578551602087015160408089015160608a015191517fd505accf0000000000000000000000000000000000000000000000000000000081526001600160a01b0388811660048301528781166024830152604482018a9052606482019590955260ff909316608484015260a483015260c48201529086169063d505accf9060e401600060405180830381600087803b1580156130a257600080fd5b505af19250505080156130b3575060015b156130c057506001611792565b50600095945050505050565b600080546001600160a01b038381166001600160a01b0319831681178455604051919092169283917f8be0079c531659141344cd1fd0a4f28419497f9722a3daafe3b4186f6b6457e09190a35050565b6060600061312983613231565b600101905060008167ffffffffffffffff811115613149576131496134f2565b6040519080825280601f01601f191660200182016040528015613173576020820181803683370190505b5090508181016020015b600019017f3031323334353637383961626364656600000000000000000000000000000000600a86061a8153600a850494508461317d57509392505050565b604080516001600160a01b0385811660248301528416604482015260648082018490528251808303909101815260849091019091526020810180517bffffffffffffffffffffffffffffffffffffffffffffffffffffffff166323b872dd60e01b17905261322b908590613313565b50505050565b6000807a184f03e93ff9f4daa797ed6e38ed64bf6a1f010000000000000000831061327a577a184f03e93ff9f4daa797ed6e38ed64bf6a1f010000000000000000830492506040015b6d04ee2d6d415b85acef810000000083106132a6576d04ee2d6d415b85acef8100000000830492506020015b662386f26fc1000083106132c457662386f26fc10000830492506010015b6305f5e10083106132dc576305f5e100830492506008015b61271083106132f057612710830492506004015b60648310613302576064830492506002015b600a83106103435760010192915050565b60006133286001600160a01b0384168361338f565b9050805160001415801561334d57508080602001905181019061334b9190613f04565b155b1561262b576040517f5274afe70000000000000000000000000000000000000000000000000000000081526001600160a01b0384166004820152602401611337565b6060612d138383600084600080856001600160a01b031684866040516133b59190614994565b60006040518083038185875af1925050503d80600081146133f2576040519150601f19603f3d011682016040523d82523d6000602084013e6133f7565b606091505b5091509150613407868383613411565b9695505050505050565b6060826134265761342182613486565b612d13565b815115801561343d57506001600160a01b0384163b155b1561347f576040517f9996b3150000000000000000000000000000000000000000000000000000000081526001600160a01b0385166004820152602401611337565b5080612d13565b8051156134965780518082602001fd5b6040517f1425ea4200000000000000000000000000000000000000000000000000000000815260040160405180910390fd5b6000602082840312156134da57600080fd5b81356001600160e01b031981168114612d1357600080fd5b634e487b7160e01b600052604160045260246000fd5b6040805190810167ffffffffffffffff8111828210171561352b5761352b6134f2565b60405290565b60405160c0810167ffffffffffffffff8111828210171561352b5761352b6134f2565b604051601f8201601f1916810167ffffffffffffffff8111828210171561357d5761357d6134f2565b604052919050565b600067ffffffffffffffff82111561359f5761359f6134f2565b50601f01601f191660200190565b600082601f8301126135be57600080fd5b81356135d16135cc82613585565b613554565b8181528460208386010111156135e657600080fd5b816020850160208301376000918101602001919091529392505050565b60006020828403121561361557600080fd5b813567ffffffffffffffff81111561362c57600080fd5b6128e0848285016135ad565b60005b8381101561365357818101518382015260200161363b565b50506000910152565b60008151808452613674816020860160208601613638565b601f01601f19169290920160200192915050565b602081526000612d13602083018461365c565b61ffff8116811461134957600080fd5b600060a08284031215612cfc57600080fd5b6000806000806000808688036101a08112156136d857600080fd5b873596506020880135955060408801356136f18161369b565b9450606088013593506137078960808a016136ab565b9250608061011f198201121561371c57600080fd5b50610120870190509295509295509295565b6001600160a01b038116811461134957600080fd5b6000806000806000610120868803121561375c57600080fd5b85356137678161372e565b945060208601359350604086013561377e8161369b565b92506060860135915061379487608088016136ab565b90509295509295909350565b6000604082840312156137b257600080fd5b6137ba613508565b905081356137c78161372e565b815260208201356137d78161369b565b602082015292915050565b600060c08284031215612cfc57600080fd5b60008060006101c0848603121561380a57600080fd5b61381485856137a0565b925061382385604086016137e2565b91506138338561010086016137e2565b90509250925092565b600067ffffffffffffffff821115613856576138566134f2565b5060051b60200190565b600082601f83011261387157600080fd5b813560206138816135cc8361383c565b8083825260208201915060208460051b8701019350868411156138a357600080fd5b602086015b848110156138bf57803583529183019183016138a8565b509695505050505050565b600080600080600060a086880312156138e257600080fd5b85356138ed8161372e565b945060208601356138fd8161372e565b9350604086013567ffffffffffffffff8082111561391a57600080fd5b61392689838a01613860565b9450606088013591508082111561393c57600080fd5b61394889838a01613860565b9350608088013591508082111561395e57600080fd5b5061396b888289016135ad565b9150509295509295909350565b60006040828403121561398a57600080fd5b612d1383836137a0565b61018081016139fc82856001600160a01b0380825116835267ffffffffffffffff6020830151166020840152806040830151166040840152606082015162ffffff80821660608601528260808501511660808601528060a08501511660a08601525050505050565b82516001600160a01b0390811660c0840152602084015167ffffffffffffffff1660e084015260408401518116610100840152606084015162ffffff908116610120850152608085015190911661014084015260a084015116610160830152612d13565b600080600080600060a08688031215613a7857600080fd5b8535613a838161372e565b94506020860135613a938161372e565b93506040860135925060608601359150608086013567ffffffffffffffff811115613abd57600080fd5b61396b888289016135ad565b600060208284031215613adb57600080fd5b8135612d138161372e565b6000613af46135cc84613585565b9050828152838383011115613b0857600080fd5b612d13836020830184613638565b600082601f830112613b2757600080fd5b612d1383835160208501613ae6565b600080600060608486031215613b4b57600080fd5b835192506020840151613b5d8161372e565b604085015190925067ffffffffffffffff811115613b7a57600080fd5b613b8686828701613b16565b9150509250925092565b60008060408385031215613ba357600080fd5b8251613bae8161372e565b602084015190925067ffffffffffffffff811115613bcb57600080fd5b613bd785828601613b16565b9150509250929050565b600060208284031215613bf357600080fd5b5051919050565b67ffffffffffffffff8116811461134957600080fd5b80518015158114613c2057600080fd5b919050565b600060a08284031215613c3757600080fd5b60405160a0810181811067ffffffffffffffff82111715613c5a57613c5a6134f2565b6040528251613c688161372e565b81526020830151613c7881613bfa565b60208201526040830151613c8b8161369b565b6040820152613c9c60608401613c10565b6060820152608083015160808201528091505092915050565b600080600060608486031215613cca57600080fd5b835192506020840151613cdc8161369b565b80925050604084015190509250925092565b600082601f830112613cff57600080fd5b81516020613d0f6135cc8361383c565b82815260609283028501820192828201919087851115613d2e57600080fd5b8387015b85811015613da35780890382811215613d4b5760008081fd5b613d53613508565b604080831215613d635760008081fd5b613d6b613508565b92508351613d788161372e565b835283880151613d878161369b565b8389015291815290820151818701528452928401928101613d32565b5090979650505050505050565b600080600060608486031215613dc557600080fd5b835167ffffffffffffffff80821115613ddd57600080fd5b613de987838801613cee565b94506020860151915080821115613dff57600080fd5b50613e0c86828701613cee565b925050604084015190509250925092565b634e487b7160e01b600052601160045260246000fd5b60007f80000000000000000000000000000000000000000000000000000000000000008203613e6457613e64613e1d565b5060000390565b600081518084526020808501945080840160005b83811015613ebd578151805180516001600160a01b0316895284015161ffff1684890152830151604088015260609096019590820190600101613e7f565b509495945050505050565b606081526000613edb6060830185613e6b565b6001600160a01b0384166020840152828103604084015260008152602081019150509392505050565b600060208284031215613f1657600080fd5b612d1382613c10565b602081526000612d136020830184613e6b565b600060208284031215613f4457600080fd5b8151612d138161372e565b60ff8116811461134957600080fd5b600060808284031215613f7057600080fd5b6040516080810181811067ffffffffffffffff82111715613f9357613f936134f2565b604052823581529050806020830135613fab81613f4f565b8060208301525060408301356040820152606083013560608201525092915050565b600060808284031215613fdf57600080fd5b612d138383613f5e565b600060a08284031215613ffb57600080fd5b614003613508565b823581526140148460208501613f5e565b60208201529392505050565b8381526001600160a01b0383166020820152606060408201526000611792606083018461365c565b60006020828403121561405a57600080fd5b815167ffffffffffffffff81111561407157600080fd5b6128e084828501613b16565b6001600160a01b03831681526040602082015260006128e0604083018461365c565b60ff841681526001600160a01b0383166020820152606060408201526000611792606083018461365c565b6001600160a01b0384168152826020820152606060408201526000611792606083018461365c565b62ffffff8116811461134957600080fd5b600060c0828403121561411557600080fd5b61411d613531565b82356141288161372e565b8152602083013561413881613bfa565b6020820152604083013561414b8161372e565b6040820152606083013561415e816140f2565b606082015260808301356141718161372e565b608082015260a0830135614184816140f2565b60a08201529392505050565b6000602082840312156141a257600080fd5b8135612d1381613bfa565b600060c082840312156141bf57600080fd5b6141c7613531565b82516141d28161372e565b815260208301516141e281613bfa565b602082015260408301516141f58161372e565b60408201526060830151614208816140f2565b6060820152608083015161421b8161372e565b608082015260a0830151614184816140f2565b81356142398161372e565b81546001600160a01b0319166001600160a01b03821617825550602082013561426181613bfa565b81547fffffffff0000000000000000ffffffffffffffffffffffffffffffffffffffff1660a09190911b7bffffffffffffffff0000000000000000000000000000000000000000161781556001810160408301356142be8161372e565b81546001600160a01b0319166001600160a01b0382161782555060608301356142e6816140f2565b815462ffffff60a01b191660a082901b62ffffff60a01b1617825550506002810160808301356143158161372e565b81546001600160a01b0319166001600160a01b0382161782555060a083013561433d816140f2565b815462ffffff60a01b191660a082901b62ffffff60a01b1617825561322b565b60006001600160a01b038087168352808616602084015250608060408301526143896080830185613e6b565b828103606084015261439b818561365c565b979650505050505050565b8082018082111561034357610343613e1d565b634e487b7160e01b600052603260045260246000fd5b634e487b7160e01b600052602160045260246000fd5b6001600160c01b038151168252602081015160208301526040810151604083015260006060820151608060608501526128e0608085018261365c565b602081526000612d1360208301846143e5565b60008282518085526020808601955060208260051b8401016020860160005b84811015613da357601f1986840301895261446f83835161365c565b98840198925090830190600101614453565b60008151808452602080850194506020840160005b83811015613ebd5781516001600160a01b031687529582019590820190600101614496565b60008151808452602080850194506020840160005b83811015613ebd57815180516001600160a01b0316885283810151848901526040908101518051828a0152602081015160ff166060808b01919091529181015160808a0152015160a088015260c090960195908201906001016144d0565b60008151808452602080850194506020840160005b83811015613ebd57815180518852830151614584848901828051825260ff602082015116602083015260408101516040830152606081015160608301525050565b5060a0969096019590820190600101614543565b60c0808252875190820181905260009060209060e0840190828b0184805b838110156145ee578251600781106145dc57634e487b7160e01b83526021600452602483fd5b855293850193918501916001016145b6565b505050508381036020850152614604818a614434565b91505082810360408401526146198188614481565b9050828103606084015261462d81876144bb565b90508281036080840152614641818661452e565b91505061439b60a083018467ffffffffffffffff169052565b6000602080838503121561466d57600080fd5b825167ffffffffffffffff81111561468457600080fd5b8301601f8101851361469557600080fd5b80516146a36135cc8261383c565b81815260059190911b820183019083810190878311156146c257600080fd5b928401925b8284101561439b578351825292840192908401906146c7565b8381526060602082015260006146f96060830185613e6b565b82810360408401526134078185613e6b565b60008151808452602080850194506020840160005b83811015613ebd57815187529582019590820190600101614720565b60006001600160a01b03808816835260a0602084015261475f60a084018861470b565b8381036040850152614771818861470b565b90508186166060850152838103608085015261478d818661365c565b9998505050505050505050565b6000602082840312156147ac57600080fd5b815167ffffffffffffffff8111156147c357600080fd5b8201601f810184136147d457600080fd5b6128e084825160208401613ae6565b600083516147f5818460208801613638565b7f20426f6e6420436f75706f6e2028000000000000000000000000000000000000908301908152835161482f81600e840160208801613638565b7f2900000000000000000000000000000000000000000000000000000000000000600e9290910191820152600f01949350505050565b80516020808301519190811015612cfc5760001960209190910360031b1b16919050565b6000835161489b818460208801613638565b7f2d4350000000000000000000000000000000000000000000000000000000000090830190815283516148d5816003840160208801613638565b01600301949350505050565b6000602082840312156148f357600080fd5b8151612d1381613f4f565b60c0810161034382846001600160a01b0380825116835267ffffffffffffffff6020830151166020840152806040830151166040840152606082015162ffffff80821660608601528260808501511660808601528060a08501511660a08601525050505050565b60008351614977818460208801613638565b83519083019061498b818360208801613638565b01949350505050565b600082516149a6818460208701613638565b919091019291505056fea26469706673582212204e3d86bff622dfc3e8a2aa6b8f178146ca445e36305f770e7f741f8961305a0964736f6c63430008190033",
  "devdoc": {
    "errors": {
      "AddressEmptyCode(address)": [
        {
          "details": "There's no code at `target` (it is not a contract)."
        }
      ],
      "AddressInsufficientBalance(address)": [
        {
          "details": "The ETH balance of the account is not enough to perform the operation."
        }
      ],
      "FailedInnerCall()": [
        {
          "details": "A call to an address target failed. The target may have reverted."
        }
      ],
      "OwnableInvalidOwner(address)": [
        {
          "details": "The owner is not a valid owner account. (eg. `address(0)`)"
        }
      ],
      "OwnableUnauthorizedAccount(address)": [
        {
          "details": "The caller account is not authorized to perform an operation."
        }
      ],
      "SafeCastOverflowedUintToInt(uint256)": [
        {
          "details": "An uint value doesn't fit in an int of `bits` size."
        }
      ],
      "SafeERC20FailedOperation(address)": [
        {
          "details": "An operation with an ERC20 token failed."
        }
      ]
    },
    "kind": "dev",
    "methods": {
      "acceptOwnership()": {
        "details": "The new owner accepts the ownership transfer."
      },
      "owner()": {
        "details": "Returns the address of the current owner."
      },
      "pendingOwner()": {
        "details": "Returns the address of the pending owner."
      },
      "renounceOwnership()": {
        "details": "Leaves the contract without owner. It will not be possible to call `onlyOwner` functions. Can only be called by the current owner. NOTE: Renouncing ownership will leave the contract without an owner, thereby disabling any functionality that is only available to the owner."
      },
      "supportsInterface(bytes4)": {
        "details": "See {IERC165-supportsInterface}."
      },
      "transferOwnership(address)": {
        "details": "Starts the ownership transfer of the contract to a new account. Replaces the pending transfer if there is one. Can only be called by the current owner."
      }
    },
    "version": 1
  },
  "userdoc": {
    "kind": "user",
    "methods": {},
    "version": 1
  },
  "storageLayout": {
    "storage": [
      {
        "astId": 8,
        "contract": "contracts/DepositControllerV2.sol:DepositControllerV2",
        "label": "_owner",
        "offset": 0,
        "slot": "0",
        "type": "t_address"
      },
      {
        "astId": 156,
        "contract": "contracts/DepositControllerV2.sol:DepositControllerV2",
        "label": "_pendingOwner",
        "offset": 0,
        "slot": "1",
        "type": "t_address"
      },
      {
        "astId": 11712,
        "contract": "contracts/DepositControllerV2.sol:DepositControllerV2",
        "label": "_locked",
        "offset": 0,
        "slot": "2",
        "type": "t_uint256"
      },
      {
        "astId": 9607,
        "contract": "contracts/DepositControllerV2.sol:DepositControllerV2",
        "label": "_couponSellMarkets",
        "offset": 0,
        "slot": "3",
        "type": "t_mapping(t_uint256,t_struct(BookKey)6506_storage)"
      },
      {
        "astId": 9612,
        "contract": "contracts/DepositControllerV2.sol:DepositControllerV2",
        "label": "_couponBuyMarkets",
        "offset": 0,
        "slot": "4",
        "type": "t_mapping(t_uint256,t_struct(BookKey)6506_storage)"
      }
    ],
    "types": {
      "t_address": {
        "encoding": "inplace",
        "label": "address",
        "numberOfBytes": "20"
      },
      "t_contract(IHooks)7338": {
        "encoding": "inplace",
        "label": "contract IHooks",
        "numberOfBytes": "20"
      },
      "t_mapping(t_uint256,t_struct(BookKey)6506_storage)": {
        "encoding": "mapping",
        "key": "t_uint256",
        "label": "mapping(uint256 => struct IBookManager.BookKey)",
        "numberOfBytes": "32",
        "value": "t_struct(BookKey)6506_storage"
      },
      "t_struct(BookKey)6506_storage": {
        "encoding": "inplace",
        "label": "struct IBookManager.BookKey",
        "members": [
          {
            "astId": 6491,
            "contract": "contracts/DepositControllerV2.sol:DepositControllerV2",
            "label": "base",
            "offset": 0,
            "slot": "0",
            "type": "t_userDefinedValueType(Currency)5975"
          },
          {
            "astId": 6493,
            "contract": "contracts/DepositControllerV2.sol:DepositControllerV2",
            "label": "unit",
            "offset": 20,
            "slot": "0",
            "type": "t_uint64"
          },
          {
            "astId": 6496,
            "contract": "contracts/DepositControllerV2.sol:DepositControllerV2",
            "label": "quote",
            "offset": 0,
            "slot": "1",
            "type": "t_userDefinedValueType(Currency)5975"
          },
          {
            "astId": 6499,
            "contract": "contracts/DepositControllerV2.sol:DepositControllerV2",
            "label": "makerPolicy",
            "offset": 20,
            "slot": "1",
            "type": "t_userDefinedValueType(FeePolicy)6147"
          },
          {
            "astId": 6502,
            "contract": "contracts/DepositControllerV2.sol:DepositControllerV2",
            "label": "hooks",
            "offset": 0,
            "slot": "2",
            "type": "t_contract(IHooks)7338"
          },
          {
            "astId": 6505,
            "contract": "contracts/DepositControllerV2.sol:DepositControllerV2",
            "label": "takerPolicy",
            "offset": 20,
            "slot": "2",
            "type": "t_userDefinedValueType(FeePolicy)6147"
          }
        ],
        "numberOfBytes": "96"
      },
      "t_uint256": {
        "encoding": "inplace",
        "label": "uint256",
        "numberOfBytes": "32"
      },
      "t_uint64": {
        "encoding": "inplace",
        "label": "uint64",
        "numberOfBytes": "8"
      },
      "t_userDefinedValueType(Currency)5975": {
        "encoding": "inplace",
        "label": "Currency",
        "numberOfBytes": "20"
      },
      "t_userDefinedValueType(FeePolicy)6147": {
        "encoding": "inplace",
        "label": "FeePolicy",
        "numberOfBytes": "3"
      }
    }
  }
}