{
  "address": "0x722731e5d12883080075259c701b9B451F0C4AB8",
  "abi": [
    {
      "inputs": [
        {
          "internalType": "address",
          "name": "weth",
          "type": "address"
        }
      ],
      "stateMutability": "nonpayable",
      "type": "constructor"
    },
    {
      "inputs": [],
      "name": "ExceedsAmount",
      "type": "error"
    },
    {
      "inputs": [
        {
          "components": [
            {
              "internalType": "uint256",
              "name": "permitAmount",
              "type": "uint256"
            },
            {
              "components": [
                {
                  "internalType": "uint256",
                  "name": "deadline",
                  "type": "uint256"
                },
                {
                  "internalType": "uint8",
                  "name": "v",
                  "type": "uint8"
                },
                {
                  "internalType": "bytes32",
                  "name": "r",
                  "type": "bytes32"
                },
                {
                  "internalType": "bytes32",
                  "name": "s",
                  "type": "bytes32"
                }
              ],
              "internalType": "struct PermitSignature",
              "name": "signature",
              "type": "tuple"
            }
          ],
          "internalType": "struct ERC20PermitParams",
          "name": "permitParams",
          "type": "tuple"
        },
        {
          "internalType": "contract ISubstitute",
          "name": "substitute",
          "type": "address"
        },
        {
          "internalType": "uint256",
          "name": "amount",
          "type": "uint256"
        },
        {
          "internalType": "address",
          "name": "recipient",
          "type": "address"
        }
      ],
      "name": "mint",
      "outputs": [],
      "stateMutability": "payable",
      "type": "function"
    }
  ],
  "transactionHash": "0xa83748cedd85862a0497e2e14029758092145f92e200901818349a19784306c1",
  "args": [
    "0xE0dBCB42CCAc63C949cE3EF879A647DDb662916d"
  ],
  "numDeployments": 1,
  "solcInputHash": "7a9dd9788be035eca337f7aff35684d9",
  "bytecode": "0x60a0604052348015600f57600080fd5b50604051610690380380610690833981016040819052602c91603c565b6001600160a01b0316608052606a565b600060208284031215604d57600080fd5b81516001600160a01b0381168114606357600080fd5b9392505050565b6080516105f861009860003960008181603d0152818160c20152818161018d015261023f01526105f86000f3fe60806040526004361061001e5760003560e01c8063d6831d6e14610023575b600080fd5b610036610031366004610433565b610038565b005b6100757f0000000000000000000000000000000000000000000000000000000000000000333061006d368990038901896104c4565b92919061032e565b50813411156100b0576040517f37e2b7dd00000000000000000000000000000000000000000000000000000000815260040160405180910390fd5b81341015610185576001600160a01b037f0000000000000000000000000000000000000000000000000000000000000000166323b872dd33306100f33487610572565b6040517fffffffff0000000000000000000000000000000000000000000000000000000060e086901b1681526001600160a01b03938416600482015292909116602483015260448201526064016020604051808303816000875af115801561015f573d6000803e3d6000fd5b505050506040513d601f19601f820116820180604052508101906101839190610599565b505b3415610200577f00000000000000000000000000000000000000000000000000000000000000006001600160a01b031663d0e30db0346040518263ffffffff1660e01b81526004016000604051808303818588803b1580156101e657600080fd5b505af11580156101fa573d6000803e3d6000fd5b50505050505b6040517f095ea7b30000000000000000000000000000000000000000000000000000000081526001600160a01b038481166004830152602482018490527f0000000000000000000000000000000000000000000000000000000000000000169063095ea7b3906044016020604051808303816000875af1158015610288573d6000803e3d6000fd5b505050506040513d601f19601f820116820180604052508101906102ac9190610599565b506040517f94bf804d000000000000000000000000000000000000000000000000000000008152600481018390526001600160a01b0382811660248301528416906394bf804d90604401600060405180830381600087803b15801561031057600080fd5b505af1158015610324573d6000803e3d6000fd5b5050505050505050565b60006103458560200151858760000151868661034e565b95945050505050565b84516000901561040f578551602087015160408089015160608a015191517fd505accf0000000000000000000000000000000000000000000000000000000081526001600160a01b0388811660048301528781166024830152604482018a9052606482019590955260ff909316608484015260a483015260c48201529086169063d505accf9060e401600060405180830381600087803b1580156103f157600080fd5b505af1925050508015610402575060015b1561040f57506001610345565b50600095945050505050565b6001600160a01b038116811461043057600080fd5b50565b60008060008084860361010081121561044b57600080fd5b60a081121561045957600080fd5b5084935060a085013561046b8161041b565b925060c0850135915060e08501356104828161041b565b939692955090935050565b6040516080810167ffffffffffffffff811182821017156104be57634e487b7160e01b600052604160045260246000fd5b60405290565b600081830360a08112156104d757600080fd5b6040516040810181811067ffffffffffffffff8211171561050857634e487b7160e01b600052604160045260246000fd5b604052833581526080601f198301121561052157600080fd5b61052961048d565b915060208401358252604084013560ff8116811461054657600080fd5b806020840152506060840135604083015260808401356060830152816020820152809250505092915050565b8181038181111561059357634e487b7160e01b600052601160045260246000fd5b92915050565b6000602082840312156105ab57600080fd5b815180151581146105bb57600080fd5b939250505056fea2646970667358221220e3ccd6121508c2ac6386576e7565589435c66472c8b7ed5e4a026cfdaa104aea64736f6c63430008190033",
  "devdoc": {
    "kind": "dev",
    "methods": {},
    "version": 1
  },
  "userdoc": {
    "kind": "user",
    "methods": {},
    "version": 1
  },
  "storageLayout": {
    "storage": [],
    "types": null
  }
}