{
  "address": "0x280dB84FD75Ae5CC812F79c8d12508B26E4Ba85D",
  "abi": [
    {
      "inputs": [
        {
          "internalType": "contract ICouponOracle",
          "name": "_oracle",
          "type": "address"
        }
      ],
      "stateMutability": "nonpayable",
      "type": "constructor"
    },
    {
      "inputs": [],
      "name": "InvalidInitialization",
      "type": "error"
    },
    {
      "inputs": [],
      "name": "NotInitializing",
      "type": "error"
    },
    {
      "inputs": [
        {
          "internalType": "address",
          "name": "owner",
          "type": "address"
        }
      ],
      "name": "OwnableInvalidOwner",
      "type": "error"
    },
    {
      "inputs": [
        {
          "internalType": "address",
          "name": "account",
          "type": "address"
        }
      ],
      "name": "OwnableUnauthorizedAccount",
      "type": "error"
    },
    {
      "anonymous": false,
      "inputs": [
        {
          "indexed": false,
          "internalType": "uint64",
          "name": "version",
          "type": "uint64"
        }
      ],
      "name": "Initialized",
      "type": "event"
    },
    {
      "anonymous": false,
      "inputs": [
        {
          "indexed": true,
          "internalType": "address",
          "name": "previousOwner",
          "type": "address"
        },
        {
          "indexed": true,
          "internalType": "address",
          "name": "newOwner",
          "type": "address"
        }
      ],
      "name": "OwnershipTransferStarted",
      "type": "event"
    },
    {
      "anonymous": false,
      "inputs": [
        {
          "indexed": true,
          "internalType": "address",
          "name": "previousOwner",
          "type": "address"
        },
        {
          "indexed": true,
          "internalType": "address",
          "name": "newOwner",
          "type": "address"
        }
      ],
      "name": "OwnershipTransferred",
      "type": "event"
    },
    {
      "inputs": [],
      "name": "acceptOwnership",
      "outputs": [],
      "stateMutability": "nonpayable",
      "type": "function"
    },
    {
      "inputs": [],
      "name": "initialize",
      "outputs": [],
      "stateMutability": "nonpayable",
      "type": "function"
    },
    {
      "inputs": [],
      "name": "oracle",
      "outputs": [
        {
          "internalType": "contract ICouponOracle",
          "name": "",
          "type": "address"
        }
      ],
      "stateMutability": "view",
      "type": "function"
    },
    {
      "inputs": [],
      "name": "owner",
      "outputs": [
        {
          "internalType": "address",
          "name": "",
          "type": "address"
        }
      ],
      "stateMutability": "view",
      "type": "function"
    },
    {
      "inputs": [],
      "name": "pendingOwner",
      "outputs": [
        {
          "internalType": "address",
          "name": "",
          "type": "address"
        }
      ],
      "stateMutability": "view",
      "type": "function"
    },
    {
      "inputs": [],
      "name": "renounceOwnership",
      "outputs": [],
      "stateMutability": "nonpayable",
      "type": "function"
    },
    {
      "inputs": [
        {
          "internalType": "address",
          "name": "tokenIn",
          "type": "address"
        },
        {
          "internalType": "address",
          "name": "tokenOut",
          "type": "address"
        },
        {
          "internalType": "uint256",
          "name": "amountIn",
          "type": "uint256"
        }
      ],
      "name": "swap",
      "outputs": [],
      "stateMutability": "nonpayable",
      "type": "function"
    },
    {
      "inputs": [
        {
          "internalType": "address",
          "name": "newOwner",
          "type": "address"
        }
      ],
      "name": "transferOwnership",
      "outputs": [],
      "stateMutability": "nonpayable",
      "type": "function"
    },
    {
      "stateMutability": "payable",
      "type": "receive"
    }
  ],
  "transactionHash": "0x57b405eb18e8624563bd961be5de96501d0a391e66b1af1e67bfa969108626d6",
  "args": [
    "0x56F3907C71A0dcF4e354F9f5093Da0bE9AA050A4"
  ],
  "numDeployments": 1,
  "solcInputHash": "644887bb3a67d56f80229ed7eeb21acb",
  "bytecode": "0x60a060405234801561001057600080fd5b50604051610ca3380380610ca383398101604081905261002f916100dc565b338061005557604051631e4fbdf760e01b81526000600482015260240160405180910390fd5b61005e81610070565b506001600160a01b031660805261010c565b600180546001600160a01b03191690556100898161008c565b50565b600080546001600160a01b038381166001600160a01b0319831681178455604051919092169283917f8be0079c531659141344cd1fd0a4f28419497f9722a3daafe3b4186f6b6457e09190a35050565b6000602082840312156100ee57600080fd5b81516001600160a01b038116811461010557600080fd5b9392505050565b608051610b616101426000396000818160c9015281816104d20152818161055c0152818161060b01526106950152610b616000f3fe60806040526004361061007f5760003560e01c80638da5cb5b1161004e5780638da5cb5b1461011c578063df791e501461013a578063e30c39781461015a578063f2fde38b1461017857600080fd5b8063715018a61461008b57806379ba5097146100a25780637dc0d1d0146100b75780638129fc1c1461010757600080fd5b3661008657005b600080fd5b34801561009757600080fd5b506100a0610198565b005b3480156100ae57600080fd5b506100a06101ac565b3480156100c357600080fd5b506100eb7f000000000000000000000000000000000000000000000000000000000000000081565b6040516001600160a01b03909116815260200160405180910390f35b34801561011357600080fd5b506100a06101f5565b34801561012857600080fd5b506000546001600160a01b03166100eb565b34801561014657600080fd5b506100a061015536600461090e565b610331565b34801561016657600080fd5b506001546001600160a01b03166100eb565b34801561018457600080fd5b506100a061019336600461094a565b6107c9565b6101a0610847565b6101aa6000610874565b565b60015433906001600160a01b031681146101e95760405163118cdaa760e01b81526001600160a01b03821660048201526024015b60405180910390fd5b6101f281610874565b50565b7ff0c57e16840df040f15088dc2f81fe391c3923bec73e23a9662efc9c229c6a00805468010000000000000000810460ff16159067ffffffffffffffff166000811580156102405750825b905060008267ffffffffffffffff16600114801561025d5750303b155b90508115801561026b575080155b156102a2576040517ff92ee8a900000000000000000000000000000000000000000000000000000000815260040160405180910390fd5b845467ffffffffffffffff1916600117855583156102d657845468ff00000000000000001916680100000000000000001785555b6102df33610874565b831561032a57845468ff000000000000000019168555604051600181527fc7f505b2f371ae2175ee4913f4499e1f2633a7b5936321eed1cdaeb6115181d29060200160405180910390a15b5050505050565b6040517f23b872dd000000000000000000000000000000000000000000000000000000008152336004820152306024820152604481018290526001600160a01b038416906323b872dd906064016020604051808303816000875af115801561039d573d6000803e3d6000fd5b505050506040513d601f19601f820116820180604052508101906103c1919061096c565b506000836001600160a01b031663313ce5676040518163ffffffff1660e01b8152600401602060405180830381865afa158015610402573d6000803e3d6000fd5b505050506040513d601f19601f82011682018060405250810190610426919061098e565b90506000836001600160a01b031663313ce5676040518163ffffffff1660e01b8152600401602060405180830381865afa158015610468573d6000803e3d6000fd5b505050506040513d601f19601f8201168201806040525081019061048c919061098e565b905060008160ff168360ff1611156105ec576104a882846109c7565b6104b390600a610aca565b60405163b3596f0760e01b81526001600160a01b0387811660048301527f0000000000000000000000000000000000000000000000000000000000000000169063b3596f0790602401602060405180830381865afa158015610519573d6000803e3d6000fd5b505050506040513d601f19601f8201168201806040525081019061053d9190610ad9565b60405163b3596f0760e01b81526001600160a01b0389811660048301527f0000000000000000000000000000000000000000000000000000000000000000169063b3596f0790602401602060405180830381865afa1580156105a3573d6000803e3d6000fd5b505050506040513d601f19601f820116820180604052508101906105c79190610ad9565b6105d19087610af2565b6105db9190610b09565b6105e59190610b09565b9050610736565b60405163b3596f0760e01b81526001600160a01b0386811660048301527f0000000000000000000000000000000000000000000000000000000000000000169063b3596f0790602401602060405180830381865afa158015610652573d6000803e3d6000fd5b505050506040513d601f19601f820116820180604052508101906106769190610ad9565b60405163b3596f0760e01b81526001600160a01b0388811660048301527f0000000000000000000000000000000000000000000000000000000000000000169063b3596f0790602401602060405180830381865afa1580156106dc573d6000803e3d6000fd5b505050506040513d601f19601f820116820180604052508101906107009190610ad9565b61070a85856109c7565b61071590600a610aca565b61071f9087610af2565b6107299190610af2565b6107339190610b09565b90505b6040517fa9059cbb000000000000000000000000000000000000000000000000000000008152336004820152602481018290526001600160a01b0386169063a9059cbb906044016020604051808303816000875af115801561079c573d6000803e3d6000fd5b505050506040513d601f19601f820116820180604052508101906107c0919061096c565b50505050505050565b6107d1610847565b600180546001600160a01b03831673ffffffffffffffffffffffffffffffffffffffff19909116811790915561080f6000546001600160a01b031690565b6001600160a01b03167f38d16b8cac22d99fc7c124b9cd0de2d3fa1faef420bfe791d8c362d765e2270060405160405180910390a350565b6000546001600160a01b031633146101aa5760405163118cdaa760e01b81523360048201526024016101e0565b6001805473ffffffffffffffffffffffffffffffffffffffff191690556101f281600080546001600160a01b0383811673ffffffffffffffffffffffffffffffffffffffff19831681178455604051919092169283917f8be0079c531659141344cd1fd0a4f28419497f9722a3daafe3b4186f6b6457e09190a35050565b80356001600160a01b038116811461090957600080fd5b919050565b60008060006060848603121561092357600080fd5b61092c846108f2565b925061093a602085016108f2565b9150604084013590509250925092565b60006020828403121561095c57600080fd5b610965826108f2565b9392505050565b60006020828403121561097e57600080fd5b8151801515811461096557600080fd5b6000602082840312156109a057600080fd5b815160ff8116811461096557600080fd5b634e487b7160e01b600052601160045260246000fd5b60ff82811682821603908111156109e0576109e06109b1565b92915050565b600181815b80851115610a21578160001904821115610a0757610a076109b1565b80851615610a1457918102915b93841c93908002906109eb565b509250929050565b600082610a38575060016109e0565b81610a45575060006109e0565b8160018114610a5b5760028114610a6557610a81565b60019150506109e0565b60ff841115610a7657610a766109b1565b50506001821b6109e0565b5060208310610133831016604e8410600b8410161715610aa4575081810a6109e0565b610aae83836109e6565b8060001904821115610ac257610ac26109b1565b029392505050565b600061096560ff841683610a29565b600060208284031215610aeb57600080fd5b5051919050565b80820281158282048414176109e0576109e06109b1565b600082610b2657634e487b7160e01b600052601260045260246000fd5b50049056fea2646970667358221220c0763c58731ce9dc3030bcf3cbbc79d179cea2d68e4f5402d6b44e0084db853e64736f6c63430008190033",
  "devdoc": {
    "errors": {
      "InvalidInitialization()": [
        {
          "details": "The contract is already initialized."
        }
      ],
      "NotInitializing()": [
        {
          "details": "The contract is not initializing."
        }
      ],
      "OwnableInvalidOwner(address)": [
        {
          "details": "The owner is not a valid owner account. (eg. `address(0)`)"
        }
      ],
      "OwnableUnauthorizedAccount(address)": [
        {
          "details": "The caller account is not authorized to perform an operation."
        }
      ]
    },
    "events": {
      "Initialized(uint64)": {
        "details": "Triggered when the contract has been initialized or reinitialized."
      }
    },
    "kind": "dev",
    "methods": {
      "acceptOwnership()": {
        "details": "The new owner accepts the ownership transfer."
      },
      "owner()": {
        "details": "Returns the address of the current owner."
      },
      "pendingOwner()": {
        "details": "Returns the address of the pending owner."
      },
      "renounceOwnership()": {
        "details": "Leaves the contract without owner. It will not be possible to call `onlyOwner` functions. Can only be called by the current owner. NOTE: Renouncing ownership will leave the contract without an owner, thereby disabling any functionality that is only available to the owner."
      },
      "transferOwnership(address)": {
        "details": "Starts the ownership transfer of the contract to a new account. Replaces the pending transfer if there is one. Can only be called by the current owner."
      }
    },
    "version": 1
  },
  "userdoc": {
    "kind": "user",
    "methods": {},
    "version": 1
  },
  "storageLayout": {
    "storage": [
      {
        "astId": 8,
        "contract": "contracts/mocks/MockRouter.sol:MockRouter",
        "label": "_owner",
        "offset": 0,
        "slot": "0",
        "type": "t_address"
      },
      {
        "astId": 156,
        "contract": "contracts/mocks/MockRouter.sol:MockRouter",
        "label": "_pendingOwner",
        "offset": 0,
        "slot": "1",
        "type": "t_address"
      }
    ],
    "types": {
      "t_address": {
        "encoding": "inplace",
        "label": "address",
        "numberOfBytes": "20"
      }
    }
  }
}